:100000000C9485010C946C150C9445150C94AD0161
:100010000C94AD010C94AD010C94AD010C94AD01A8
:100020000C94AD010C94AD010C94AD010C94AD0198
:100030000C94AD010C94AD010C94AD010C94AD0188
:100040000C9443160C94AD010C94BE100C949810B3
:100050000C94AD010C94AD010C94AD010C94AD0168
:100060000C9407060C94AD0100030C0F30333C3F99
:10007000C0C3CCCFF0F3FCFF000000002500280037
:100080002B00040404040404040402020202020219
:10009000030303030303010204081020408001024C
:1000A00004081020010204081020000000080002CB
:1000B0000100000304070000000000000000000130
:1000C000020304051112131415160A0B0C0D0E0F62
:1000D000AED580A83FD300408D142002A1C8DA120B
:1000E000817FD9F1DB40A4A6AF5374616E64696E61
:1000F000672062792E2E2E005374617274696E67C8
:100100002E2E000000050720610000000000000006
:100110005F00000007000700147F147F14242A7F6B
:100120002A12231308646236495522500005030041
:1001300000001C2241000041221C00082A1C2A0841
:1001400008083E08080050300000080808080800A9
:100150006060000020100804023E5149453E004204
:100160007F400042615149462141454B31181412EC
:100170007F1027454545393C4A49493001710905F9
:10018000033649494936064949291E0036360000DA
:1001900000563600000008142241141414141441AF
:1001A000221408000201510906324979413E7E11AC
:1001B00011117E7F494949363E414141227F4141EB
:1001C000221C7F494949417F090901013E414151B2
:1001D000327F0808087F00417F41002040413F01F5
:1001E0007F081422417F404040407F0204027F7F0D
:1001F0000408107F3E4141413E7F090909063E4106
:1002000051215E7F09192946464949493101017F3B
:1002100001013F4040403F1F2040201F7F20182009
:100220007F63140814630304780403615149454350
:1002300000007F4141020408102041417F0000047A
:1002400002010204404040404000010204002054EA
:100250005454787F48444438384444442038444413
:10026000487F3854545418087E0901020814545425
:100270003C7F0804047800447D40002040443D0059
:10028000007F10284400417F40007C041804787CE3
:100290000804047838444444387C141414080814BE
:1002A00014187C7C080404084854545420043F4427
:1002B00040203C4040207C1C2040201C3C403040E2
:1002C0003C44281028440C5050503C4464544C4446
:1002D000000836410000007F000000413608000899
:1002E000082A1C08081C2A08080006090906D0006C
:1002F00019804000000000002300260029000000B3
:100300000000240027002A008D1611241FBECFEF05
:10031000D8E0DEBFCDBF24E0AEEDB1E001C01D925C
:10032000A03CB207E1F711E0A0E0B1E0E8EFF7E3AD
:1003300002C005900D92AE3DB107D9F711E0C5E8B6
:10034000D1E004C02197FE010E94A71AC438D1074A
:10035000C9F70E941A170C94FA1B0C940000CF9353
:10036000DF93EC019C818E81981758F4E881F98124
:100370000084F185E02D42E0CE0109958C818F5FEC
:100380008C83DF91CF91089508958FEF9FEF0895AB
:100390008FEF9FEF089580914C0290E091958195A9
:1003A0009109089585ED8093BC008091BC0084FD87
:1003B000FCCF10922602089540910002262F30E0D3
:1003C000240F311D21323105DCF420912602243026
:1003D000C9F4FC0180E090E0861758F430910002E7
:1003E0002191DC01A252BE4FA30FB11D2C930196A7
:1003F000F3CF80910002680F6093000280E00895BF
:1004000081E0089582E00895CF93DF9300D0CDB7C7
:10041000DEB7CB01642F49835A830E94DC014981F6
:10042000842F5A81952F0F900F90DF91CF910895CF
:10043000CF93DF931F92CDB7DEB7698361E0CE0122
:1004400001960E94DC0181E090E00F90DF91CF9156
:10045000089581E08093AE040895089580E090E0CF
:100460000895EF92FF920F931F93CF93DF93EC01C8
:100470007B01BA018AA99BA9F70191838083DE01E0
:10048000179688E001900D928A95E1F721153105C4
:1004900029F0A901CE010F960E94DF1BF7016281AE
:1004A00073810833110561F06034710511F444E083
:1004B00001C043E06017710709F442E0B80101C0D0
:1004C00040E0CE01DF91CF911F910F91FF90EF900F
:1004D0000C9437148F929F92AF92BF92CF92DF927B
:1004E000EF92FF920F931F93CF93DF93EC017B0169
:1004F000CCA8D12C860108501109DB0116969C91DD
:100500008CE6890F833020F0983C09F0CFC003C0FF
:10051000943909F4E4C08BE6890F823018F0983CD6
:1005200009F08EC06E0159EDC50ED11CD6012D917A
:100530003C91A801420F531F4139510520F0C85288
:10054000DF4F1882B1C05E01B8EDAB0EB11CF501F2
:100550008081882309F415C1963929F0D7011796AF
:100560009C919813A1C0FE01EB52FF4F4081518135
:10057000F701848195814817590709F095C04E010C
:10058000FBED8F0E911CD4018D919C91A801BE01B1
:10059000615F7F4F820F931F0E94DF1BF6018081F6
:1005A0009181080F191F11830083D70116968C9132
:1005B000863929F0F50180818150808373C0D5018F
:1005C0001C92F7018781FE01E952FF4F8083833837
:1005D00009F483C07E01FFECEF0EF11CF701A0814E
:1005E000B181CE018A1B9B0B8B539F4F80179107C4
:1005F000F8F032968AE001900D928A95E1F7D701E2
:100600008D919C91F40160817181D6014D915C9135
:100610000A960E94DF1BF601808191810A96D7011C
:100620002D913C911197820F931F8D939C933AC00B
:100630008FA598A90E94F0118AA581608AA734C06D
:100640007E01BFECEB0EF11CF701A081B181CE0160
:10065000C5969D01281B390BC901800F911F8B394D
:10066000910510F5E85CF10988E001900D928A95FA
:10067000E1F7D701ED91FC911197118700878D91DA
:100680009C91BE01615F7F4FA8010A960E94DF1B0B
:10069000B2E0CB0ED11CF70180819181C80ED91E2A
:1006A000D182C08281E06DC080E06BC0933841F69A
:1006B000DE01AF52BF4FFE01379688E001900D92E8
:1006C0008A95E1F7FE01E552FF4FCE010F96918327
:1006D0008083C752DF4F1983088382E052C0F7013D
:1006E0008781873008F02BCFFE01EB52FF4F40810E
:1006F0005181D70114962D913C91159734976F0134
:100700004217530739F4408151812D913C91421792
:10071000530741F2F8E18F9FC0011124FE01E1531C
:10072000FF4F20813181AE01421B530B9A012B53A5
:100730003F4F281739073CF48AA581608AA78FA507
:1007400098A90E94F011FE01379688E0D601019029
:100750000D928A95E1F7FE01E552FF4FBE01615F00
:100760007F4FA801808191810E94DF1BFE01E7522B
:10077000FF4F11830083C852DF4F888181508883E7
:1007800091CFDF91CF911F910F91FF90EF90DF906C
:10079000CF90BF90AF909F908F900895DC01ED9126
:1007A000FC910084F185E02D40E009940F931F93A4
:1007B000CF938C01FC0164839085C62FC90F6C2FE9
:1007C0006F70C8010E94CE036C2F62956F706061DC
:1007D000C801CF911F910F910C94CE030F931F93DB
:1007E000CF93DF931F92CDB7DEB78C01FC018681DA
:1007F000681728F4C80149830E94D6034981F8018B
:100800008781869586958695481758F44583642F89
:10081000606BC8010F90DF91CF911F910F910C94E5
:10082000CE030F90DF91CF911F910F910895CF923A
:10083000DF92EF92FF920F931F93CF93DF93EC0120
:10084000F62EC42ED22E8F81869586958695081712
:1008500010F00FEF080F1D2D011780F0412F6F2DA5
:10086000CE010E94EE03EF2CCE1430F060E0CE01FA
:100870000E94AF01E394F8CF1F5FEECF4D2D6F2D97
:10088000CE01DF91CF911F910F91FF90EF90DF90FC
:10089000CF900C94EE032F923F924F925F926F9203
:1008A0007F928F929F92AF92BF92CF92DF92EF9200
:1008B000FF920F931F93CF93DF93CDB7DEB72797A8
:1008C0000FB6F894DEBF0FBECDBFDC011B960D91B5
:1008D0001C911C970115110509F462C19F838E8339
:1008E000F801B49131964491319654903196A49187
:1008F000EA2EF12CF7E0EF0EF11C23E0F594E794DB
:100900002A95E1F7EB82F801349674913196E491DF
:10091000671758F0862F90E02E2F30E0F901E70F8F
:10092000F11D8E179F070CF473C06D3069F4AE8112
:10093000BF8116968C91882309F467C060E08E8190
:100940009F810E94D60361C06A3009F029C1EE81FF
:10095000FF8181856581D62E8E9DD00C11248781E3
:10096000869586958695D81630F08285882319F06D
:1009700082E08287D12C4D2D60E08E819F810E9484
:10098000EE03AE81BF811A968C911A97823008F4DB
:100990003CC015962C9115971B96ED91FC911C97D8
:1009A000309741F03396E49119960C91E09FE02D39
:1009B000112401C0E0E08FEF820F0E2F10E0095FDD
:1009C0001F4F93E0159507959A95E1F7080FEE8173
:1009D000FF81468141506481CF010E941704AE819E
:1009E000BF8119968C9119976D2D8E9D600D1124E4
:1009F000660F660F660F17968C91861708F460E0F5
:100A000060648E819F810E94CE0381E090E0CAC025
:100A100050E05B2BC8010696671BEE81FF81F185D4
:100A2000F9834230510588F4452B09F019825E9C08
:100A300090015F9C300D1124629F8001639F100D17
:100A40001124080F191F412C24C0EA2FE77021F050
:100A500048E0442E4E1A01C0412CA82FFC0140E072
:100A600050E07E2F7A1B761728F47491470F511DA2
:100A70003196F7CFFC01E60FF11D54904E9D800199
:100A80004F9D100D5E9D100D1124020F131F080FB6
:100A9000191FAE81BF811496BC91BC83EE81FF818A
:100AA0003580652C712CCC24C394D12C812C912CB5
:100AB0007FEF7C0D7A838B81781708F05FC0212C43
:100AC000AE81BF8119968C91281608F051C07A81A9
:100AD000711102C0222051F0AE81BF8115964C9158
:100AE00015974F5F6C81CD010E94EE03A12CB12CB4
:100AF000A51488F5F501E80DF91DE00FF11F24910B
:100B0000442061F0CE14DF0449F4E22FF0E0042C1D
:100B100002C0F595E7950A94E2F72E2FEE81FF814A
:100B20008185823079F4E22F2110E295EF70F0E0B8
:100B3000E859FF4F2491622F8E819F812D830E945F
:100B4000AF012D81622F8E819F810E94AF01FFEF47
:100B5000AF1ABF0ACDCFB12C7981B71639F060E05A
:100B60008E819F810E94AF01B394F6CF2394A8CFCA
:100B7000860C971CBFEFCB1ADB0A9ACFAE81BF81E0
:100B800017968C911797869586958695381608F056
:100B90003CCF15963C921597632D606BCD0133CFFA
:100BA00080E090E027960FB6F894DEBF0FBECDBF71
:100BB000DF91CF911F910F91FF90EF90DF90CF9039
:100BC000BF90AF909F908F907F906F905F904F906D
:100BD0003F902F9008950F93CF93DF93EC010F81F7
:100BE00006950695069501504E81415020E060E043
:100BF0000E94170481E09A85911101C080E08A87E4
:100C000060E4CE01DF91CF910F910C94CE031F923F
:100C10000F920FB60F9211242F933F934F935F9330
:100C20006F937F938F939F93AF93BF93EF93FF93B4
:100C30008091B900887F803609F49CC068F58832BD
:100C400009F45BC090F4803109F454C038F488236F
:100C500009F4F6C0883009F44DC0F6C0883109F4B3
:100C60004CC0803209F45DC0EFC0803409F468C024
:100C700048F4803309F455C0883309F0E5C0809307
:100C80002502D8C0803509F44FC0883509F45DC00D
:100C9000883409F0D9C0D6C0883909F4C7C0A8F48F
:100CA000883709F467C038F4883609F463C08037A0
:100CB00009F460C0C9C0883809F4B8C0803909F4A3
:100CC0005FC0803809F0C0C05BC0803B09F486C0BB
:100CD00038F4803A09F466C0883A09F47FC0B4C099
:100CE000803C09F4A7C0883C09F4A4C0883B09F4FF
:100CF0008AC0AAC080914B0210C090914A02809194
:100D00004902981770F5E0914A0281E08E0F8093B6
:100D10004A02F0E0E75DFD4F80818093BB0085ECE7
:100D200086C0809325028EC0E0914A0281E08E0F3A
:100D300080934A028091BB00F0E0E75DFD4F808325
:100D400090914A02809149026EC0E0914A0281E08E
:100D50008E0F80934A028091BB00F0E0E75DFD4F6B
:100D600080838091280281116DC081E080932702E9
:100D700084EA61C083E08093260210922402CFCFE0
:100D800080912402803208F051C0E091240281E079
:100D90008E0F809324028091BB00F0E0EC5FFD4F4A
:100DA0008083BDCF85EC8093BC0010922602809199
:100DB0002402803230F4E0912402F0E0EC5FFD4F39
:100DC00010826091240270E0E0910202F09103022F
:100DD00084E092E009951092240236C084E080936A
:100DE00026021092010210920002E091FE01F091A1
:100DF000FF01099580910002811105C081E0809377
:100E000000021092DE01E091010281E08E0F8093DA
:100E10000102F0E0E252FE4F80818093BB0090918E
:100E2000010280910002981708F479CF85E8809339
:100E3000BC000AC085EC8093BC001092260204C05E
:100E4000109225020E94D201FF91EF91BF91AF91C4
:100E50009F918F917F916F915F914F913F912F91D2
:100E60000F900FBE0F901F901895DC01862F262F34
:100E700030E0F901EE57FF4FE491F0E0EE0FFF1F75
:100E8000E858FF4F4591549113965C934E931297F7
:100E9000F901EA56FF4FE491EC93E0951196EC933B
:100EA00061E00C94B8158EBD00000DB407FEFDCFB7
:100EB0008EB508952F923F924F925F926F927F92DC
:100EC0008F929F92AF92BF92CF92DF92EF92FF925A
:100ED0000F931F93CF93DF9300D01F92CDB7DEB750
:100EE000DC019A969C919A97892F827091FD19C086
:100EF000FD01E153FF4FAD014B5C5F4F90FD07C01B
:100F000020813181241B350B2937310554F0208194
:100F100031814217530708F480C19E7F9A969C93B3
:100F20009A97BB83AA83512C7D0127E0E20EF11C26
:100F300022242394312C1CEBC12E12E1D12E5D0111
:100F400031E9A31A3EEFB30A04E2802E09E0902EA5
:100F5000EA81FB8107A510A9F801808191818F3F6B
:100F6000910509F440C0F801828193818F3F91057A
:100F7000E1F539C0C8010E94F01040E767E0C80100
:100F80000E941511EA81FB8161857285CB01009772
:100F900009F090C0EA81FB81558482A993A9681762
:100FA000790709F0C3C0F2E85F1691F220E8521603
:100FB00009F48DC0F3EC5F1609F49CC0EA81FB8153
:100FC00081A5882309F4A4C057FEA6C08CE6850D30
:100FD000833008F4A1C028EC521609F49DC033E810
:100FE000531609F499C0852D18C167E1C8010E9404
:100FF0007011F82FF1707F2E80FDF5CF6FEFC801D3
:101000000E94F610EA81FB8107A510A9C8010E9481
:10101000F31080E60E9453078FEF0E945307682E5B
:10102000C8010E94F010F0E2F61508F04EC062EE22
:10103000C8010E94F61062E070E080E090E00E943B
:10104000FD15EA81FB8174AAF7E0F71538F06AE034
:1010500070E080E090E00E94FD157ACFEA81FB818C
:1010600007A510A9F8014780272D471408F4242D5F
:10107000F8018085811102C0421A01C0412CC801CB
:1010800029830E94F31081E60E94530737012981CA
:10109000215040F08FEF29830E945307F301819381
:1010A0003F01F5CF442009F465CF8FEF0E9453072D
:1010B0004A94F8CF282F2770263008F049CFE3E074
:1010C00096958795EA95E1F762CF762CBACF643290
:1010D000794009F473CFEA81FB819286818642E0F0
:1010E00064E279E0CF010E9437146AE070E080E0AA
:1010F00090E03AC06115710509F460CFEA81FB8187
:10110000708767831286118640E060E070E033C02C
:10111000F1EC5F1609F45ACFB7018A819B810E94D6
:101120006A02823009F014CF83E877C06034710519
:1011300009F06DC042EC541220C0EA81FB8122A567
:1011400023FD06CF8432F9E09F0709F401CFEA813D
:10115000FB81278130853287218790878783F5013E
:10116000608170E080E090E00E94FD15EA81FB81E3
:101170006185728542E0CF014DC0B7018A819B81B4
:101180000E946A02182FEA81FB8180818823D9F1AD
:1011900082A993A99C0153E0369527955A95E1F7CA
:1011A000232B19F0F6013197F1F7837099279C01F1
:1011B00048E552E0249FC001259F900D349F900D7B
:1011C00011240E94F415EA81FB8121A9222379F0E0
:1011D00030E021503109C901880F991F280F391FAC
:1011E000B10102C0660F771F2A95E2F702C060E0E6
:1011F00070E083E0660F771F8A95E1F744E08A810B
:101200009B810E943714123009F0A2CE8DCF41E0AD
:101210008A819B810E9437149BCE0F900F900F9074
:10122000DF91CF911F910F91FF90EF90DF90CF90C2
:10123000BF90AF909F908F907F906F905F904F90F6
:101240003F902F9008952F923F924F925F926F920E
:101250007F928F929F92AF92BF92CF92DF92EF9246
:10126000FF920F931F93CF93DF93EC017B015A0101
:10127000690148010E9437164BA45CA46DA47EA4AA
:10128000DC01CB0184199509A609B7094997A10585
:10129000B10528F4CE010E945A0787FFEBCF8CE8F6
:1012A00091E00197F1F789E1C816D104B0F488E024
:1012B0008C0D8CAB84019601A501B701CE010E9473
:1012C0003102182F882311F011E092C00E943716C6
:1012D0006BA77CA78DA79EA78BC0E1E9CE16D10492
:1012E00008F085C0C60168E170E00E94711A21E033
:1012F000892B09F420E0C60168E170E00E94711AB0
:10130000722E760EF701828193818034910539F037
:101310008AA584608AA78FA598A90E94F011F70179
:101320004680512C612C84E9282E96E9392EF7014C
:101330007782F1E07F1204C0F7013682478208C04D
:10134000611003C0F701268203C085E9F701868397
:10135000E8E16E9EA00111249601241B350B293172
:10136000310510F028E130E088E0820F8CAB4A0DA7
:101370005B1D8401B701CE010E943102182F81113B
:101380000BC062E070E080E090E00E94FD15539495
:10139000F2E0F51560F606C07A946394772011F0B8
:1013A000512CC5CFF70146828AA582FF12C0498120
:1013B0005A816B817C818FA598A90E94780B182F88
:1013C0008FA598A90E94251260E08FA598A90E9478
:1013D000360A8AA58B7F8AA7112349F0772009F462
:1013E00073CF0E9437166BA77CA78DA79EA710E02E
:1013F000812FDF91CF911F910F91FF90EF90DF90A0
:10140000CF90BF90AF909F908F907F906F905F90A4
:101410004F903F902F900895CF93DF93EC01862F4C
:10142000F894EB89FC892081442319F09989922B47
:1014300002C09A8992239083789490E59CBD91E0B4
:101440009DBDF894EF85F88920819E859223908335
:1014500078940E945307F894EF85F88990818D85E0
:10146000892B80837894DF91CF9108951F93CF9338
:10147000DF93EC01162F61E00E947011482F1123B9
:1014800011F0416001C04E7F61E0CE01DF91CF914C
:101490001F910C9415117F928F929F92AF92BF92E1
:1014A000CF92DF92EF92FF920F931F93CF93DF9330
:1014B000CDB7DEB728970FB6F894DEBF0FBECDBF0D
:1014C000FC019B012115310559F0822F8770863070
:1014D00008F0FAC0A3E036952795AA95E1F7F2CF78
:1014E00062AB73AB87A590A9DC012D913C912F3F96
:1014F000310509F4E9C0DC0112962D913C91139756
:101500002F3F310509F4E0C0E72EF62E8F0160E091
:101510000E94360AF801C7A4D0A86DE1C6010E9456
:101520007011482F44606DE1C6010E9415116CE1F5
:10153000C6010E947011482F4F636CE1C6010E94E2
:10154000151181E0D60118968C93F80182A993A910
:1015500066E070E00E94711A482F440F4B5FF0E183
:101560004F9FA0011124456064E0D8019F968D91A2
:101570009C91D0970E94151189E190E0A0E0B0E025
:10158000F80181839283A383B4838BE490E09683F4
:10159000858382A993A940E02FEF3FEFB90168232B
:1015A0007923672B39F073E0220F331F7A95E1F727
:1015B0004F5FF4CFF80141AB20953095E059FE4FD5
:1015C0003183208363E0369527956A95E1F7339759
:1015D000A90148235923518340832115310559F02E
:1015E00043E0969587954A95E1F753E03695279520
:1015F0005A95E1F7F2CFF801E159FE4F808386E07A
:10160000782E88248394912C7A94FFEF7F1609F426
:1016100054C0672D8F2D9E2D0E941F13D8019F96B9
:10162000CD90DC90D09729833A834B835C836D8384
:101630007E838F839887A72CB12C71100BC0F60185
:10164000468550E0BE016F5F7F4FC60109960E943C
:10165000DF1B03C0F1E07F1208C0F501E653FF4F26
:101660006491D6011E962C9105C0F501E653FF4FFB
:10167000649121E0AE014F5F5F4FC6010E943911B6
:10168000F501EC53FF4F6491F6014781C6010E94BA
:10169000151162E0C6010E947011F501E254FF4F7E
:1016A000E491940101C0220FEA95EAF7482F422BFA
:1016B00062E0C6010E941511A7CFD8019F968D91B7
:1016C0009C91D0970E94251228960FB6F894DEBF01
:1016D0000FBECDBFDF91CF911F910F91FF90EF9083
:1016E000DF90CF90BF90AF909F908F907F900895A4
:1016F0008F929F92AF92BF92CF92DF92EF92FF9222
:10170000CF93DF93EC014A015B010E9437166B0116
:101710007C0167E1CE010E94701184FD29C06FEF4A
:10172000CE010E94F61084FFF4CF40E167E0CE01C5
:101730000E94151160E0CE010E94E41161E0CE012B
:101740000E94E4110E943716DC01CB018C199D091F
:10175000AE09BF0988159905AA05BB05D0F260E05E
:10176000CE010E94E411CE010E94121180E005C05A
:1017700060E0CE010E94E41181E0DF91CF91FF9003
:10178000EF90DF90CF90BF90AF909F908F90089593
:101790002F923F924F925F926F927F928F929F9281
:1017A000AF92BF92CF92DF92EF92FF920F931F936F
:1017B000CF93DF93CDB7DEB761970FB6F894DEBF56
:1017C0000FBECDBF67E18091F0029091F1020E94BF
:1017D000701180FD03C080E090E06EC18091F00246
:1017E0009091F1020E94F011E091F202F091F30267
:1017F00082A5826082A76AE070E080E090E00E94AB
:10180000FD1564E279E08091F2029091F3020E946A
:101810004B0A84E299E09093EB028093EA020E94E3
:1018200037162B013C01C12CE12C90E4292E312CE0
:101830003C862B8680910001909101019C012F5FD5
:101840003F4F30930101209300019E878D8782ECEA
:101850008F878091F2029091F302FC0122A933A9B3
:101860003A872987EE2089F02E2D30E0215031096A
:10187000A901440F551F240F351F01E010E002C0DD
:10188000000F111F2A95E2F702C000E010E020E0EF
:1018900030E040E050E0BE01675F7F4F0E942309C7
:1018A0000E9437164B015C01F12C8091F20290915D
:1018B000F3020E945A07823C89F4FE013196EF0D33
:1018C000F11DEF0DF11DA091F202B091F3021796F8
:1018D0008D919C91189791838083F3940E94371681
:1018E000DC01CB0188199909AA09BB09C897A10590
:1018F000B10520F4F3E0FF15C0F633C0F11031C09C
:101900000E943716DC01CB0184199509A609B70995
:1019100081369A4EA105B10508F05DCF2C2D30E03F
:101920002F5F3F4F8E2D90E00196289FB001299F99
:10193000700D389F700D1124675E7F4F660F771F03
:10194000072E000C880B990B0E94FD1581E08E0D6F
:101950008370E82E81E08C0D6AE00E94651AC92E22
:1019600067CFD12C198ADF1408F03FC023EC2F87F2
:101970008091EC02888BFE013196ED0DF11DED0D8D
:10198000F11D008111811C870B8720E030E040E0D1
:1019900050E0BE01675F7F4F8091F2029091F302A9
:1019A0000E9423090E9437164B015C010E943716E2
:1019B000DC01CB0188199909AA09BB09813E91056F
:1019C000A105B10550F48091F2029091F3020E94BA
:1019D0005A07898B803851F7DF2C65E070E080E092
:1019E00090E00E94FD15D394BECF8989803809F01C
:1019F00087CFE091F202F091F302878590890097FA
:101A000009F47ECF36852091EC02321379CF909382
:101A1000EB028093EA028091F0029091F1020E9421
:101A2000F0116AE070E080E090E00E94FD156091A6
:101A3000EA027091EB028091F2029091F3020E940F
:101A40004B0A1C861B86E1E8EF8787E0F82E08E347
:101A500010E020E030E040E050E0BE01675F7F4FE3
:101A60008091F2029091F3020E942309811119C022
:101A7000FA94F1100FC064E279E08091F202909143
:101A8000F3020E944B0A84E299E09093EB02809368
:101A9000EA0236CF63E070E080E090E00E94FD153E
:101AA000D6CFE091F202F091F30282A58D7F82A75A
:101AB0008091EA029091EB0261960FB6F894DEBF36
:101AC0000FBECDBFDF91CF911F910F91FF90EF908F
:101AD000DF90CF90BF90AF909F908F907F906F904E
:101AE0005F904F903F902F9008958F929F92AF926A
:101AF000BF92DF92EF92FF920F931F93CF93DF93EA
:101B0000CDB7DEB72A970FB6F894DEBF0FBECDBFB4
:101B10008091F2029091F3020E945A07D82E809190
:101B2000EA029091EB02843229E0920709F4E2C0C4
:101B300033ECD31203C021E02093F4022091EC0295
:101B40002111D8C02D2D2D7F243C09F0B0C0E0918B
:101B5000F202F091F3027F01A7E0EA0EF11C278167
:101B60003085328721872785B4ECDB1228C040916D
:101B7000EF028091ED029091EE0230E0341789F08F
:101B80005C010396BC0163507109DB015C91521347
:101B900006C0D50111968D919C91129704C03F5FAC
:101BA000EDCF8FEF9FEF9A83898308E310E022E067
:101BB00030E0AE014F5F5F4FB701CF0175C030E03D
:101BC0003A8729872115310509F45EC0892BC1F4B4
:101BD0005091EF028091ED029091EE0240E04517A6
:101BE00009F44FC0FC010396DC0112976D917C91C2
:101BF0006217730719F4208130E048C04F5FEFCFC0
:101C00001C821B8280910001909101019C012F5F39
:101C10003F4F30930101209300019E838D8386EC1A
:101C20008F8308E310E022E030E0AE01475F5F4FB2
:101C3000BE016F5F7F4FCF010E942309882309F106
:101C40000E9437164B015C018091F2029091F302E1
:101C50000E945A07863C71F00E943716DC01CB01C6
:101C600088199909AA09BB09853F9140A105B105C9
:101C700058F307C0E091F202F091F3022785308912
:101C800005C02FEF3FEF02C020E030E03A83298308
:101C900008E310E022E030E0AE014F5F5F4FB70194
:101CA0008091F2029091F3020E94230923C035EC47
:101CB000D31220C0A091F202B091F3022091ED0264
:101CC0003091EE0280E09091EF02891798F4F901CB
:101CD00093E0899FE00DF11D1124618172811796B7
:101CE0004D915C9118976417750711F41282118257
:101CF0008F5FE9CF8D2D2A960FB6F894DEBF0FBE09
:101D0000CDBFDF91CF911F910F91FF90EF90DF90AA
:101D1000BF90AF909F908F9008950F931F93CF9394
:101D2000DF938C01C0E0D0E0F801EC0FFD1F64915F
:101D3000662371F0E0914D02F0914E020190F08126
:101D4000E02D8DE492E00995892B11F02196ECCFDE
:101D50006EE471E08DE492E00E946F108C0F9D1F85
:101D6000DF91CF911F910F910895833081F028F476
:101D7000813099F08230A1F008958730A9F0883041
:101D8000B9F08430D1F4809180008F7D03C08091C0
:101D900080008F7780938000089584B58F7702C08C
:101DA00084B58F7D84BD08958091B0008F7703C086
:101DB0008091B0008F7D8093B00008951F93CF93E2
:101DC000DF93282F30E0F901E655FF4F8491F901A8
:101DD000EA56FF4FD491F901EE57FF4FC491CC233F
:101DE000C9F0162F81110E94B50EEC2FF0E0EE0F16
:101DF000FF1FE858FF4FA591B4918FB7F8941111C8
:101E000005C09C91ED2FE095E92302C0EC91ED2BEC
:101E1000EC938FBFDF91CF911F910895CF92DF9206
:101E2000EF92FF920F931F93CF93DF936C017A0190
:101E30008B01C0E0D0E0CE15DF0589F0D8016D91AF
:101E40008D01D601ED91FC910190F081E02DC6014C
:101E50000995892B11F47E0102C02196ECCFC701B0
:101E6000DF91CF911F910F91FF90EF90DF90CF9076
:101E70000895FC01538D448D252F30E0842F90E090
:101E8000821B930B541710F0CF9608950197089575
:101E9000FC01918D828D981761F0828DDF01A80F72
:101EA000B11D5D968C91928D9F5F9F73928F90E094
:101EB00008958FEF9FEF0895FC01918D828D981703
:101EC00031F0828DE80FF11D858D90E008958FEF40
:101ED0009FEF0895FC01918D228D892F90E0805C09
:101EE0009F4F821B91098F73992708958DE492E08B
:101EF0000E946A0F21E0892B09F420E0822F0895C7
:101F0000FC01848DDF01A80FB11DA35ABF4F2C9196
:101F1000848D90E001968F739927848FA689B78965
:101F20002C93A089B1898C9180648C93938D848D3E
:101F3000981306C00288F389E02D80818F7D80830D
:101F40000895EF92FF920F931F93CF93DF93EC01CD
:101F500081E0888F9B8D8C8D981305C0E889F98965
:101F6000808185FD24C0F62E0B8D10E00F5F1F4F82
:101F70000F731127E02E8C8DE8120CC00FB607FCF2
:101F8000FACFE889F989808185FFF5CFCE010E94DB
:101F9000800FF1CF8B8DFE01E80FF11DE35AFF4F4B
:101FA000F0820B8FEA89FB898081806207C0EE890D
:101FB000FF896083E889F98980818064808381E07A
:101FC00090E0DF91CF911F910F91FF90EF900895D6
:101FD000CF93DF93EC01888D8823C9F0EA89FB89D0
:101FE000808185FD05C0A889B9898C9186FD0FC0C7
:101FF0000FB607FCF5CF808185FFF2CFA889B9899C
:102000008C9185FFEDCFCE010E94800FE7CFDF914D
:10201000CF91089580E090E0892B29F00E94760FFF
:1020200081110C9400000895CF93DF93DC01FB0134
:10203000EC01C359DE4F68817981229698818281B3
:1020400040815181823028F0BA0181E0838390E0A1
:1020500027C0ED01C059DE4F28813981EA01C22332
:10206000D323D2960D90BC91A02DCA17DB07C1F4E3
:10207000C9018095909563E0880F991F6A95E1F7F3
:1020800084239523892B51F083E0220F331F8A95F7
:10209000E1F72760BA016223732301C0BA0195E01A
:1020A00071836083928381E0DF91CF910895CF9314
:1020B000DF93EC019CB59F7D9CBD9CB5937F9CBD3F
:1020C0009CB59C7F9CBD9DB591609DBD8A810E9401
:1020D000DE0E8C899D89DF91CF910C94F4156115EA
:1020E000710579F0FB0101900020E9F73197AF010C
:1020F000461B570BDC01ED91FC910280F381E02D32
:10210000099480E090E008950F931F93CF93DF939D
:10211000EC010E946F108C016EE471E0CE010E9410
:102120006F10800F911FDF91CF911F910F91089534
:102130001F920F920FB60F9211242F933F934F933C
:102140005F936F937F938F939F93AF93BF93EF931F
:10215000FF938DE492E00E94800FFF91EF91BF9179
:10216000AF919F918F917F916F915F914F913F912F
:102170002F910F900FBE0F901F9018951F920F92E6
:102180000FB60F9211242F938F939F93EF93FF938A
:10219000E0915D02F0915E028081E0916302F09136
:1021A000640282FD12C09081809166028F5F8F73FE
:1021B00020916702821751F0E0916602F0E0E35B44
:1021C000FD4F958F8093660201C08081FF91EF9152
:1021D0009F918F912F910F900FBE0F901F90189588
:1021E00061E00C94571060E00C945710EF92FF924E
:1021F0001F93CF93DF931F92CDB7DEB77C01698326
:102200000E94F3106981862F0E945307182FC7017F
:102210000E94F010812F0F90DF91CF911F91FF90BE
:10222000EF90089561EE0C94F610EF92FF921F93D9
:10223000CF93DF9300D0CDB7DEB77C014A836983AB
:102240000E94F3106981862F8F7180620E9453076C
:10225000182F4A81842F0E945307C7010E94F01053
:10226000812F0F900F90DF91CF911F91FF90EF90F2
:102270000895CF92DF92EF92FF920F931F93CF9327
:10228000DF9300D01F92CDB7DEB77C01142F2A83D5
:102290005B8369830E94F3106981862F8F7180624E
:1022A0000E945307082FC12E5B81D52E2A81120F61
:1022B0001C1531F0F60181916F010E945307F8CF90
:1022C000C7010E94F010802F0F900F900F90DF91A8
:1022D000CF911F910F91FF90EF90DF90CF900895D5
:1022E000EF92FF921F93CF93DF931F92CDB7DEB78C
:1022F0007C0169830E94F3106981862F8F710E948F
:1023000053078FEF0E945307182FC7010E94F01048
:10231000812F0F90DF91CF911F91FF90EF90089543
:10232000EF92FF920F931F93CF938C017B0166E096
:102330000E947011C82FC77D82E0E816F10431F4C5
:10234000C0628BE990E0A0E0B0E00DC0EA94EF2815
:1023500029F085E590E0A0E0B0E005C0C86081E428
:1023600090E0A0E0B0E0F801808B918BA28BB38B62
:102370004C2F66E0C8010E94151166E0C8010E945A
:10238000701191E08C1390E0892FCF911F910F91E4
:10239000FF90EF900895CF93DF93EC0160E00E94EF
:1023A000701181FD0EC0482F426060E0CE010E9496
:1023B000151165E070E080E090E0DF91CF910C9422
:1023C000FD15DF91CF910895FC012081318182813B
:1023D00093812817390719F0822F0C94DE0E089587
:1023E000CF93DF93EC0160E00E94E4118889998922
:1023F0000E94F4156DE1CE010E94701181FF07C0AB
:10240000888999890E94F415CE010E94121160E01A
:10241000CE010E947011482F4E7F60E0CE010E94D5
:10242000151162E0CE010E947011EEEBF0E0E49134
:1024300041E050E001C0440FEA95EAF7482B62E022
:10244000CE01DF91CF910C941511CF93DF93EC0166
:102450000E94CB1160E0CE010E947011482F4160B4
:1024600060E0CE010E94151140E767E0CE010E94B6
:10247000151161E0CE010E94E4118985882349F09D
:102480002E85AE01475F5F4F6AE0CE010E94391191
:1024900014C062E0CE010E947011EEEBF0E0E49116
:1024A00021E030E001C0220FEA95EAF72095422FA3
:1024B000482362E0CE010E9415116DE1CE010E9419
:1024C000701181FF05C0CE01DF91CF910C941211E4
:1024D000DF91CF9108951F93CF93DF93EC01888113
:1024E00099812A813B818217930719F061E00E944C
:1024F000B8158A819B81288139812817390719F0FD
:1025000061E00E94B8151FB7F8948091AD04811165
:1025100027C0ECE8F0E08491E0EAF0E09491E82F45
:10252000F0E0EE0FFF1FE250FD4FA591B491EC914A
:10253000E92321F461E08AE00E94DE0E61E08AE096
:102540000E94B8158CB580618CBD8CB580648CBD43
:1025500061E08DE00E94B81561E08BE00E94B81543
:102560008091AD048F5F8093AD041FBF60E0CE010A
:102570000E94E41161E0CE010E94571065E070E016
:1025800080E090E00E94FD154CE060E0CE010E94EA
:1025900015114FE564E0CE010E94151162E070E074
:1025A000CE010E949011882311F081E08E8366E0B5
:1025B000CE010E947011182F60E070E0CE010E94E1
:1025C0009011CE010E94F31080E50E94530783E72B
:1025D0000E945307CE010E94F01040E06DE1CE0151
:1025E0000E94151140E06CE1CE010E941511188681
:1025F00040E767E0CE010E9415114CE465E0CE0192
:102600000E94151162EECE010E94F610CE010E94CA
:102610001211CE010E94CB1160E0CE010E94701118
:10262000482F4E7F60E0CE010E941511115081E0CD
:102630001E3F08F080E0DF91CF911F910895CF9366
:10264000DF93CDB7DEB728970FB6F894DEBF0FBE85
:10265000CDBFAC019CEC99839A839B839C839D8323
:102660001E821F8218869A01E1E021153105C9F00A
:10267000611103C04115510569F4D901A770BB2749
:10268000A95BBE4F8C91A1E0B0E0AC0FBD1FAE0FB7
:10269000B11D8C9383E0369527958A95E1F7EF5F1E
:1026A000E4CF611102C0452B39F4E62FF0E0E95B7D
:1026B000FE4F8081898305C0F0E0EA5BFE4F808198
:1026C0008A8329813A814B815C816D817E818F81F2
:1026D000988528960FB6F894DEBF0FBECDBFDF9168
:1026E000CF9108956F927F928F929F92AF92BF92F7
:1026F000CF92DF92EF92FF920F931F93CF93DF93CE
:10270000CDB7DEB728970FB6F894DEBF0FBECDBFAA
:102710008C01CB01D22E642F0E941F1339014A0174
:102720005B017C01F80182A582FD04C087A590A908
:102730000E94F011F80187A590A9DD2011F060E05A
:1027400001C061E00E94360AF801C7A4D0A86982DE
:102750007A828B829C82AD82BE82EF82F886F601FD
:102760002685AE014F5F5F4F6AE0C6010E943911B6
:10277000F6012685AE014F5F5F4F60E1C6010E9402
:102780003911F601478161E1C6010E941511F80176
:10279000B4A8C7A4D0A86FEFC6010E94F61080FFAE
:1027A0000DC06FEFC6010E94F61084FFF4CF40E128
:1027B00067E0C6010E941511F12C30C0F601F780C8
:1027C000EF2CBF1408F4EB2CF6018085811102C0B8
:1027D000FE1801C0F12CC6010E94F31080EA0E948D
:1027E00053075801F7E0AF0EB11CEA0CEA1431F0C0
:1027F000F50181915F010E945307F8CFFF2029F076
:1028000080E00E945307FA94F9CFC6010E94F010AD
:1028100061E0C6010E94E411FF24F394F80182A54F
:1028200082FD0FC0418152816381748187A590A987
:102830000E94780BF82E60E0F80187A590A90E940D
:10284000360A8F2D28960FB6F894DEBF0FBECDBF87
:10285000DF91CF911F910F91FF90EF90DF90CF907C
:10286000BF90AF909F908F907F906F900895CF9280
:10287000DF92EF92FF920F931F93CF93DF9300D0DD
:1028800000D0CDB7DEB7FC0195859B012115310540
:1028900061F0822F8770863030F483E0369527957B
:1028A0008A95E1F7F3CF80E097C09154EE24E3944A
:1028B0009F3708F0E12CF42E6B018F0119821A82E8
:1028C0001B821C827A8369834B83BE016F5F7F4FBB
:1028D000CF010E94141069817A812C814B81C8013B
:1028E0000E947213F1E0FF1227C0811102C0F12C87
:1028F0006AC089819A818C159D0501F5EE20F1F061
:1029000081ECF801858787819085928781879A83FA
:102910008983FB821C82BE016F5F7F4FC8010E94CA
:10292000141088E0F80184AB69817A812C814B8195
:10293000C8010E94721302C08823C9F289819A815A
:102940008C159D0519F4FF24F3943DC0FF2019F068
:10295000F3E0FF12F8CFEE20B1F3F80182A582FF79
:1029600011C0418152816381748187A590A90E9421
:10297000780BF80182A58B7F82A760E087A590A9DC
:102980000E94360AF80187A590A90E9425120E948C
:1029900037166B017C01C8010E945A07813C99F2ED
:1029A0000E943716AB01BC014C195D096E097F0905
:1029B000F80185819681A0E0B0E084179507A6070D
:1029C000B70748F794CFF80182A582FD04C087A518
:1029D00090A90E9425128F2D0F900F900F900F90AD
:1029E000DF91CF911F910F91FF90EF90DF90CF90EB
:1029F000089508954F925F926F927F92EF92FF92A7
:102A00000F931F93CF93DF93CDB7DEB7A1970FB688
:102A1000F894DEBF0FBECDBF7C01FA01CB0119A235
:102A2000223008F42AE08E010F5D1F4F422E512CF8
:102A3000612C712CBF01A30192010E94851AF9013A
:102A4000CA01015011096A3014F4605D01C0695C6B
:102A5000D8016C93232B242B252B61F7B801C701D8
:102A60000E946F10A1960FB6F894DEBF0FBECDBFC7
:102A7000DF91CF911F910F91FF90EF907F906F901A
:102A80005F904F9008950E94DA1B1F920F920FB62D
:102A90000F9211242F933F934F935F936F937F93E4
:102AA0008F939F93AF93BF93EF93FF93E0910401B4
:102AB000F09105010995FF91EF91BF91AF919F9121
:102AC0008F917F916F915F914F913F912F910F90D7
:102AD0000FBE0F901F9018951F920F920FB60F9276
:102AE00011242F933F934F935F936F937F938F9313
:102AF0009F93AF93BF93EF93FF93E0910201F09107
:102B000003010995FF91EF91BF91AF919F918F9133
:102B10007F916F915F914F913F912F910F900FBED9
:102B20000F901F9018953FB7F8948091B80490913A
:102B3000B904A091BA04B091BB0426B5A89B05C006
:102B40002F3F19F00196A11DB11D3FBFBA2FA92F2C
:102B5000982F8827820F911DA11DB11DBC01CD01A9
:102B600043E0660F771F881F991F4A95D1F7089594
:102B7000CF93DF9390E0FC01EA56FF4F2491FC01D4
:102B8000EE57FF4F8491882361F190E0880F991FE1
:102B9000FC01E250FD4FC591D491FC01E858FF4F74
:102BA000A591B491611109C09FB7F89488812095CF
:102BB00082238883EC912E230BC0623061F49FB78F
:102BC000F8943881822F809583238883EC912E2B73
:102BD0002C939FBF06C08FB7F894E8812E2B2883D3
:102BE0008FBFDF91CF9108958330910528F0880F32
:102BF000991F04970197F1F708958F929F92AF92D2
:102C0000BF92CF92DF92EF92FF926B017C010E9404
:102C100093154B015C01C114D104E104F104F1F0FE
:102C20000E949315DC01CB0188199909AA09BB09F7
:102C3000883E9340A105B10570F321E0C21AD10886
:102C4000E108F10888EE880E83E0981EA11CB11CF3
:102C5000C114D104E104F10419F7DDCFFF90EF9026
:102C6000DF90CF90BF90AF909F908F9008952FB737
:102C7000F8946091B4047091B5048091B604909179
:102C8000B7042FBF08951F920F920FB60F92112411
:102C90002F933F938F939F93AF93BF938091B404EF
:102CA0009091B504A091B604B091B7043091B304EB
:102CB00026E0230F2D3720F40296A11DB11D05C07B
:102CC00029E8230F0396A11DB11D2093B30480931F
:102CD000B4049093B504A093B604B093B704809164
:102CE000B8049091B904A091BA04B091BB040196C4
:102CF000A11DB11D8093B8049093B904A093BA04A8
:102D0000B093BB04BF91AF919F918F913F912F9151
:102D10000F900FBE0F901F901895CF93DF93EDE4A7
:102D2000F2E01382128288EE93E0A0E0B0E08483A8
:102D30009583A683B78329E131E03183208325EC95
:102D400030E03587248724EC30E03787268720EC75
:102D500030E0318B208B21EC30E0338B228B22EC66
:102D600030E0358B248B26EC30E0378B268B118EB0
:102D7000128E138E148EE1EAF4E0138212828483A1
:102D80009583A683B7838BE291E091838083ECE8FF
:102D9000F4E01382128281E08187148613868DE32A
:102DA00091E091838083E4E7F4E08AE090E091830E
:102DB000808385E090E093838283168280E287831C
:102DC000108685E0868785E090E0A0E0B0E0848B07
:102DD000958BA68BB78B1186A2E0B3E0D096FC93BF
:102DE000EE939F9787E393E09093D2038093D10370
:102DF0008FED93E09093DE038093DD0383ED93E00A
:102E000098969C938E9397979B961D921D921D92D8
:102E10001C929E979A961C929A9799961C929997B3
:102E20001C92CAEED2E0FF83EE83B987A887DF91B8
:102E3000CF910895CF93DF93CDB7DEB728970FB624
:102E4000F894DEBF0FBECDBF789484B5826084BD98
:102E500084B5816084BD85B5826085BD85B581609E
:102E600085BD80916E00816080936E00109281001C
:102E700080918100826080938100809181008160D7
:102E80008093810080918000816080938000809198
:102E9000B10084608093B1008091B0008160809324
:102EA000B00080917A00846080937A0080917A00EB
:102EB000826080937A0080917A008E7F80937A007E
:102EC00080917A00806880937A001092C1001092FD
:102ED0007A0060E083E00E94B81589E292E0909366
:102EE00005018093040180916900837F8460809351
:102EF0006900E99A84E794E00E946B1266E084E737
:102F000094E00E947011887F482F456066E084E756
:102F100094E00E94151160E070E084E794E00E9464
:102F2000901161E088E00E94B81560E088E00E949E
:102F3000DE0E6AE070E080E090E00E94FD1561E046
:102F400088E00E94DE0E6AE070E080E090E00E947F
:102F5000FD1567E089E994E00E94350766E08DE998
:102F600094E00E9435072A9A229A239A259A109271
:102F7000900410929104EEEEF2E085919491E82E87
:102F8000E0EFF2E0F490E1EFF2E0E491E0939204FC
:102F9000E2EFF2E0E491E0939304E3EFF2E0E491F6
:102FA000E09394048C01802F8E198F1548F4F8015A
:102FB00064918CE894E00E94CE030F5F1F4FF3CF23
:102FC000109296048CE894E00E94EB0583E091E077
:102FD00090939804809397048CE894E00E94EB050A
:102FE00082E080939504E0915D02F0915E0280831F
:102FF000E0915902F0915A021082E0915B02F09147
:103000005C0288E0808310926502E0916102F09199
:10301000620286E08083E0915F02F091600280812D
:1030200080618083E0915F02F0916002808188601E
:103030008083E0915F02F0916002808180688083EC
:10304000E0915F02F091600280818F7D8083FF2498
:10305000F394F092EC0261E571E08CE894E00E9458
:10306000841088EF90E00E948D0E8091F002909184
:10307000F1020E946B1281E68093FD0241E665E059
:103080008091F0029091F1020E94151160E070E0D1
:103090008091F0029091F1020E9490110091F20251
:1030A0001091F302F801F1A68091EC02882349F017
:1030B00084E299E09093EB028093EA020E94C80BAD
:1030C00013C086E090E00E94AD1A9093EE028093C8
:1030D000ED021092EF021092EB021092EA0260E011
:1030E00070E0C8010E944B0A8CE894E00E94EB0556
:1030F0006CE571E08CE894E00E94841065E671E074
:103100008CE894E00E94841089EE90E00E948D0E7D
:1031100032E8332E46EFA42EBB24BA945AE9852E0A
:10312000912C0E94750D8091AE04882309F434C15E
:103130008CE894E00E94EB056BE671E08CE894E08B
:103140000E948410EDEAF0E08491E9E9F0E0049156
:10315000E5E8F0E014911123A1F081110E94B50E71
:10316000E12FF0E0EE0FFF1FEC50FD4FA591B49161
:103170008C91082331E020E009F430E0832F922F76
:1031800002C080E090E09093B2048093B10420915B
:10319000AF043091B0048217930709F475C090937F
:1031A000B0048093AF04019711F481E301C080E380
:1031B00080930C018CE390E09093070180930601CB
:1031C00068E071E08DE492E00E9484109DE4792E25
:1031D0008091EA029091EB028432994051F10E9471
:1031E00037168091EA029091EB028432994009F1FE
:1031F0001C821B8280910001909101019C012F5F34
:103200003F4F30930101209300019E838D837F8285
:1032100008E310E027E030E048E051E0BE016F5FD6
:103220007F4F8091F2029091F3020E942309811155
:103230000FC084E0682E6A94662009F427C180914B
:10324000EA029091EB028432994009F0B3C01EC1AA
:103250008CE894E00E94EB0568E971E08CE894E06A
:103260000E94841068E071E08CE894E00E94841071
:1032700068E971E08DE492E00E946F1068E071E00F
:103280008DE492E00E9484101092AE0464EF71E02D
:1032900080E090E00E94FD158CE894E00E94EB0530
:1032A0006CE571E08CE894E00E94841065E671E0C2
:1032B0008CE894E00E9484106FC000913F0310914D
:1032C0004003A8010930110510F048E050E061E426
:1032D00073E0CE0101960E94DF1BC501801B910B9C
:1032E000680E791E7092D2036092D103A401401B34
:1032F000510BB8016F5B7C4F87E393E00E94E81BA2
:103300008CE894E00E94EB0562EA71E08CE894E0BE
:103310000E946F10CD80DE80EF80F8842AE0B70134
:10332000A6018CE894E00E94FA1464EB71E08CE84A
:1033300094E00E946F1049805A806B807C802AE064
:10334000B301A2018CE894E00E94FA146EE471E0EB
:103350008CE894E00E946F1062EA71E08DE492E0E4
:103360000E946F102AE0B701A6018DE492E00E944E
:10337000FA1464EB71E08DE492E00E946F102AE091
:10338000B301A2018DE492E00E94FA146EE471E0B0
:103390008DE492E00E946F106090D1037090D20390
:1033A00027E3621623E0720611F008F086CF0E9430
:1033B0000A10B7CE0E94750D67E18091F0029091DE
:1033C000F1020E94701181FD2CC08091F202909157
:1033D000F302FC0122A520FD24C01C821B82209147
:1033E000000130910101A9014F5F5F4F509301012E
:1033F000409300013E832D833F8208E310E020E0EC
:1034000030E040E050E0BE016F5F7F4F0E94230933
:10341000811107C067E670E080E090E00E94FD1532
:103420000ACF8CE894E00E94EB0569EB71E08CE830
:1034300094E00E94841069EB71E08DE492E00E94B8
:10344000841064EF71E080E090E00E94FD158091AF
:10345000060190910701019790930701809306015F
:10346000892B09F0B5CE8CE894E00E94EB0566E765
:1034700071E08CE894E00E9484106EE871E08CE8C2
:1034800094E00E94841062E871E0FACE8091F0022C
:103490009091F1020E94F0118CE894E00E94EB05FB
:1034A00063EC71E08CE894E00E94841065ED71E0BB
:1034B0008CE894E00E9484106CEC71E08DE492E062
:1034C0000E9484100E94C80BBCCF991B79E004C0F5
:1034D000991F961708F0961B881F7A95C9F7809553
:1034E0000895AA1BBB1B51E107C0AA1FBB1FA6174B
:1034F000B70710F0A61BB70B881F991F5A95A9F79D
:1035000080959095BC01CD010895A1E21A2EAA1BC9
:10351000BB1BFD010DC0AA1FBB1FEE1FFF1FA21783
:10352000B307E407F50720F0A21BB30BE40BF50B80
:10353000661F771F881F991F1A9469F76095709509
:10354000809590959B01AC01BD01CF010895EE0FD0
:10355000FF1F0590F491E02D0994CF93DF93823003
:10356000910510F482E090E0E091BE04F091BF0478
:1035700020E030E0C0E0D0E0309711F1408151818F
:1035800048175907C0F04817590761F482819381A1
:10359000209719F09B838A832BC09093BF0480935C
:1035A000BE0426C02115310519F04217530718F43F
:1035B0009A01BE01DF01EF010280F381E02DDCCF33
:1035C0002115310509F1281B390B2430310590F400
:1035D00012968D919C9113976115710521F0FB0155
:1035E0009383828304C09093BF048093BE04FD0143
:1035F000329644C0FD01E20FF31F81939193225054
:1036000031092D933C933AC02091BC043091BD0404
:10361000232B41F420911101309112013093BD040C
:103620002093BC0420910F01309110012115310528
:1036300041F42DB73EB74091130150911401241B62
:10364000350BE091BC04F091BD04E217F307A0F440
:103650002E1B3F0B2817390778F0AC014E5F5F4FE8
:103660002417350748F04E0F5F1F5093BD04409359
:10367000BC048193919302C0E0E0F0E0CF01DF91C0
:10368000CF9108950F931F93CF93DF93009709F481
:103690008CC0FC013297138212820091BE041091FB
:1036A000BF040115110581F420813181820F931F20
:1036B0002091BC043091BD042817390779F5F093A7
:1036C000BD04E093BC0471C0D80140E050E0AE17E7
:1036D000BF0750F412962D913C911397AD0121151F
:1036E000310509F1D901F3CF9D01DA01338322833A
:1036F00060817181860F971F8217930769F4EC012F
:1037000028813981260F371F2E5F3F4F3183208359
:103710008A819B8193838283452B29F4F093BF0494
:10372000E093BE0442C01396FC93EE931297ED0112
:10373000499159919E01240F351FE217F30771F447
:1037400080819181840F951F029611969C938E9390
:103750008281938113969C938E931297E0E0F0E020
:10376000D80112968D919C911397009719F0F8014A
:103770008C01F6CF8D919C9198012E5F3F4F820F67
:10378000931F2091BC043091BD042817390769F4B8
:10379000309729F41092BF041092BE0402C0138225
:1037A00012821093BD040093BC04DF91CF911F914E
:1037B0000F91089581E090E0F8940C94FA1BFB01BE
:1037C000DC0102C001900D9241505040D8F708959D
:1037D0006817790768F4FB01DC01E40FF51FA40FFB
:1037E000B51F02C002900E9241505040D8F7089584
:0837F0000C94DF1BF894FFCFDD
:1037F8000100F914F9143C003030312D300A000072
:1038080000C004800000000000A10F0E0F390FE86F
:103818000F6A0F480F5C0F00000000180204022E08
:1038280002C401CB01C801C501000000004B040E11
:103838000F2E022D020C0AC33C33CE3EE3EC0D0AD8
:10384800005374617274696E672E2E005374616E32
:1038580064696E670062792E2E2E00496E74657257
:103868007275707421004D61782072657472696593
:1038780073004D617820726574726965732065788C
:10388800636565646564210053656E64204F4B3A37
:1038980020005265636569766564207061636B65B5
:1038A80074202300206174200053656E64206661D3
:1038B800696C0052656E6577696E670052656E6562
:0E38C80077696E672041646472657373000057
:00000001FF
