:100000000C947E010C94F0150C94C9150C94A60167
:100010000C94A6010C94A6010C94A6010C94A601C4
:100020000C94A6010C94A6010C94A6010C94A601B4
:100030000C94A6010C94A6010C94A6010C94A601A4
:100040000C947F150C94A6010C940F100C94E90FDE
:100050000C94A6010C94A6010C94A6010C94A60184
:100060000C94C7050C94A60100030C0F30333C3FE1
:10007000C0C3CCCFF0F3FCFF000000002500280037
:100080002B00040404040404040402020202020219
:10009000030303030303010204081020408001024C
:1000A00004081020010204081020000000080002CB
:1000B0000100000304070000000000000000000130
:1000C000020304051112131415160A0B0C0D0E0F62
:1000D000AED580A83FD300408D142002A1C8DA120B
:1000E000817FD9F1DB40A4A6AF57616974696E675F
:1000F0002E2E005374617274696E672E2E000000FC
:1001000005072061000000000000005F00000007FC
:10011000000700147F147F14242A7F2A1223130857
:10012000646236495522500005030000001C22413C
:10013000000041221C00082A1C2A0808083E080862
:100140000050300000080808080800606000002027
:10015000100804023E5149453E00427F4000426182
:100160005149462141454B311814127F102745450E
:1001700045393C4A49493001710905033649494925
:1001800036064949291E0036360000005636000062
:1001900000081422411414141414412214080002FB
:1001A00001510906324979413E7E1111117E7F4984
:1001B0004949363E414141227F4141221C7F494904
:1001C00049417F090901013E414151327F08080838
:1001D0007F00417F41002040413F017F08142241C0
:1001E0007F404040407F0204027F7F0408107F3E32
:1001F0004141413E7F090909063E4151215E7F0987
:10020000192946464949493101017F01013F4040D2
:10021000403F1F2040201F7F2018207F63140814B8
:10022000630304780403615149454300007F414161
:10023000020408102041417F000004020102044032
:1002400040404040000102040020545454787F484C
:100250004444383844444420384444487F38545453
:100260005418087E090102081454543C7F08040401
:100270007800447D40002040443D00007F10284429
:1002800000417F40007C041804787C08040478381E
:10029000444444387C14141408081414187C7C0852
:1002A0000404084854545420043F4440203C404037
:1002B000207C1C2040201C3C4030403C442810281E
:1002C000440C5050503C4464544C440008364100A7
:1002D00000007F0000004136080008082A1C0808BA
:1002E0001C2A08080006090906D0001980400000F1
:1002F000000000240027002A0000171611241FBE4A
:10030000CFEFD8E0DEBFCDBF24E0AAEAB1E001C064
:100310001D92A838B207E1F711E0A0E0B1E0E4EFE8
:10032000F5E302C005900D92AA3AB107D9F711E0A2
:10033000CEE7D1E004C02197FE010E94A519CD3778
:10034000D107C9F70E94A4160C94F81A0C94000067
:10035000CF93DF93EC019C818E81981758F4E8814C
:10036000F9810084F185E02D42E0CE0109958C8170
:100370008F5F8C83DF91CF91089508958FEF9FEF6A
:1003800008958FEF9FEF08958091180290E0919566
:1003900081959109089585ED8093BC008091BC0002
:1003A00084FDFCCF1092F20108954091CC01262FDC
:1003B00030E0240F311D21323105DCF42091F201AF
:1003C0002430C9F4FC0180E090E0861758F43091A5
:1003D000CC012191DC01A655BE4FA30FB11D2C937A
:1003E0000196F3CF8091CC01680F6093CC0180E03F
:1003F000089581E0089582E00895CF93DF9300D0BF
:10040000CDB7DEB7CB01642F49835A830E94D50153
:100410004981842F5A81952F0F900F90DF91CF91B2
:100420000895CF93DF931F92CDB7DEB7698361E064
:10043000CE0101960E94D50181E090E00F90DF91FE
:10044000CF91089581E080937A040895089580E023
:1004500090E008958F929F92AF92BF92CF92DF92D9
:10046000EF92FF920F931F93CF93DF93EC017B01E9
:10047000CCA8D12C860108501109DB0116969C915D
:100480008CE6890F833020F0983C09F0CFC003C080
:10049000943909F4E4C08BE6890F823018F0983C57
:1004A00009F08EC06E0159EDC50ED11CD6012D91FB
:1004B0003C91A801420F531F4139510520F0C85209
:1004C000DF4F1882B1C05E01B8EDAB0EB11CF50173
:1004D0008081882309F415C1963929F0D701179630
:1004E0009C919813A1C0FE01EB52FF4F40815181B6
:1004F000F701848195814817590709F095C04E018D
:10050000FBED8F0E911CD4018D919C91A801BE0131
:10051000615F7F4F820F931F0E94DD1AF601808179
:100520009181080F191F11830083D70116968C91B2
:10053000863929F0F50180818150808373C0D5010F
:100540001C92F7018781FE01E952FF4F80838338B7
:1005500009F483C07E01FFECEF0EF11CF701A081CE
:10056000B181CE018A1B9B0B8B539F4F8017910744
:10057000F8F032968AE001900D928A95E1F7D70162
:100580008D919C91F40160817181D6014D915C91B6
:100590000A960E94DD1AF601808191810A96D701A0
:1005A0002D913C911197820F931F8D939C933AC08C
:1005B0008FA598A90E9441118AA581608AA734C09D
:1005C0007E01BFECEB0EF11CF701A081B181CE01E1
:1005D000C5969D01281B390BC901800F911F8B39CE
:1005E000910510F5E85CF10988E001900D928A957B
:1005F000E1F7D701ED91FC911197118700878D915B
:100600009C91BE01615F7F4FA8010A960E94DD1A8E
:10061000B2E0CB0ED11CF70180819181C80ED91EAA
:10062000D182C08281E06DC080E06BC0933841F61A
:10063000DE01AF52BF4FFE01379688E001900D9268
:100640008A95E1F7FE01E552FF4FCE010F969183A7
:100650008083C752DF4F1983088382E052C0F701BD
:100660008781873008F02BCFFE01EB52FF4F40818E
:100670005181D70114962D913C91159734976F01B4
:100680004217530739F4408151812D913C91421713
:10069000530741F2F8E18F9FC0011124FE01E1539D
:1006A000FF4F20813181AE01421B530B9A012B5326
:1006B0003F4F281739073CF48AA581608AA78FA588
:1006C00098A90E944111FE01379688E0D601019059
:1006D0000D928A95E1F7FE01E552FF4FBE01615F81
:1006E0007F4FA801808191810E94DD1AFE01E752AF
:1006F000FF4F11830083C852DF4F88818150888368
:1007000091CFDF91CF911F910F91FF90EF90DF90EC
:10071000CF90BF90AF909F908F900895DC01ED91A6
:10072000FC910084F185E02D40E009940F931F9324
:10073000CF938C01FC0164839085C62FC90F6C2F69
:100740006F70C8010E948E036C2F62956F7060619C
:10075000C801CF911F910F910C948E030F931F939B
:10076000CF93DF931F92CDB7DEB78C01FC0186815A
:10077000681728F4C80149830E9496034981F8014B
:100780008781869586958695481758F44583642F0A
:10079000606BC8010F90DF91CF911F910F910C9466
:1007A0008E030F90DF91CF911F910F910895CF92FB
:1007B000DF92EF92FF920F931F93CF93DF93EC01A1
:1007C000F62EC42ED22E8F81869586958695081793
:1007D00010F00FEF080F1D2D011780F0412F6F2D26
:1007E000CE010E94AE03EF2CCE1430F060E0CE01BB
:1007F0000E94A801E394F8CF1F5FEECF4D2D6F2D1F
:10080000CE01DF91CF911F910F91FF90EF90DF907C
:10081000CF900C94AE032F923F924F925F926F92C3
:100820007F928F929F92AF92BF92CF92DF92EF9280
:10083000FF920F931F93CF93DF93CDB7DEB7279728
:100840000FB6F894DEBF0FBECDBFDC011B960D9135
:100850001C911C970115110509F462C19F838E83B9
:10086000F801B49131964491319654903196A49107
:10087000EA2EF12CF7E0EF0EF11C23E0F594E7945B
:100880002A95E1F7EB82F801349674913196E49160
:10089000671758F0862F90E02E2F30E0F901E70F10
:1008A000F11D8E179F070CF473C06D3069F4AE8193
:1008B000BF8116968C91882309F467C060E08E8111
:1008C0009F810E94960361C06A3009F029C1EE81C0
:1008D000FF8181856581D62E8E9DD00C1124878164
:1008E000869586958695D81630F08285882319F0EE
:1008F00082E08287D12C4D2D60E08E819F810E9405
:10090000AE03AE81BF811A968C911A97823008F49B
:100910003CC015962C9115971B96ED91FC911C9758
:10092000309741F03396E49119960C91E09FE02DB9
:10093000112401C0E0E08FEF820F0E2F10E0095F5D
:100940001F4F93E0159507959A95E1F7080FEE81F3
:10095000FF81468141506481CF010E94D703AE815F
:10096000BF8119968C9119976D2D8E9D600D112464
:10097000660F660F660F17968C91861708F460E075
:1009800060648E819F810E948E0381E090E0CAC0E6
:1009900050E05B2BC8010696671BEE81FF81F18555
:1009A000F9834230510588F4452B09F019825E9C89
:1009B00090015F9C300D1124629F8001639F100D98
:1009C0001124080F191F412C24C0EA2FE77021F0D1
:1009D00048E0442E4E1A01C0412CA82FFC0140E0F3
:1009E00050E07E2F7A1B761728F47491470F511D23
:1009F0003196F7CFFC01E60FF11D54904E9D80011A
:100A00004F9D100D5E9D100D1124020F131F080F36
:100A1000191FAE81BF811496BC91BC83EE81FF810A
:100A20003580652C712CCC24C394D12C812C912C35
:100A30007FEF7C0D7A838B81781708F05FC0212CC3
:100A4000AE81BF8119968C91281608F051C07A8129
:100A5000711102C0222051F0AE81BF8115964C91D8
:100A600015974F5F6C81CD010E94AE03A12CB12C74
:100A7000A51488F5F501E80DF91DE00FF11F24918B
:100A8000442061F0CE14DF0449F4E22FF0E0042C9E
:100A900002C0F595E7950A94E2F72E2FEE81FF81CB
:100AA0008185823079F4E22F2110E295EF70F0E039
:100AB000E859FF4F2491622F8E819F812D830E94E0
:100AC000A8012D81622F8E819F810E94A801FFEFD6
:100AD000AF1ABF0ACDCFB12C7981B71639F060E0DB
:100AE0008E819F810E94A801B394F6CF2394A8CF52
:100AF000860C971CBFEFCB1ADB0A9ACFAE81BF8161
:100B000017968C911797869586958695381608F0D6
:100B10003CCF15963C921597632D606BCD0133CF7A
:100B200080E090E027960FB6F894DEBF0FBECDBFF1
:100B3000DF91CF911F910F91FF90EF90DF90CF90B9
:100B4000BF90AF909F908F907F906F905F904F90ED
:100B50003F902F9008950F93CF93DF93EC010F8177
:100B600006950695069501504E81415020E060E0C3
:100B70000E94D70381E09A85911101C080E08A87A5
:100B800060E4CE01DF91CF910F910C948E031F9200
:100B90000F920FB60F9211242F933F934F935F93B1
:100BA0006F937F938F939F93AF93BF93EF93FF9335
:100BB0008091B900887F803609F49CC068F588323E
:100BC00009F45BC090F4803109F454C038F48823F0
:100BD00009F4F6C0883009F44DC0F6C0883109F434
:100BE0004CC0803209F45DC0EFC0803409F468C0A5
:100BF00048F4803309F455C0883309F0E5C0809388
:100C0000F101D8C0803509F44FC0883509F45DC0C2
:100C1000883409F0D9C0D6C0883909F4C7C0A8F40F
:100C2000883709F467C038F4883609F463C0803720
:100C300009F460C0C9C0883809F4B8C0803909F423
:100C40005FC0803809F0C0C05BC0803B09F486C03B
:100C500038F4803A09F466C0883A09F47FC0B4C019
:100C6000803C09F4A7C0883C09F4A4C0883B09F47F
:100C70008AC0AAC08091170210C09091160280917C
:100C80001502981770F5E091160281E08E0F80939F
:100C90001602F0E0EB50FE4F80818093BB0085ECA4
:100CA00086C08093F1018EC0E091160281E08E0F24
:100CB000809316028091BB00F0E0EB50FE4F8083E2
:100CC00090911602809115026EC0E091160281E0AB
:100CD0008E0F809316028091BB00F0E0EB50FE4F28
:100CE00080838091F40181116DC081E08093F301D4
:100CF00084EA61C083E08093F2011092F001CFCFCB
:100D00008091F001803208F051C0E091F00181E063
:100D10008E0F8093F0018091BB00F0E0E053FE4F16
:100D20008083BDCF85EC8093BC001092F20180914E
:100D3000F001803230F4E091F001F0E0E053FE4F3A
:100D400010826091F00170E0E091CE01F091CF014E
:100D500080ED91E009951092F00136C084E0809317
:100D6000F2011092CD011092CC01E091CA01F091F4
:100D7000CB0109958091CC01811105C081E0809360
:100D8000CC011092AA01E091CD0181E08E0F8093F9
:100D9000CD01F0E0E655FE4F80818093BB0090913D
:100DA000CD018091CC01981708F479CF85E8809324
:100DB000BC000AC085EC8093BC001092F20104C014
:100DC0001092F1010E94CB01FF91EF91BF91AF9181
:100DD0009F918F917F916F915F914F913F912F9153
:100DE0000F900FBE0F901F901895DC01862F262FB5
:100DF00030E0F901EE57FF4FE491F0E0EE0FFF1FF6
:100E0000E858FF4F4591549113965C934E93129777
:100E1000F901EA56FF4FE491EC93E0951196EC93BB
:100E200061E00C94F4148EBD00000DB407FEFDCFFC
:100E30008EB508953F924F925F926F927F928F92FC
:100E40009F92AF92BF92CF92DF92EF92FF920F9359
:100E50001F93CF93DF93EC019AA5892F827091FDA8
:100E600017C0FE01E153FF4FAE014B5C5F4F90FD99
:100E700007C020813181241B350B2937310544F00F
:100E8000208131814217530708F429C19E7F9AA718
:100E90008E01095F1F4F502EEE24E394F12C6E015A
:100EA00081E9C81A8EEFD80A74E2A72E79E0B72E2E
:100EB0008FA498A8F401808191818F3F910511F44E
:100EC00080E00DC1F401828193818F3F9105C1F3D0
:100ED00067E1C4010E94C110982F9170792E80FDA6
:100EE000EFCF6FEFC4010E9447108FA498A8C401F0
:100EF0000E94441080E60E9413078FEF0E941307A0
:100F0000682EC4010E944110F0E2F61508F056C0A8
:100F100062EEC4010E94471062E070E080E090E061
:100F20000E9439157CAA97E0971538F06AE070E0C6
:100F300080E090E00E943915BBCF8FA498A8F401FF
:100F40008781472C871508F4482EF401908591116C
:100F500003C0382E341801C0312CC4010E94441043
:100F600081E60E9413073801450C461439F08FEFD3
:100F70000E941307F30181933F01F7CF732C772071
:100F800029F08FEF0E9413077A94F9CFC4010E94D1
:100F9000411040E767E0C4010E94661069857A85C8
:100FA000CB01009769F0282F2770263008F080CFFA
:100FB00053E0969587955A95E1F7F3CF762CB2CF0B
:100FC0008D852AA93BA962177307E1F5823809F4D8
:100FD0006FCF803881F464327940D1F0BA86A98627
:100FE00042E064E279E0CE010E9488136AE070E09A
:100FF00080E090E040C0833C59F46115710541F0F8
:1010000078876F831A86198640E060E070E063C0DD
:1010100099A5992319F087FF0CC002C0813C49F4BF
:101020009CE6980F933028F0883C19F0833809F03B
:1010300056C0B801CE010E942A02823009F038CF92
:1010400083E84DC06034710509F044C0823CC9F4A6
:101050008AA583FD2DCF243289E0380709F428CFF3
:101060008F8198859A87898738872F83F6016081D9
:1010700070E080E090E00E94391569857A8542E051
:101080002AC0B801CE010E942A02982E88818823A6
:10109000E9F029A9222379F030E021503109C90172
:1010A000880F991F280F391FB70102C0660F771FDD
:1010B0002A95E2F702C060E070E083E0660F771FD8
:1010C0008A95E1F744E0CE010E948813F2E09F1276
:1010D000EFCEB6CF41E0CE010E948813E9CEDF917A
:1010E000CF911F910F91FF90EF90DF90CF90BF9025
:1010F000AF909F908F907F906F905F904F903F90B8
:1011000008952F923F924F925F926F927F928F92AB
:101110009F92AF92BF92CF92DF92EF92FF920F9386
:101120001F93CF93DF93EC017B015A0169014801C2
:101130000E9473154BA45CA46DA47EA4DC01CB01BA
:1011400084199509A609B7094997A105B10528F49D
:10115000CE010E941A0787FFEBCF8CE891E0019740
:10116000F1F789E1C816D104B0F488E08C0D8CAB9E
:1011700084019601A501B701CE010E944A14182FDF
:10118000882311F011E092C00E9473156BA77CA711
:101190008DA79EA78BC0E1E9CE16D10408F085C0CB
:1011A000C60168E170E00E946F1921E0892B09F403
:1011B00020E0C60168E170E00E946F19722E760E81
:1011C000F701828193818034910539F08AA584608A
:1011D0008AA78FA598A90E944111F7014680512C3A
:1011E000612C84E9282E96E9392EF7017782F1E007
:1011F0007F1204C0F7013682478208C0611003C025
:10120000F701268203C085E9F7018683E8E16E9E37
:10121000A00111249601241B350B2931310510F052
:1012200028E130E088E0820F8CAB4A0D5B1D840121
:10123000B701CE010E944A14182F81110BC062E041
:1012400070E080E090E00E9439155394F2E0F515CB
:1012500060F606C07A946394772011F0512CC5CFC4
:10126000F70146828AA582FF12C049815A816B81AB
:101270007C818FA598A90E94FE0A182F8FA598A996
:101280000E94761160E08FA598A90E94BC098AA5EA
:101290008B7F8AA7112349F0772009F473CF0E942E
:1012A00073156BA77CA78DA79EA710E0812FDF91F8
:1012B000CF911F910F91FF90EF90DF90CF90BF9053
:1012C000AF909F908F907F906F905F904F903F90E6
:1012D0002F900895CF93DF93EC01862FF894EB893C
:1012E000FC892081442319F09989922B02C09A89A4
:1012F00092239083789490E59CBD91E09DBDF894F5
:10130000EF85F88920819E859223908378940E94AE
:101310001307F894EF85F88990818D85892B808358
:101320007894DF91CF9108950F931F93CF93DF931C
:101330008C01C0E0D0E0F801EC0FFD1F6491662342
:1013400071F0E0911902F0911A020190F081E02D04
:1013500089E192E00995892B11F02196ECCF6BE49D
:1013600071E089E192E00E94C00F8C0F9D1FDF9118
:10137000CF911F910F9108951F93CF93DF93EC01AD
:10138000162F61E00E94C110482F112311F0416017
:1013900001C04E7F61E0CE01DF91CF911F910C948F
:1013A00066107F928F929F92AF92BF92CF92DF9200
:1013B000EF92FF920F931F93CF93DF93CDB7DEB7DA
:1013C00028970FB6F894DEBF0FBECDBFFC019B017E
:1013D0002115310559F0822F8770863008F0FAC048
:1013E000A3E036952795AA95E1F7F2CF62AB73ABF0
:1013F00087A590A9DC012D913C912F3F310509F47F
:10140000E9C0DC0112962D913C9113972F3F3105D5
:1014100009F4E0C0E72EF62E8F0160E00E94BC09BF
:10142000F801C7A4D0A86DE1C6010E94C110482FE1
:1014300044606DE1C6010E9466106CE1C6010E9425
:10144000C110482F4F636CE1C6010E94661081E015
:10145000D60118968C93F80182A993A966E070E0F2
:101460000E946F19482F440F4B5FF0E14F9FA0017E
:101470001124456064E0D8019F968D919C91D0978E
:101480000E94661089E190E0A0E0B0E0F80181835D
:101490009283A383B4838BE490E09683858382A9AF
:1014A00093A940E02FEF3FEFB90168237923672B21
:1014B00039F073E0220F331F7A95E1F74F5FF4CFD5
:1014C000F80141AB20953095E059FE4F31832083E0
:1014D00063E0369527956A95E1F73397A90148238C
:1014E0005923518340832115310559F043E09695E6
:1014F00087954A95E1F753E0369527955A95E1F798
:10150000F2CFF801E159FE4F808386E0782E8824DF
:101510008394912C7A94FFEF7F1609F454C0672DC1
:101520008F2D9E2D0E947012D8019F96CD90DC9039
:10153000D09729833A834B835C836D837E838F832B
:101540009887A72CB12C71100BC0F601468550E08E
:10155000BE016F5F7F4FC60109960E94DD1A03C06E
:10156000F1E07F1208C0F501E653FF4F6491D60108
:101570001E962C9105C0F501E653FF4F649121E0C2
:10158000AE014F5F5F4FC6010E948A10F501EC5318
:10159000FF4F6491F6014781C6010E94661062E028
:1015A000C6010E94C110F501E254FF4FE49194017D
:1015B00001C0220FEA95EAF7482F422B62E0C601EC
:1015C0000E946610A7CFD8019F968D919C91D097CD
:1015D0000E94761128960FB6F894DEBF0FBECDBFDD
:1015E000DF91CF911F910F91FF90EF90DF90CF90FF
:1015F000BF90AF909F908F907F9008958F929F9211
:10160000AF92BF92CF92DF92EF92FF92CF93DF9390
:10161000EC014A015B010E9473156B017C0167E1DB
:10162000CE010E94C11084FD29C06FEFCE010E943F
:10163000471084FFF4CF40E167E0CE010E946610BE
:1016400060E0CE010E94351161E0CE010E943511AB
:101650000E947315DC01CB018C199D09AE09BF09ED
:1016600088159905AA05BB05D0F260E0CE010E945D
:101670003511CE010E94631080E005C060E0CE010C
:101680000E94351181E0DF91CF91FF90EF90DF90C4
:10169000CF90BF90AF909F908F9008952F923F92E0
:1016A0004F925F926F927F928F929F92AF92BF9272
:1016B000CF92DF92EF92FF920F931F93CF93DF931E
:1016C000CDB7DEB761970FB6F894DEBF0FBECDBFC2
:1016D00067E18091BC029091BD020E94C11080FD23
:1016E00003C080E090E06EC18091BC029091BD0289
:1016F0000E944111E091BE02F091BF0282A582607A
:1017000082A76AE070E080E090E00E94391564E210
:1017100079E08091BE029091BF020E94D10984E2DB
:1017200099E09093B7028093B6020E9473152B0143
:101730003C01C12CE12C90E4292E312C3C862B86D7
:1017400080910001909101019C012F5F3F4F3093E8
:101750000101209300019E878D8782EC8F87809105
:10176000BE029091BF02FC0122A933A93A872987C2
:10177000EE2089F02E2D30E021503109A901440FCF
:10178000551F240F351F01E010E002C0000F111F8C
:101790002A95E2F702C000E010E020E030E040E0EF
:1017A00050E0BE01675F7F4F0E9481080E94731561
:1017B0004B015C01F12C8091BE029091BF020E940E
:1017C0001A07823C89F4FE013196EF0DF11DEF0DF1
:1017D000F11DA091BE02B091BF0217968D919C9110
:1017E000189791838083F3940E947315DC01CB01D9
:1017F00088199909AA09BB09C897A105B10520F460
:10180000F3E0FF15C0F633C0F11031C00E9473152C
:10181000DC01CB0184199509A609B70981369A4ED6
:10182000A105B10508F05DCF2C2D30E02F5F3F4FB3
:101830008E2D90E00196289FB001299F700D389F52
:10184000700D1124675E7F4F660F771F072E000C07
:10185000880B990B0E94391581E08E0D8370E82E5C
:1018600081E08C0D6AE00E946319C92E67CFD12CEC
:10187000198ADF1408F03FC023EC2F878091B8024B
:10188000888BFE013196ED0DF11DED0DF11D0081EE
:1018900011811C870B8720E030E040E050E0BE0162
:1018A000675F7F4F8091BE029091BF020E948108C6
:1018B0000E9473154B015C010E947315DC01CB0182
:1018C00088199909AA09BB09813E9105A105B105AD
:1018D00050F48091BE029091BF020E941A07898B3A
:1018E000803851F7DF2C65E070E080E090E00E94E6
:1018F0003915D394BECF8989803809F087CFE0911C
:10190000BE02F091BF0287859089009709F47ECFCF
:1019100036852091B802321379CF9093B702809325
:10192000B6028091BC029091BD020E9441116AE012
:1019300070E080E090E00E9439156091B6027091ED
:10194000B7028091BE029091BF020E94D1091C860D
:101950001B86E1E8EF8787E0F82E08E310E020E03F
:1019600030E040E050E0BE01675F7F4F8091BE02F3
:101970009091BF020E948108811119C0FA94F11060
:101980000FC064E279E08091BE029091BF020E9494
:10199000D10984E299E09093B7028093B60236CFE2
:1019A00063E070E080E090E00E943915D6CFE091CE
:1019B000BE02F091BF0282A58D7F82A78091B60200
:1019C0009091B70261960FB6F894DEBF0FBECDBFFF
:1019D000DF91CF911F910F91FF90EF90DF90CF900B
:1019E000BF90AF909F908F907F906F905F904F903F
:1019F0003F902F9008958F929F92AF92BF92DF9267
:101A0000EF92FF920F931F93CF93DF93CDB7DEB783
:101A10002A970FB6F894DEBF0FBECDBF8091BE02ED
:101A20009091BF020E941A07D82E8091B602909121
:101A3000B702843229E0920709F4E2C033ECD312F2
:101A400003C021E02093C0022091B8022111D8C028
:101A50002D2D2D7F243C09F0B0C0E091BE02F09105
:101A6000BF027F01A7E0EA0EF11C27813085328793
:101A700021872785B4ECDB1228C04091BB028091FE
:101A8000B9029091BA0230E0341789F05C010396F4
:101A9000BC0163507109DB015C91521306C0D50192
:101AA00011968D919C91129704C03F5FEDCF8FEFFF
:101AB0009FEF9A83898308E310E022E030E0AE01D3
:101AC0004F5F5F4FB701CF0175C030E03A8729877C
:101AD0002115310509F45EC0892BC1F45091BB0278
:101AE0008091B9029091BA0240E0451709F44FC0C5
:101AF000FC010396DC0112976D917C9162177307CC
:101B000019F4208130E048C04F5FEFCF1C821B8268
:101B100080910001909101019C012F5F3F4F309314
:101B20000101209300019E838D8386EC8F8308E35F
:101B300010E022E030E0AE01475F5F4FBE016F5F13
:101B40007F4FCF010E948108882309F10E947315FD
:101B50004B015C018091BE029091BF020E941A0766
:101B6000863C71F00E947315DC01CB01881999093C
:101B7000AA09BB09853F9140A105B10558F307C0EB
:101B8000E091BE02F091BF022785308905C02FEF9A
:101B90003FEF02C020E030E03A83298308E310E001
:101BA00022E030E0AE014F5F5F4FB7018091BE028F
:101BB0009091BF020E94810823C035ECD31220C04F
:101BC000A091BE02B091BF022091B9023091BA0239
:101BD00080E09091BB02891798F4F90193E0899F06
:101BE000E00DF11D11246181728117964D915C9178
:101BF00018976417750711F4128211828F5FE9CF6D
:101C00008D2D2A960FB6F894DEBF0FBECDBFDF91A3
:101C1000CF911F910F91FF90EF90DF90BF90AF9009
:101C20009F908F90089590E0FC01E655FF4F34910E
:101C3000FC01EA56FF4F2491FC01EE57FF4FE4915F
:101C4000EE2309F43BC0332339F1333091F038F4FB
:101C50003130A9F0323001F584B58F7D12C03730B4
:101C600091F03830A1F03430B9F4809180008F7D4C
:101C700003C0809180008F77809380000DC084B571
:101C80008F7784BD09C08091B0008F7703C08091A9
:101C9000B0008F7D8093B000F0E0EE0FFF1FE8589A
:101CA000FF4FA591B4918FB7F894EC91611103C0E7
:101CB00020952E2301C02E2B2C938FBF0895CF92F9
:101CC000DF92EF92FF920F931F93CF93DF936C01FC
:101CD0007A018B01C0E0D0E0CE15DF0589F0D80194
:101CE0006D918D01D601ED91FC910190F081E02D77
:101CF000C6010995892B11F47E0102C02196ECCF13
:101D0000C701DF91CF911F910F91FF90EF90DF906E
:101D1000CF900895FC01538D448D252F30E0842F02
:101D200090E0821B930B541710F0CF960895019703
:101D30000895FC01918D828D981761F0828DDF01ED
:101D4000A80FB11D5D968C91928D9F5F9F73928FAE
:101D500090E008958FEF9FEF0895FC01918D828DA3
:101D6000981731F0828DE80FF11D858D90E0089570
:101D70008FEF9FEF0895FC01918D228D892F90E0C8
:101D8000805C9F4F821B91098F739927089589E189
:101D900092E00E94BB0E21E0892B09F420E0822F03
:101DA0000895FC01848DDF01A80FB11DA35ABF4F18
:101DB0002C91848D90E001968F739927848FA6894A
:101DC000B7892C93A089B1898C9180648C93938D71
:101DD000848D981306C00288F389E02D80818F7D61
:101DE00080830895EF92FF920F931F93CF93DF9319
:101DF000EC0181E0888F9B8D8C8D981305C0E8895C
:101E0000F989808185FD24C0F62E0B8D10E00F5FCF
:101E10001F4F0F731127E02E8C8DE8120CC00FB6E8
:101E200007FCFACFE889F989808185FFF5CFCE01DB
:101E30000E94D10EF1CF8B8DFE01E80FF11DE35A08
:101E4000FF4FF0820B8FEA89FB898081806207C097
:101E5000EE89FF896083E889F989808180648083C5
:101E600081E090E0DF91CF911F910F91FF90EF9073
:101E70000895CF93DF93EC01888D8823C9F0EA8918
:101E8000FB89808185FD05C0A889B9898C9186FD73
:101E90000FC00FB607FCF5CF808185FFF2CFA88970
:101EA000B9898C9185FFEDCFCE010E94D10EE7CF8D
:101EB000DF91CF91089580E090E0892B29F00E9476
:101EC000C70E81110C9400000895CF93DF93DC01BD
:101ED000FB01EC01C359DE4F68817981229698811C
:101EE000828140815181823028F0BA0181E0838370
:101EF00090E027C0ED01C059DE4F28813981EA0109
:101F0000C223D323D2960D90BC91A02DCA17DB0714
:101F1000C1F4C9018095909563E0880F991F6A9577
:101F2000E1F784239523892B51F083E0220F331F9F
:101F30008A95E1F72760BA016223732301C0BA01D1
:101F400095E071836083928381E0DF91CF91089562
:101F5000CF93DF93EC019CB59F7D9CBD9CB5937F97
:101F60009CBD9CB59C7F9CBD9DB591609DBD8A81AB
:101F70000E94130E8C899D89DF91CF910C943015AE
:101F80006115710579F0FB0101900020E9F73197A7
:101F9000AF01461B570BDC01ED91FC910280F381F0
:101FA000E02D099480E090E008950F931F93CF9364
:101FB000DF93EC010E94C00F8C016BE471E0CE0155
:101FC0000E94C00F800F911FDF91CF911F910F9141
:101FD00008951F920F920FB60F9211242F933F93E3
:101FE0004F935F936F937F938F939F93AF93BF9321
:101FF000EF93FF9389E192E00E94D10EFF91EF9160
:10200000BF91AF919F918F917F916F915F914F9110
:102010003F912F910F900FBE0F901F9018951F9218
:102020000F920FB60F9211242F938F939F93EF93DC
:10203000FF93E0912902F0912A028081E0912F0222
:10204000F091300282FD12C09081809132028F5F48
:102050008F7320913302821751F0E0913202F0E049
:10206000E75EFD4F958F8093320201C08081FF9122
:10207000EF919F918F912F910F900FBE0F901F9016
:10208000189561E00C94A80F60E00C94A80FEF92F3
:10209000FF921F93CF93DF931F92CDB7DEB77C01E2
:1020A00069830E9444106981862F0E941307182FAC
:1020B000C7010E944110812F0F90DF91CF911F9196
:1020C000FF90EF90089561EE0C944710EF92FF920D
:1020D0001F93CF93DF9300D0CDB7DEB77C014A8347
:1020E00069830E9444106981862F8F7180620E94EB
:1020F0001307182F4A81842F0E941307C7010E94DB
:102100004110812F0F900F90DF91CF911F91FF9081
:10211000EF900895CF92DF92EF92FF920F931F936B
:10212000CF93DF9300D01F92CDB7DEB77C01142F81
:102130002A835B8369830E9444106981862F8F7193
:1021400080620E941307082FC12E5B81D52E2A8141
:10215000120F1C1531F0F60181916F010E941307D7
:10216000F8CFC7010E944110802F0F900F900F9061
:10217000DF91CF911F910F91FF90EF90DF90CF9063
:102180000895EF92FF921F93CF93DF931F92CDB7E5
:10219000DEB77C0169830E9444106981862F8F71AC
:1021A0000E9413078FEF0E941307182FC7010E9488
:1021B0004110812F0F90DF91CF911F91FF90EF90F1
:1021C0000895EF92FF920F931F93CF938C017B01A1
:1021D00066E00E94C110C82FC77D82E0E816F104B6
:1021E00031F4C0628BE990E0A0E0B0E00DC0EA9469
:1021F000EF2829F085E590E0A0E0B0E005C0C860D8
:1022000081E490E0A0E0B0E0F801808B918BA28B9C
:10221000B38B4C2F66E0C8010E94661066E0C801CF
:102220000E94C11091E08C1390E0892FCF911F91F3
:102230000F91FF90EF900895CF93DF93EC0160E052
:102240000E94C11081FD0EC0482F426060E0CE01A7
:102250000E94661065E070E080E090E0DF91CF9131
:102260000C943915DF91CF910895FC0120813181C3
:10227000828193812817390719F0822F0C94130E4D
:102280000895CF93DF93EC0160E00E9435118889B7
:1022900099890E9430156DE1CE010E94C11081FF25
:1022A00007C0888999890E943015CE010E94631069
:1022B00060E0CE010E94C110482F4E7F60E0CE0149
:1022C0000E94661062E0CE010E94C110EEEBF0E0C9
:1022D000E49141E050E001C0440FEA95EAF7482B51
:1022E00062E0CE01DF91CF910C946610CF93DF9323
:1022F000EC010E941C1160E0CE010E94C110482F29
:10230000416060E0CE010E94661040E767E0CE01C8
:102310000E94661061E0CE010E94351189858823F4
:1023200049F02E85AE01475F5F4F6AE0CE010E9403
:102330008A1014C062E0CE010E94C110EEEBF0E002
:10234000E49121E030E001C0220FEA95EAF7209500
:10235000422F482362E0CE010E9466106DE1CE015B
:102360000E94C11081FF05C0CE01DF91CF910C9476
:102370006310DF91CF9108951F93CF93DF93EC010A
:10238000888199812A813B818217930719F061E046
:102390000E94F4148A819B8128813981281739078A
:1023A00019F061E00E94F4141FB7F8948091790449
:1023B000811127C0ECE8F0E08491E0EAF0E094912C
:1023C000E82FF0E0EE0FFF1FE151FD4FA591B49112
:1023D000EC91E92321F461E08AE00E94130E61E0B0
:1023E0008AE00E94F4148CB580618CBD8CB5806449
:1023F0008CBD61E08DE00E94F41461E08BE00E94EE
:10240000F414809179048F5F809379041FBF60E09A
:10241000CE010E94351161E0CE010E94A80F65E057
:1024200070E080E090E00E9439154CE060E0CE0161
:102430000E9466104FE564E0CE010E94661062E0E3
:1024400070E0CE010E94E110882311F081E08E83BC
:1024500066E0CE010E94C110182F60E070E0CE014E
:102460000E94E110CE010E94441080E50E941307F3
:1024700083E70E941307CE010E94411040E06DE106
:10248000CE010E94661040E06CE1CE010E94661011
:10249000188640E767E0CE010E9466104CE465E0D4
:1024A000CE010E94661062EECE010E944710CE015E
:1024B0000E946310CE010E941C1160E0CE010E94B8
:1024C000C110482F4E7F60E0CE010E94661011506F
:1024D00081E01E3F08F080E0DF91CF911F910895C9
:1024E000CF93DF93CDB7DEB728970FB6F894DEBF52
:1024F0000FBECDBFAC019CEC99839A839B839C83D8
:102500009D831E821F8218869A01E1E02115310504
:10251000C9F0611103C04115510569F4D901A770D3
:10252000BB27AC5BBE4F8C91A1E0B0E0AC0FBD1FF0
:10253000AE0FB11D8C9383E0369527958A95E1F710
:10254000EF5FE4CF611102C0452B39F4E62FF0E0D4
:10255000EC5BFE4F8081898305C0F0E0ED5BFE4FB0
:1025600080818A8329813A814B815C816D817E8162
:102570008F81988528960FB6F894DEBF0FBECDBF29
:10258000DF91CF9108956F927F928F929F92AF9239
:10259000BF92CF92DF92EF92FF920F931F93CF9350
:1025A000DF93CDB7DEB728970FB6F894DEBF0FBE26
:1025B000CDBF8C01CB01D22E642F0E947012390145
:1025C0004A015B017C01F80182A582FD04C087A558
:1025D00090A90E944111F80187A590A9DD2011F072
:1025E00060E001C061E00E94BC09F801C7A4D0A866
:1025F00069827A828B829C82AD82BE82EF82F8866B
:10260000F6012685AE014F5F5F4F6AE0C6010E946A
:102610008A10F6012685AE014F5F5F4F60E1C6016B
:102620000E948A10F601478161E1C6010E9466108E
:10263000F801B4A8C7A4D0A86FEFC6010E94471044
:1026400080FF0DC06FEFC6010E94471084FFF4CFDA
:1026500040E167E0C6010E946610F12C30C0F6012F
:10266000F780EF2CBF1408F4EB2CF6018085811164
:1026700002C0FE1801C0F12CC6010E94441080EA7D
:102680000E9413075801F7E0AF0EB11CEA0CEA14E0
:1026900031F0F50181915F010E941307F8CFFF200F
:1026A00029F080E00E941307FA94F9CFC6010E9436
:1026B000411061E0C6010E943511FF24F394F80136
:1026C00082A582FD0FC0418152816381748187A5FB
:1026D00090A90E94FE0AF82E60E0F80187A590A953
:1026E0000E94BC098F2D28960FB6F894DEBF0FBE4E
:1026F000CDBFDF91CF911F910F91FF90EF90DF90B1
:10270000CF90BF90AF909F908F907F906F900895E3
:10271000CF92DF92EF92FF920F931F93CF93DF93AD
:1027200000D000D0CDB7DEB7FC0195859B01211507
:10273000310561F0822F8770863030F483E0369562
:1027400027958A95E1F7F3CF80E097C09154EE2466
:10275000E3949F3708F0E12CF42E6B018F0119826E
:102760001A821B821C827A8369834B83BE016F5F4E
:102770007F4FCF010E94650F69817A812C814B8147
:10278000C8010E94C312F1E0FF1227C0811102C0EC
:10279000F12C6AC089819A818C159D0501F5EE2086
:1027A000F1F081ECF8018587878190859287818798
:1027B0009A838983FB821C82BE016F5F7F4FC801B1
:1027C0000E94650F88E0F80184AB69817A812C81D1
:1027D0004B81C8010E94C31202C08823C9F28981BB
:1027E0009A818C159D0519F4FF24F3943DC0FF20B8
:1027F00019F0F3E0FF12F8CFEE20B1F3F80182A553
:1028000082FF11C0418152816381748187A590A9A3
:102810000E94FE0AF80182A58B7F82A760E087A54F
:1028200090A90E94BC09F80187A590A90E94761181
:102830000E9473156B017C01C8010E941A07813C3C
:1028400099F20E947315AB01BC014C195D096E0928
:102850007F09F80185819681A0E0B0E08417950793
:10286000A607B70748F794CFF80182A582FD04C0F8
:1028700087A590A90E9476118F2D0F900F900F9031
:102880000F90DF91CF911F910F91FF90EF90DF900C
:10289000CF900895EF92FF920F931F93CF93DF9302
:1028A000EC017B01BA018AA99BA9F701918380837E
:1028B000DE01179688E001900D928A95E1F72115C7
:1028C000310529F0A901CE010F960E94DD1AF7010A
:1028D000628173810833110561F06034710511F470
:1028E00044E001C043E06017710709F442E0B80119
:1028F00001C040E0CE01DF91CF911F910F91FF9079
:10290000EF900C9488133FB7F894809180049091D5
:102910008104A0918204B091830426B5A89B05C0D0
:102920002F3F19F00196A11DB11D3FBFBA2FA92F4E
:10293000982F8827820F911DA11DB11DBC01CD01CB
:1029400043E0660F771F881F991F4A95D1F70895B6
:1029500008954F925F926F927F92EF92FF920F9342
:102960001F93CF93DF93CDB7DEB7A1970FB6F8943F
:10297000DEBF0FBECDBF7C01FA01CB0119A2223010
:1029800008F42AE08E010F5D1F4F422E512C612C5E
:10299000712CBF01A30192010E948319F901CA01A0
:1029A000015011096A3014F4605D01C0695CD801FE
:1029B0006C93232B242B252B61F7B801C7010E94B0
:1029C000C00FA1960FB6F894DEBF0FBECDBFDF914A
:1029D000CF911F910F91FF90EF907F906F905F903C
:1029E0004F9008950E94D81ACF93DF9390E0FC0196
:1029F000EA56FF4F2491FC01EE57FF4F8491882344
:102A000061F190E0880F991FFC01E151FD4FC591E4
:102A1000D491FC01E858FF4FA591B491611109C010
:102A20009FB7F8948881209582238883EC912E2388
:102A30000BC0623061F49FB7F8943881822F809583
:102A400083238883EC912E2B2C939FBF06C08FB7D6
:102A5000F894E8812E2B28838FBFDF91CF910895C2
:102A60008330910528F0880F991F04970197F1F79B
:102A700008958F929F92AF92BF92CF92DF92EF9282
:102A8000FF926B017C010E9483144B015C01C11415
:102A9000D104E104F104F1F00E948314DC01CB01C4
:102AA00088199909AA09BB09883E9340A105B10577
:102AB00070F321E0C21AD108E108F10888EE880E0F
:102AC00083E0981EA11CB11CC114D104E104F104DF
:102AD00019F7DDCFFF90EF90DF90CF90BF90AF90D0
:102AE0009F908F9008952FB7F89460917C04709117
:102AF0007D0480917E0490917F042FBF08951F92E2
:102B00000F920FB60F9211242F933F938F939F93A1
:102B1000AF93BF9380917C0490917D04A0917E043B
:102B2000B0917F0430917B0426E0230F2D3720F4F1
:102B30000296A11DB11D05C029E8230F0396A11D12
:102B4000B11D20937B0480937C0490937D04A0931B
:102B50007E04B0937F048091800490918104A091C1
:102B60008204B09183040196A11DB11D809380045D
:102B700090938104A0938204B0938304BF91AF919A
:102B80009F918F913F912F910F900FBE0F901F90AB
:102B900018951F920F920FB60F9211242F933F9307
:102BA0004F935F936F937F938F939F93AF93BF9355
:102BB000EF93FF93E0910401F09105010995FF91D6
:102BC000EF91BF91AF919F918F917F916F915F91A5
:102BD0004F913F912F910F900FBE0F901F9018951E
:102BE0001F920F920FB60F9211242F933F934F9382
:102BF0005F936F937F938F939F93AF93BF93EF9365
:102C0000FF93E0910201F09103010995FF91EF918B
:102C1000BF91AF919F918F917F916F915F914F91F4
:102C20003F912F910F900FBE0F901F901895CF934B
:102C3000DF93E9E1F2E01382128288EE93E0A0E0F4
:102C4000B0E084839583A683B78326E131E03183A6
:102C5000208325EC30E03587248724EC30E037876B
:102C6000268720EC30E0318B208B21EC30E0338B59
:102C7000228B22EC30E0358B248B26EC30E0378B36
:102C8000268B118E128E138E148EEDE6F4E01382D5
:102C9000128284839583A683B78388E291E091832F
:102CA0008083E8E5F4E01382128281E08187148654
:102CB00013868AE391E091838083E0E4F4E08AE084
:102CC00090E09183808385E090E0938382831682F5
:102CD00080E28783108685E0868785E090E0A0E02B
:102CE000B0E0848B958BA68BB78B1186AEECB2E0EF
:102CF000D096FC93EE939F9783E093E090939E038E
:102D000080939D038BEA93E09093AA038093A90399
:102D10008FE993E098969C938E9397979B961D923C
:102D20001D921D921C929E979A961C929A97999624
:102D30001C9299971C92C6EBD2E0FF83EE83B98771
:102D4000A887DF91CF910895CF93DF93CDB7DEB7FA
:102D500028970FB6F894DEBF0FBECDBF789484B528
:102D6000826084BD84B5816084BD85B5826085BD87
:102D700085B5816085BD80916E00816080936E0015
:102D80001092810080918100826080938100809107
:102D900081008160809381008091800081608093B8
:102DA00080008091B10084608093B1008091B00078
:102DB00081608093B00080917A00846080937A0073
:102DC00080917A00826080937A0080917A008E7F71
:102DD00080937A0080917A00806880937A001092C4
:102DE000C10010927A0060E082E00E94F41482E256
:102DF00092E09093030180930201809169008C7F9F
:102E0000816080936900E89A80E494E00E94BC119C
:102E100066E080E494E00E94C110887F482F4560FE
:102E200066E080E494E00E94661060E070E080E478
:102E300094E00E94E11061E088E00E94F41460E0F8
:102E400088E00E94130E6AE070E080E090E00E944B
:102E5000391561E088E00E94130E6AE070E080E0BE
:102E600090E00E94391567E085E694E00E94F5063F
:102E700066E089E694E00E94F5062A9A229A239A4F
:102E8000259A10925C0410925D04E9EEF2E08591BF
:102E90009491E82EEBEEF2E0F490ECEEF2E0E491A7
:102EA000E0935E04EDEEF2E0E491E0935F04EEEE79
:102EB000F2E0E491E09360048C01802F8E198F156D
:102EC00048F4F801649188E594E00E948E030F5F56
:102ED0001F4FF3CF1092620488E594E00E94AB0587
:102EE0008EEF90E0909364048093630488E594E00F
:102EF0000E94AB0582E080936104E0912902F09189
:102F00002A028083E0912502F09126021082E0914E
:102F10002702F091280288E0808310923102E0912C
:102F20002D02F0912E0286E08083E0912B02F09139
:102F30002C02808180618083E0912B02F0912C0231
:102F4000808188608083E0912B02F0912C02808147
:102F500080688083E0912B02F0912C0280818F7D2C
:102F6000808381E08093B8026EE471E088E594E0AC
:102F70000E94D50F83EF90E00E9494098091BC02DB
:102F80009091BD020E94BC118091B802882339F053
:102F900084E299E09093B7028093B6020EC086E077
:102FA00090E00E94AB199093BA028093B9021092FC
:102FB000BB021092B7021092B60281E68093C9025A
:102FC00041E665E08091BC029091BD020E946610CE
:102FD00060E070E08091BC029091BD020E94E1101F
:102FE0008091BE029091BF0221E0FC0121A72091B7
:102FF000B802222319F00E944E0B06C06091B6025F
:103000007091B7020E94D10969E571E088E594E00A
:103010000E94D50F89EE90E00E94940992E8892ED3
:103020002DE4922E36EF232E33243A944AE9A42E2F
:10303000B12C0E94FB0C80917A04882309F4D8C03B
:1030400088E594E00E94AB0563E671E088E594E0D2
:103050000E94D50F8091B6029091B70284329940B8
:1030600051F10E9473158091B6029091B70284329B
:10307000994009F11C821B8280910001909101010D
:103080009C012F5F3F4F30930101209300019E83ED
:103090008D839F8208E310E026E030E046E051E0B7
:1030A000BE016F5F7F4F8091BE029091BF020E9470
:1030B000810881110FC084E0F82EFA94FF2009F4F2
:1030C000E9C08091B6029091B7028432994009F02C
:1030D0009DC0E0C088E594E00E94AB056EE671E01B
:1030E00088E594E00E94D50F66E071E088E594E001
:1030F0000E94D50F6EE671E089E192E00E94C00F58
:1031000066E071E089E192E00E94D50F10927A04A6
:103110006FC000910B0310910C03A8010930110539
:1031200010F048E050E06DE073E0CE0101960E949F
:10313000DD1AC101801B910B860D971D90939E0394
:1031400080939D03A501401B510BB801635F7C4F29
:1031500083E093E00E94E61A88E594E00E94AB05C4
:1031600068E771E088E594E00E94C00FCD80DE80C2
:10317000EF80F8842AE0B701A60188E594E00E9478
:10318000A9146AE871E088E594E00E94C00F4980C4
:103190005A806B807C802AE0B301A20188E594E02C
:1031A0000E94A9146BE471E088E594E00E94C00FCE
:1031B00068E771E089E192E00E94C00F2AE0B70160
:1031C000A60189E192E00E94A9146AE871E089E110
:1031D00092E00E94C00F2AE0B301A20189E192E0CF
:1031E0000E94A9146BE471E089E192E00E94C00F93
:1031F00060909D0370909E0323E0621623E07206A8
:1032000011F008F086CF0E945B0F13CF0E94FB0CD9
:1032100067E18091BC029091BD020E94C11081FDC6
:103220002CC08091BE029091BF02FC0122A520FD1E
:1032300024C01C821B822091000130910101A90150
:103240004F5F5F4F50930101409300013E832D83F8
:103250008F8208E310E020E030E040E050E0BE0163
:103260006F5F7F4F0E948108811107C067E670E0A1
:1032700080E090E00E94391520CF88E594E00E941C
:10328000AB056FE871E088E594E00E94D50F6FE828
:1032900071E038CF8091BC029091BD020E94411133
:1032A00088E594E00E94AB0569E971E088E594E067
:1032B0000E94D50F69E971E089E192E00E94D50F83
:1032C0000E944E0B23CF991B79E004C0991F9617DB
:1032D00008F0961B881F7A95C9F780950895AA1B58
:1032E000BB1B51E107C0AA1FBB1FA617B70710F0F1
:1032F000A61BB70B881F991F5A95A9F78095909523
:10330000BC01CD010895A1E21A2EAA1BBB1BFD0131
:103310000DC0AA1FBB1FEE1FFF1FA217B307E407B4
:10332000F50720F0A21BB30BE40BF50B661F771F0C
:10333000881F991F1A9469F76095709580959095EC
:103340009B01AC01BD01CF010895EE0FFF1F059059
:10335000F491E02D0994CF93DF938230910510F41E
:1033600082E090E0E0918604F091870420E030E074
:10337000C0E0D0E0309711F14081518148175907E2
:10338000C0F04817590761F482819381209719F0A2
:103390009B838A832BC0909387048093860426C0E6
:1033A0002115310519F04217530718F49A01BE018F
:1033B000DF01EF010280F381E02DDCCF2115310523
:1033C00009F1281B390B2430310590F412968D91A8
:1033D0009C9113976115710521F0FB019383828302
:1033E00004C09093870480938604FD01329644C004
:1033F000FD01E20FF31F81939193225031092D9328
:103400003C933AC02091840430918504232B41F4ED
:1034100020910E0130910F01309385042093840494
:1034200020910C0130910D012115310541F42DB78A
:103430003EB74091100150911101241B350BE091D2
:103440008404F0918504E217F307A0F42E1B3F0BD0
:103450002817390778F0AC014E5F5F4F2417350706
:1034600048F04E0F5F1F509385044093840481936E
:10347000919302C0E0E0F0E0CF01DF91CF91089599
:103480000F931F93CF93DF93009709F48CC0FC0137
:1034900032971382128200918604109187040115DD
:1034A000110581F420813181820F931F20918404C2
:1034B000309185042817390779F5F0938504E09356
:1034C000840471C0D80140E050E0AE17BF0750F44B
:1034D00012962D913C911397AD012115310509F1FB
:1034E000D901F3CF9D01DA01338322836081718199
:1034F000860F971F8217930769F4EC0128813981A1
:10350000260F371F2E5F3F4F318320838A819B8197
:1035100093838283452B29F4F0938704E0938604F8
:1035200042C01396FC93EE931297ED014991599185
:103530009E01240F351FE217F30771F480819181FA
:10354000840F951F029611969C938E93828193818E
:1035500013969C938E931297E0E0F0E0D8011296B8
:103560008D919C911397009719F0F8018C01F6CF7B
:103570008D919C9198012E5F3F4F820F931F209158
:103580008404309185042817390769F4309729F4A9
:10359000109287041092860402C013821282109344
:1035A000850400938404DF91CF911F910F910895BA
:1035B00081E090E0F8940C94F81AFB01DC0102C061
:1035C00001900D9241505040D8F70895681779073F
:1035D00068F4FB01DC01E40FF51FA40FB51F02C066
:1035E00002900E9241505040D8F708950C94DD1A85
:0435F000F894FFCF7D
:1035F4000100A814A8143030312D300000008804D4
:10360400800000000000F20E5F0E8A0E390FBB0E20
:10361400990EAD0E000000001102FD012702BD014C
:10362400C401C101BE01000000000B045F0E2702AB
:1036340026026A09C33C33CE3EE3EC0D0A00537400
:10364400617274696E672E2E0057616974696E67C2
:103654002E2E00496E746572727570742100536564
:103664006E64204F4B3A2000526563656976656449
:10367400207061636B657420230020617420005303
:10368400656E64206661696C0052656E6577696E6B
:0A36940067204164647265737300DF
:00000001FF
