:100000000C9473000C94EC0C0C94C50C0C949B0099
:100010000C949B000C949B000C949B000C949B00F4
:100020000C949B000C949B000C949B000C949B00E4
:100030000C949B000C949B000C949B000C949B00D4
:100040000C947B0C0C949B000C949B000C949B00D8
:100050000C949B000C949B000C949B000C949B00B4
:100060000C944A050C949B0000030C0F30333C3F6A
:10007000C0C3CCCFF0F3FCFF000000002400270039
:100080002A0000000000250028002B0000000000CE
:1000900023002600290004040404040404040202CA
:1000A00002020202030303030303010204081020F7
:1000B0004080010204081020010204081020000002
:1000C0000008000201000003040700000000000017
:1000D00000000001020304051112131415160A0B87
:1000E0000C0D0E0F881511241FBECFEFD8E0DEBF18
:1000F000CDBF23E0ACE3B1E001C01D92A138B2074F
:10010000E1F711E0A0E0B1E0E4ECFEE202C005900E
:100110000D92AC33B107D9F710E0C3E7D0E004C0CB
:100120002197FE010E940D16C237D107C9F70E9420
:1001300028140C9460170C940000CF93DF93DC011B
:10014000FB01EC01C359DE4F6881798122969881C9
:10015000828140815181823028F0BA0181E083831D
:1001600090E027C0ED01C059DE4F28813981EA01B6
:10017000C223D323D2960D90BC91A02DCA17DB07C2
:10018000C1F4C9018095909563E0880F991F6A9525
:10019000E1F784239523892B51F083E0220F331F4D
:1001A0008A95E1F72760BA016223732301C0BA017F
:1001B00095E071836083928381E0DF91CF91089510
:1001C000CF93DF93EC019C818E81981758F4E881DE
:1001D000F9810084F185E02D42E0CE0109958C8102
:1001E0008F5F8C83DF91CF910895DC01ED91FC91BD
:1001F0000084F185E02D40E009940F931F93CF9385
:100200008C01FC0164839085C62FC90F6C2F6F7021
:10021000C8010E94F5006C2F62956F706061C80183
:10022000CF911F910F910C94F5000F931F93CF93D3
:10023000DF931F92CDB7DEB78C01FC018681681772
:1002400028F4C80149830E94FD004981F801878193
:10025000869586958695481758F44583642F606B7C
:10026000C8010F90DF91CF911F910F910C94F50071
:100270000F90DF91CF911F910F9108952F923F9290
:100280004F925F926F927F928F929F92AF92BF92A6
:10029000CF92DF92EF92FF920F931F93CF93DF9352
:1002A000CDB7DEB727970FB6F894DEBF0FBECDBF30
:1002B000DC011B960D911C911C970115110509F489
:1002C00080C19F838E83F801B49131964491319619
:1002D00054903196A491EA2EF12CF7E0EF0EF11C28
:1002E00023E0F594E7942A95E1F7EB82F801349640
:1002F00074913196E491671758F0862F90E02E2F75
:1003000030E0F901E70FF11D8E179F070CF491C043
:100310006D3069F4AE81BF8116968C91882309F403
:1003200085C060E08E819F810E94FD007FC06A30A1
:1003300009F047C1EE81FF8181856581062F8E9D81
:10034000000D11248781869586958695081730F0D3
:100350008285882319F082E0828700E0402F60E0E8
:100360008E819F810E941501AE81BF811A968C916A
:100370001A97823008F45AC01596CC9015971B96A0
:10038000ED91FC911C97309741F03396E4911996CA
:100390008C91E89FE02D112401C0E0E0F0E0379659
:1003A00093E0F595E7959A95E1F71FEF1C0D1E0F69
:1003B000EE81FF81A680AA94B48087818695869578
:1003C0008695181710F01FEF180FDC2C1D1590F0F4
:1003D0004D2D6B2D8E819F810E9415019B2CA914A0
:1003E00038F060E08E819F810E94E0009394F7CF07
:1003F000D394ECCF4C2D6B2D8E819F810E941501E3
:10040000AE81BF8119968C911997602F8E9D600DDA
:100410001124660F660F660F17968C91861708F4E5
:1004200060E060648E819F810E94F50081E090E031
:10043000CAC050E05B2BC8010696671BEE81FF81A6
:10044000F185F9834230510588F4452B09F0198272
:100450005E9C90015F9C300D1124629F8001639F20
:10046000100D1124080F191F412C24C0EA2FE7702A
:1004700021F048E0442E4E1A01C0412CA82FFC0167
:1004800040E050E07E2F7A1B761728F47491470FD6
:10049000511D3196F7CFFC01E60FF11D54904E9D92
:1004A00080014F9D100D5E9D100D1124020F131F32
:1004B000080F191FAE81BF811496BC91BC83EE81D9
:1004C000FF813580652C712CCC24C394D12C812CD8
:1004D000912C7FEF7C0D7A838B81781708F05FC0B9
:1004E000212CAE81BF8119968C91281608F051C03D
:1004F0007A81711102C0222051F0AE81BF81159620
:100500004C9115974F5F6C81CD010E941501A12C74
:10051000B12CA51488F5F501E80DF91DE00FF11FC8
:100520002491442061F0CE14DF0449F4E22FF0E07E
:10053000042C02C0F595E7950A94E2F72E2FEE8180
:10054000FF818185823079F4E22F2110E295EF70EE
:10055000F0E0E859FF4F2491622F8E819F812D8317
:100560000E94E0002D81622F8E819F810E94E00019
:10057000FFEFAF1ABF0ACDCFB12C7981B71639F092
:1005800060E08E819F810E94E000B394F6CF2394B7
:10059000A8CF860C971CBFEFCB1ADB0A9ACFAE818F
:1005A000BF8117968C9117978695869586953816F4
:1005B00008F03CCF15963C921597632D606BCD01EA
:1005C00033CF80E090E027960FB6F894DEBF0FBEE1
:1005D000CDBFDF91CF911F910F91FF90EF90DF90F2
:1005E000CF90BF90AF909F908F907F906F905F90D3
:1005F0004F903F902F90089508958FEF9FEF0895AB
:100600008FEF9FEF08958091AA0190E091958195D9
:100610009109089585ED8093BC008091BC0084FD14
:10062000FCCF10928401089540915E01262F30E0A6
:10063000240F311D21323105DCF420918401243056
:10064000C9F4FC0180E090E0861758F430915E0117
:100650002191DC01A45CBE4FA30FB11D2C93019628
:10066000F3CF80915E01680F60935E0180E0089592
:1006700081E0089582E00895CF93DF9300D0CDB755
:10068000DEB7CB01642F49835A830E94140349814A
:10069000842F5A81952F0F900F90DF91CF9108955D
:1006A000CF93DF931F92CDB7DEB7698361E0CE01B0
:1006B00001960E94140381E090E00F90DF91CF91AA
:1006C000089581E08093AB010895089580E090E063
:1006D00008958F929F92AF92BF92CF92DF92EF9246
:1006E000FF920F931F93CF93DF93EC017B01CCA874
:1006F000D12C860108501109DB0116969C918CE6DD
:10070000890F833020F0983C09F0CFC003C09439A2
:1007100009F4E4C08BE6890F823018F0983C09F0A8
:100720008EC06E0159EDC50ED11CD6012D913C91A4
:10073000A801420F531F4139510520F0C852DF4F25
:100740001882B1C05E01B8EDAB0EB11CF50180811D
:10075000882309F415C1963929F0D70117969C9181
:100760009813A1C0FE01EB52FF4F40815181F70168
:10077000848195814817590709F095C04E01FBED1A
:100780008F0E911CD4018D919C91A801BE01615FD7
:100790007F4F820F931F0E944517F6018081918140
:1007A000080F191F11830083D70116968C91863983
:1007B00029F0F50180818150808373C0D5011C929E
:1007C000F7018781FE01E952FF4F8083833809F4E6
:1007D00083C07E01FFECEF0EF11CF701A081B18117
:1007E000CE018A1B9B0B8B539F4F80179107F8F00C
:1007F00032968AE001900D928A95E1F7D7018D91AA
:100800009C91F40160817181D6014D915C910A96B1
:100810000E944517F601808191810A96D7012D919A
:100820003C911197820F931F8D939C933AC08FA593
:1008300098A90E94010E8AA581608AA734C07E0112
:10084000BFECEB0EF11CF701A081B181CE01C59682
:100850009D01281B390BC901800F911F8B39910510
:1008600010F5E85CF10988E001900D928A95E1F7B6
:10087000D701ED91FC911197118700878D919C9183
:10088000BE01615F7F4FA8010A960E944517B2E042
:10089000CB0ED11CF70180819181C80ED91ED18267
:1008A000C08281E06DC080E06BC0933841F6DE010C
:1008B000AF52BF4FFE01379688E001900D928A95A6
:1008C000E1F7FE01E552FF4FCE010F969183808341
:1008D000C752DF4F1983088382E052C0F701878136
:1008E000873008F02BCFFE01EB52FF4F4081518142
:1008F000D70114962D913C91159734976F014217AB
:10090000530739F4408151812D913C91421753078F
:1009100041F2F8E18F9FC0011124FE01E153FF4F26
:1009200020813181AE01421B530B9A012B533F4F63
:10093000281739073CF48AA581608AA78FA598A952
:100940000E94010EFE01379688E0D60101900D92BB
:100950008A95E1F7FE01E552FF4FBE01615F7F4FCF
:10096000A801808191810E944517FE01E752FF4F47
:1009700011830083C852DF4F88818150888391CFD3
:10098000DF91CF911F910F91FF90EF90DF90CF906B
:10099000BF90AF909F908F900895FC01208131818E
:1009A000828193812817390719F0822F0C94FC0B50
:1009B0000895CF93DF93EC019CB59F7D9CBD9CB5C2
:1009C000937F9CBD9CB59C7F9CBD9DB591609DBD5A
:1009D0008A810E94FC0B8C899D89DF91CF910C94B8
:1009E0002C0C61E00C94D90460E00C94D904CF93F2
:1009F000DF93CDB7DEB728970FB6F894DEBF0FBEF2
:100A0000CDBFAC019CEC99839A839B839C839D838F
:100A10001E821F8218869A01E1E021153105C9F076
:100A2000611103C04115510569F4D901A770BB27B5
:100A3000AB5EBE4F8C91A1E0B0E0AC0FBD1FAE0F1E
:100A4000B11D8C9383E0369527958A95E1F7EF5F8A
:100A5000E4CF611102C0452B39F4E62FF0E0EB5EE4
:100A6000FE4F8081898305C0F0E0EC5EFE4F8081FF
:100A70008A8329813A814B815C816D817E818F815E
:100A8000988528960FB6F894DEBF0FBECDBFDF91D4
:100A9000CF9108951F920F920FB60F9211242F93AA
:100AA0003F934F935F936F937F938F939F93AF93F6
:100AB000BF93EF93FF938091B900887F803609F44C
:100AC0009CC068F5883209F45BC090F4803109F469
:100AD00054C038F4882309F4F6C0883009F44DC0B6
:100AE000F6C0883109F44CC0803209F45DC0EFC013
:100AF000803409F468C048F4803309F455C0883361
:100B000009F0E5C080938301D8C0803509F44FC057
:100B1000883509F45DC0883409F0D9C0D6C0883959
:100B200009F4C7C0A8F4883709F467C038F48836D8
:100B300009F463C0803709F460C0C9C0883809F47B
:100B4000B8C0803909F45FC0803809F0C0C05BC00C
:100B5000803B09F486C038F4803A09F466C0883ACC
:100B600009F47FC0B4C0803C09F4A7C0883C09F4F4
:100B7000A4C0883B09F48AC0AAC08091A90110C012
:100B80009091A8018091A701981770F5E091A801B4
:100B900081E08E0F8093A801F0E0E957FE4F80813D
:100BA0008093BB0085EC86C0809383018EC0E0916A
:100BB000A80181E08E0F8093A8018091BB00F0E036
:100BC000E957FE4F80839091A8018091A7016EC0E4
:100BD000E091A80181E08E0F8093A8018091BB0075
:100BE000F0E0E957FE4F80838091860181116DC04E
:100BF00081E08093850184EA61C083E08093840171
:100C000010928201CFCF80918201803208F051C0D2
:100C1000E091820181E08E0F809382018091BB0080
:100C2000F0E0EE59FE4F8083BDCF85EC8093BC0091
:100C30001092840180918201803230F4E09182012F
:100C4000F0E0EE59FE4F10826091820170E0E09179
:100C50006001F091610182E691E0099510928201B4
:100C600036C084E08093840110925F0110925E018F
:100C7000E0915C01F0915D01099580915E01811127
:100C800005C081E080935E0110923C01E0915F011C
:100C900081E08E0F80935F01F0E0E45CFE4F808185
:100CA0008093BB0090915F0180915E01981708F4DA
:100CB00079CF85E88093BC000AC085EC8093BC00A6
:100CC0001092840104C0109283010E940A03FF91D4
:100CD000EF91BF91AF919F918F917F916F915F91B4
:100CE0004F913F912F910F900FBE0F901F9018952D
:100CF0008EBD00000DB407FEFDCF8EB508956F9236
:100D00007F928F929F92AF92BF92CF92DF92EF929B
:100D1000FF920F931F93CF93DF93CDB7DEB7289742
:100D20000FB6F894DEBF0FBECDBF8C01CB01D22E23
:100D3000642F0E94F70439014A015B017C01F8012C
:100D400082A582FD04C087A590A90E94010EF8012A
:100D500087A590A9DD2011F060E001C061E00E944C
:100D6000D10FF801C7A4D0A869827A828B829C82B5
:100D7000AD82BE82EF82F886F6012685AE014F5F16
:100D80005F4F6AE0C6010E94560DF6012685AE014E
:100D90004F5F5F4F60E1C6010E94560DF60147812B
:100DA00061E1C6010E94320DF801B4A8C7A4D0A821
:100DB0006FEFC6010E94130D80FF0DC06FEFC601DB
:100DC0000E94130D84FFF4CF40E167E0C6010E944A
:100DD000320DF12C30C0F601F780EF2CBF1408F46F
:100DE000EB2CF6018085811102C0FE1801C0F12CA8
:100DF000C6010E94F40480EA0E9478065801F7E0D8
:100E0000AF0EB11CEA0CEA1431F0F50181915F01DB
:100E10000E947806F8CFFF2029F080E00E94780633
:100E2000FA94F9CFC6010E94F10461E0C6010E9464
:100E3000CD04FF24F394F80182A582FD0FC0418107
:100E400052816381748187A590A90E941311F82EA5
:100E500060E0F80187A590A90E94D10F8F2D2896F8
:100E60000FB6F894DEBF0FBECDBFDF91CF911F91BB
:100E70000F91FF90EF90DF90CF90BF90AF909F9039
:100E80008F907F906F9008952F923F924F925F9234
:100E90006F927F928F929F92AF92BF92CF92DF928A
:100EA000EF92FF920F931F93CF93DF9300D01F9287
:100EB000CDB7DEB7DC019A969C919A97892F827004
:100EC00091FD19C0FD01E153FF4FAD014B5C5F4F38
:100ED00090FD07C020813181241B350B2937310556
:100EE00054F0208131814217530708F480C19E7F5E
:100EF0009A969C939A97BB83AA83512C7D0127E0F5
:100F0000E20EF11C22242394312C1CEBC12E12E1A1
:100F1000D12E5D0131E9A31A3EEFB30A04E2802E1F
:100F200009E0902EEA81FB8107A510A9F8018081D4
:100F300091818F3F910509F440C0F801828193812E
:100F40008F3F9105E1F539C0C8010E94F10440E7E7
:100F500067E0C8010E94320DEA81FB8161857285DC
:100F6000CB01009709F090C0EA81FB81558482A9EA
:100F700093A96817790709F0C3C0F2E85F1691F2E8
:100F800020E8521609F48DC0F3EC5F1609F49CC0FA
:100F9000EA81FB8181A5882309F4A4C057FEA6C07D
:100FA0008CE6850D833008F4A1C028EC521609F4B4
:100FB0009DC033E8531609F499C0852D18C167E127
:100FC000C8010E948D0DF82FF1707F2E80FDF5CFA6
:100FD0006FEFC8010E94130DEA81FB8107A510A9DC
:100FE000C8010E94F40480E60E9478068FEF0E94F8
:100FF0007806682EC8010E94F104F0E2F61508F0A8
:101000004EC062EEC8010E94130D62E070E080E005
:1010100090E00E94350CEA81FB8174AAF7E0F71595
:1010200038F06AE070E080E090E00E94350C7ACF02
:10103000EA81FB8107A510A9F8014780272D4714F5
:1010400008F4242DF8018085811102C0421A01C0E4
:10105000412CC80129830E94F40481E60E9478068D
:1010600037012981215040F08FEF29830E947806B3
:10107000F30181933F01F5CF442009F465CF8FEF51
:101080000E9478064A94F8CF282F2770263008F05F
:1010900049CFE3E096958795EA95E1F762CF762C04
:1010A000BACF6432794009F473CFEA81FB8192862A
:1010B000818642E064E279E0CF010E940D096AE096
:1010C00070E080E090E03AC06115710509F460CFEE
:1010D000EA81FB81708767831286118640E060E0B9
:1010E00070E033C0F1EC5F1609F45ACFB7018A8182
:1010F0009B810E946903823009F014CF83E877C096
:101100006034710509F06DC042EC541220C0EA81D0
:10111000FB8122A523FD06CF8432F9E09F0709F465
:1011200001CFEA81FB812781308532872187908733
:101130008783F501608170E080E090E00E94350CCB
:10114000EA81FB816185728542E0CF014DC0B70124
:101150008A819B810E946903182FEA81FB8180812B
:101160008823D9F182A993A99C0153E0369527954C
:101170005A95E1F7232B19F0F6013197F1F78370B7
:1011800099279C0148E552E0249FC001259F900DBE
:10119000349F900D11240E942C0CEA81FB8121A91F
:1011A000222379F030E021503109C901880F991FBD
:1011B000280F391FB10102C0660F771F2A95E2F789
:1011C00002C060E070E083E0660F771F8A95E1F768
:1011D00044E08A819B810E940D09123009F0A2CE61
:1011E0008DCF41E08A819B810E940D099BCE0F909B
:1011F0000F900F90DF91CF911F910F91FF90EF9083
:10120000DF90CF90BF90AF909F908F907F906F9026
:101210005F904F903F902F900895CF92DF92EF9282
:10122000FF920F931F93CF93DF9300D000D0CDB7E1
:10123000DEB7FC0195859B012115310561F0822FF8
:101240008770863030F483E0369527958A95E1F7EC
:10125000F3CF80E097C09154EE24E3949F3708F0D9
:10126000E12CF42E6B018F0119821A821B821C82E1
:101270007A8369834B83BE016F5F7F4FCF010E94EA
:101280009D0069817A812C814B81C8010E947F0673
:10129000F1E0FF1227C0811102C0F12C6AC08981E0
:1012A0009A818C159D0501F5EE20F1F081ECF80195
:1012B000858787819085928781879A838983FB823E
:1012C0001C82BE016F5F7F4FC8010E949D0088E0B5
:1012D000F80184AB69817A812C814B81C8010E941D
:1012E0007F0602C08823C9F289819A818C159D05E9
:1012F00019F4FF24F3943DC0FF2019F0F3E0FF122E
:10130000F8CFEE20B1F3F80182A582FF11C0418130
:1013100052816381748187A590A90E941311F801FD
:1013200082A58B7F82A760E087A590A90E94D10F3C
:10133000F80187A590A90E94D70E0E946F0C6B013F
:101340007C01C8010E944407813C99F20E946F0C05
:10135000AB01BC014C195D096E097F09F80185815B
:101360009681A0E0B0E084179507A607B70748F775
:1013700094CFF80182A582FD04C087A590A90E94A0
:10138000D70E8F2D0F900F900F900F90DF91CF9170
:101390001F910F91FF90EF90DF90CF900895EF9203
:1013A000FF920F931F93CF93DF93EC017B01BA0160
:1013B0008AA99BA9F70191838083DE01179688E0B3
:1013C00001900D928A95E1F72115310529F0A901C7
:1013D000CE010F960E944517F70162817381083391
:1013E000110561F06034710511F444E001C043E07F
:1013F0006017710709F442E0B80101C040E0CE0176
:10140000DF91CF911F910F91FF90EF900C940D09F8
:101410002F923F924F925F926F927F928F929F9204
:10142000AF92BF92CF92DF92EF92FF920F931F93F2
:10143000CF93DF93EC017B015A01690148010E94BF
:101440006F0C4BA45CA46DA47EA4DC01CB018419B9
:101450009509A609B7094997A105B10528F4CE0158
:101460000E94440787FFEBCF8CE891E00197F1F7EA
:1014700089E1C816D104B0F488E08C0D8CAB8401EE
:101480009601A501B701CE010E94CF09182F88232C
:1014900011F011E092C00E946F0C6BA77CA78DA782
:1014A0009EA78BC0E1E9CE16D10408F085C0C60125
:1014B00068E170E00E94F91521E0892B09F420E031
:1014C000C60168E170E00E94F915722E760EF701F0
:1014D000828193818034910539F08AA584608AA73E
:1014E0008FA598A90E94010EF7014680512C612C0E
:1014F00084E9282E96E9392EF7017782F1E07F12F0
:1015000004C0F7013682478208C0611003C0F701AA
:10151000268203C085E9F7018683E8E16E9EA0017B
:1015200011249601241B350B2931310510F028E1D7
:1015300030E088E0820F8CAB4A0D5B1D8401B7015F
:10154000CE010E94CF09182F81110BC062E070E01C
:1015500080E090E00E94350C5394F2E0F51560F6BF
:1015600006C07A946394772011F0512CC5CFF7010F
:1015700046828AA582FF12C049815A816B817C8193
:101580008FA598A90E941311182F8FA598A90E94C2
:10159000D70E60E08FA598A90E94D10F8AA58B7FF6
:1015A0008AA7112349F0772009F473CF0E946F0CAA
:1015B0006BA77CA78DA79EA710E0812FDF91CF910D
:1015C0001F910F91FF90EF90DF90CF90BF90AF9061
:1015D0009F908F907F906F905F904F903F902F9053
:1015E0000895CF93DF93EC01862FF894EB89FC8963
:1015F0002081442319F09989922B02C09A89922361
:101600009083789490E59CBD91E09DBDF894EF8522
:10161000F88920819E859223908378940E94780691
:10162000F894EF85F88990818D85892B8083789453
:10163000DF91CF910895833081F028F4813099F0C3
:101640008230A1F008958730A9F08830B9F0843055
:10165000D1F4809180008F7D03C0809180008F77CE
:1016600080938000089584B58F7702C084B58F7D04
:1016700084BD08958091B0008F7703C08091B00041
:101680008F7D8093B0000895CF93DF93282F30E0B3
:10169000F901E254FF4F8491F901E655FF4FD491CF
:1016A000F901EA56FF4FC491CC2391F081110E94B9
:1016B0001B0BEC2FF0E0EE0FFF1FE457FF4FA5913F
:1016C000B491EC91ED2381E090E021F480E002C040
:1016D00080E090E0DF91CF910895CF93DF9390E089
:1016E000FC01E655FF4F2491FC01EA56FF4F84911F
:1016F000882361F190E0880F991FFC01E858FF4FA3
:10170000C591D491FC01EE57FF4FA591B4916111A1
:1017100009C09FB7F8948881209582238883EC9133
:101720002E230BC0623061F49FB7F8943881822F6A
:10173000809583238883EC912E2B2C939FBF06C02A
:101740008FB7F894E8812E2B28838FBFDF91CF913C
:1017500008953FB7F8948091B6019091B701A09198
:10176000B801B091B90126B5A89B05C02F3F19F06B
:101770000196A11DB11D3FBFBA2FA92F982F882711
:10178000820F911DA11DB11DBC01CD0143E0660F6B
:10179000771F881F991F4A95D1F708950895CF9212
:1017A000DF92EF92FF920F931F93CF93DF936C0121
:1017B0007A018B01C0E0D0E0CE15DF0589F0D801B9
:1017C0006D918D01D601ED91FC910190F081E02D9C
:1017D000C6010995892B11F47E0102C02196ECCF38
:1017E000C701DF91CF911F910F91FF90EF90DF9094
:1017F000CF9008950E9440171F93CF93DF93282F17
:1018000030E0F901E254FF4F8491F901E655FF4FB2
:10181000D491F901EA56FF4FC491CC23C9F0162F99
:1018200081110E941B0BEC2FF0E0EE0FFF1FEE5713
:10183000FF4FA591B4918FB7F894111105C09C91F9
:10184000ED2FE095E92302C0EC91ED2BEC938FBFD7
:10185000DF91CF911F9108958330910528F0880F73
:10186000991F04970197F1F708958F929F92AF9275
:10187000BF92CF92DF92EF92FF926B017C010E94A8
:10188000A90B4B015C01C114D104E104F104F1F096
:101890000E94A90BDC01CB0188199909AA09BB098F
:1018A000883E9340A105B10570F321E0C21AD1082A
:1018B000E108F10888EE880E83E0981EA11CB11C97
:1018C000C114D104E104F10419F7DDCFFF90EF90CA
:1018D000DF90CF90BF90AF909F908F9008952FB7DB
:1018E000F8946091B2017091B3018091B40190912C
:1018F000B5012FBF08951F920F920FB60F921124BA
:101900002F933F938F939F93AF93BF938091B20197
:101910009091B301A091B401B091B5013091B101A2
:1019200026E0230F2D3720F40296A11DB11D05C01E
:1019300029E8230F0396A11DB11D2093B1018093C7
:10194000B2019093B301A093B401B093B50180911B
:10195000B6019091B701A091B801B091B90101967B
:10196000A11DB11D8093B6019093B701A093B8015A
:10197000B093B901BF91AF919F918F913F912F91FA
:101980000F900FBE0F901F9018951F920F920FB6D9
:101990000F9211242F933F934F935F936F937F93F5
:1019A0008F939F93AF93BF93EF93FF93E0910201C7
:1019B000F09103010995FF91EF91BF91AF919F9134
:1019C0008F917F916F915F914F913F912F910F90E8
:1019D0000FBE0F901F9018951F920F920FB60F9287
:1019E00011242F933F934F935F936F937F938F9324
:1019F0009F93AF93BF93EF93FF93E0910001F0911A
:101A000001010995FF91EF91BF91AF919F918F9146
:101A10007F916F915F914F913F912F910F900FBEEA
:101A20000F901F901895EF92FF921F93CF93DF9323
:101A30001F92CDB7DEB77C0169830E94F4046981EF
:101A4000862F0E947806182FC7010E94F104812F6B
:101A50000F90DF91CF911F91FF90EF90089561EE6D
:101A60000C94130DEF92FF921F93CF93DF9300D04E
:101A7000CDB7DEB77C014A8369830E94F404698193
:101A8000862F8F7180620E947806182F4A81842FDA
:101A90000E947806C7010E94F104812F0F900F90D9
:101AA000DF91CF911F91FF90EF900895CF92DF9239
:101AB000EF92FF920F931F93CF93DF9300D01F926B
:101AC000CDB7DEB77C01142F2A835B8369830E9424
:101AD000F4046981862F8F7180620E947806082F36
:101AE000C12E5B81D52E2A81120F1C1531F0F60113
:101AF00081916F010E947806F8CFC7010E94F1041E
:101B0000802F0F900F900F90DF91CF911F910F9129
:101B1000FF90EF90DF90CF900895EF92FF921F9388
:101B2000CF93DF931F92CDB7DEB77C0169830E940C
:101B3000F4046981862F8F710E9478068FEF0E94CE
:101B40007806182FC7010E94F104812F0F90DF91B2
:101B5000CF911F91FF90EF900895EF92FF920F9316
:101B60001F93CF938C017B0166E00E948D0DC82FDF
:101B7000C77D82E0E816F10431F4C0628BE990E0A1
:101B8000A0E0B0E00DC0EA94EF2829F085E590E0F0
:101B9000A0E0B0E005C0C86081E490E0A0E0B0E063
:101BA000F801808B918BA28BB38B4C2F66E0C80120
:101BB0000E94320D66E0C8010E948D0D91E08C13E9
:101BC00090E0892FCF911F910F91FF90EF90089592
:101BD000CF93DF93EC0160E00E948D0D81FD0EC07C
:101BE000482F426060E0CE010E94320D65E070E057
:101BF00080E090E0DF91CF910C94350CDF91CF9194
:101C00000895CF93DF93EC0160E00E94CD048889B2
:101C100099890E942C0C6DE1CE010E948D0D81FFEF
:101C200007C0888999890E942C0CCE010E942F0D33
:101C300060E0CE010E948D0D482F4E7F60E0CE0106
:101C40000E94320D62E0CE010E948D0DE2EDF0E0C7
:101C5000E49141E050E001C0440FEA95EAF7482BD7
:101C600062E0CE01DF91CF910C94320DEF92FF92A2
:101C70000F931F93CF93DF93CDB7DEB728970FB69F
:101C8000F894DEBF0FBECDBF8091BA019091BB0129
:101C90008432994059F10E946F0C8091BA01909161
:101CA000BB018432994011F11C821B8280910D018D
:101CB00090910E019C012F5F3F4F30930E012093B6
:101CC0000D019E838D838DE48F8308E310E027E070
:101CD00030E046E051E0BE016F5F7F4F8091C2016E
:101CE0009091C3010E94080A811110C084E0F82E6F
:101CF00092E8E92EFA94FF2009F442C08091BA01DB
:101D00009091BB018432994021F43AC081E090E087
:101D100041C00E94101367E18091C0019091C10100
:101D20000E948D0D81FD34C08091C2019091C3014C
:101D3000FC0122A520FD2CC01C821B8220910D01DC
:101D400030910E01A9014F5F5F4F50930E014093F8
:101D50000D013E832D83EF8208E310E020E030E0A8
:101D600040E050E0BE016F5F7F4F0E94080A811182
:101D70000FC067E670E080E090E00E94350CBACFBB
:101D80008091C0019091C1010E94010E0E946311D7
:101D900080E090E028960FB6F894DEBF0FBECDBF6E
:101DA000DF91CF911F910F91FF90EF900895CF9306
:101DB000DF93EC010E94E80D60E0CE010E948D0DE2
:101DC000482F416060E0CE010E94320D40E767E09D
:101DD000CE010E94320D61E0CE010E94CD048985C2
:101DE000882349F02E85AE01475F5F4F6AE0CE0140
:101DF0000E94560D14C062E0CE010E948D0DE2EDEE
:101E0000F0E0E49121E030E001C0220FEA95EAF72A
:101E10002095422F482362E0CE010E94320D6DE1F1
:101E2000CE010E948D0D81FF05C0CE01DF91CF91C3
:101E30000C942F0DDF91CF9108951F93CF93DF93D3
:101E4000EC01888199812A813B818217930719F0DF
:101E500061E00E946D0B8A819B812881398128175E
:101E6000390719F061E00E946D0B1FB7F89480915B
:101E7000AC01811127C0E0EAF0E08491E4EBF0E0EE
:101E80009491E82FF0E0EE0FFF1FE858FF4FA59167
:101E9000B491EC91E92321F461E08AE00E94FC0B0B
:101EA00061E08AE00E946D0B8CB580618CBD8CB5C1
:101EB00080648CBD61E08DE00E946D0B61E08BE081
:101EC0000E946D0B8091AC018F5F8093AC011FBFAE
:101ED00060E0CE010E94CD0461E0CE010E94D904F1
:101EE00065E070E080E090E00E94350C4CE060E03E
:101EF000CE010E94320D4FE564E0CE010E94320D0A
:101F000062E070E0CE010E94AD0D882311F081E007
:101F10008E8366E0CE010E948D0D182F60E070E088
:101F2000CE010E94AD0DCE010E94F40480E50E9416
:101F3000780683E70E947806CE010E94F10440E013
:101F40006DE1CE010E94320D40E06CE1CE010E94B5
:101F5000320D188640E767E0CE010E94320D4CE456
:101F600065E0CE010E94320D62EECE010E94130D9B
:101F7000CE010E942F0DCE010E94E80D60E0CE013F
:101F80000E948D0D482F4E7F60E0CE010E94320DE1
:101F9000115081E01E3F08F080E0DF91CF911F914A
:101FA00008951F93CF93DF93EC01162F61E00E94F9
:101FB0008D0D482F112311F0416001C04E7F61E06B
:101FC000CE01DF91CF911F910C94320D7F928F92B1
:101FD0009F92AF92BF92CF92DF92EF92FF920F93B8
:101FE0001F93CF93DF93CDB7DEB728970FB6F89442
:101FF000DEBF0FBECDBFFC019B012115310559F09D
:10200000822F8770863008F0FAC0A3E036952795B6
:10201000AA95E1F7F2CF62AB73AB87A590A9DC017B
:102020002D913C912F3F310509F4E9C0DC01129656
:102030002D913C9113972F3F310509F4E0C0E72E15
:10204000F62E8F0160E00E94D10FF801C7A4D0A83E
:102050006DE1C6010E948D0D482F44606DE1C601FF
:102060000E94320D6CE1C6010E948D0D482F4F6316
:102070006CE1C6010E94320D81E0D60118968C9366
:10208000F80182A993A966E070E00E94F915482F33
:10209000440F4B5FF0E14F9FA0011124456064E0C5
:1020A000D8019F968D919C91D0970E94320D89E125
:1020B00090E0A0E0B0E0F80181839283A383B48331
:1020C0008BE490E09683858382A993A940E02FEF6B
:1020D0003FEFB90168237923672B39F073E0220FB2
:1020E000331F7A95E1F74F5FF4CFF80141AB2095AC
:1020F0003095E059FE4F3183208363E03695279574
:102100006A95E1F73397A901482359235183408306
:102110002115310559F043E0969587954A95E1F7E9
:1021200053E0369527955A95E1F7F2CFF801E1593A
:10213000FE4F808386E0782E88248394912C7A94B5
:10214000FFEF7F1609F454C0672D8F2D9E2D0E943E
:10215000F704D8019F96CD90DC90D09729833A83DD
:102160004B835C836D837E838F839887A72CB12CF0
:1021700071100BC0F601468550E0BE016F5F7F4FC6
:10218000C60109960E94451703C0F1E07F1208C0FE
:10219000F501E252FF4F6491D6011E962C9105C0C5
:1021A000F501E252FF4F649121E0AE014F5F5F4FB6
:1021B000C6010E94560DF501E852FF4F6491F601E9
:1021C0004781C6010E94320D62E0C6010E948D0D5A
:1021D000F501EE52FF4FE491940101C0220FEA9500
:1021E000EAF7482F422B62E0C6010E94320DA7CFCA
:1021F000D8019F968D919C91D0970E94D70E2896DA
:102200000FB6F894DEBF0FBECDBFDF91CF911F9107
:102210000F91FF90EF90DF90CF90BF90AF909F9085
:102220008F907F9008958F929F92AF92BF92CF929E
:10223000DF92EF92FF92CF93DF93EC014A015B01B3
:102240000E946F0C6B017C0167E1CE010E948D0D35
:1022500084FD29C06FEFCE010E94130D84FFF4CFDF
:1022600040E167E0CE010E94320D60E0CE010E94A5
:10227000CD0461E0CE010E94CD040E946F0CDC0110
:10228000CB018C199D09AE09BF0988159905AA05CE
:10229000BB05D0F260E0CE010E94CD04CE010E94C9
:1022A0002F0D80E005C060E0CE010E94CD0481E0EA
:1022B000DF91CF91FF90EF90DF90CF90BF90AF90E4
:1022C0009F908F9008952F923F924F925F926F92BE
:1022D0007F928F929F92AF92BF92CF92DF92EF92B6
:1022E000FF920F931F93CF93DF93CDB7DEB7619724
:1022F0000FB6F894DEBF0FBECDBF67E18091C0017D
:102300009091C1010E948D0D80FD03C080E090E09E
:102310006EC18091C0019091C1010E94010EE091B7
:10232000C201F091C30182A5826082A76AE070E0D9
:1023300080E090E00E94350C64E279E08091C20177
:102340009091C3010E94E60F84E299E09093BB0153
:102350008093BA010E946F0C2B013C01C12CE12C2F
:1023600090E4292E312C3C862B8680910D01909192
:102370000E019C012F5F3F4F30930E0120930D0102
:102380009E878D8782EC8F878091C2019091C301D7
:10239000FC0122A933A93A872987EE2089F02E2D46
:1023A00030E021503109A901440F551F240F351F7A
:1023B00001E010E002C0000F111F2A95E2F702C0F1
:1023C00000E010E020E030E040E050E0BE01675F58
:1023D0007F4F0E94080A0E946F0C4B015C01F12C98
:1023E0008091C2019091C3010E944407823C89F40C
:1023F000FE013196EF0DF11DEF0DF11DA091C2010F
:10240000B091C30117968D919C9118979183808309
:10241000F3940E946F0CDC01CB0188199909AA0979
:10242000BB09C897A105B10520F4F3E0FF15C0F67C
:1024300033C0F11031C00E946F0CDC01CB01841954
:102440009509A609B70981369A4EA105B10508F08C
:102450005DCF2C2D30E02F5F3F4F8E2D90E0019609
:10246000289FB001299F700D389F700D1124675E61
:102470007F4F660F771F072E000C880B990B0E9469
:10248000350C81E08E0D8370E82E81E08C0D6AE0C2
:102490000E94ED15C92E67CFD12C198ADF1408F0E0
:1024A0003FC023EC2F878091BC01888BFE013196C1
:1024B000ED0DF11DED0DF11D008111811C870B87C4
:1024C00020E030E040E050E0BE01675F7F4F809148
:1024D000C2019091C3010E94080A0E946F0C4B0137
:1024E0005C010E946F0CDC01CB0188199909AA09D3
:1024F000BB09813E9105A105B10550F48091C2014F
:102500009091C3010E944407898B803851F7DF2CDA
:1025100065E070E080E090E00E94350CD394BECF7F
:102520008989803809F087CFE091C201F091C30119
:1025300087859089009709F47ECF36852091BC016C
:10254000321379CF9093BB018093BA018091C0017F
:102550009091C1010E94010E6AE070E080E090E07D
:102560000E94350C6091BA017091BB018091C2014B
:102570009091C3010E94E60F1C861B86E1E8EF875D
:1025800087E0F82E08E310E020E030E040E050E083
:10259000BE01675F7F4F8091C2019091C3010E948D
:1025A000080A811119C0FA94F1100FC064E279E0B1
:1025B0008091C2019091C3010E94E60F84E299E0EC
:1025C0009093BB018093BA0136CF63E070E080E066
:1025D00090E00E94350CD6CFE091C201F091C3018A
:1025E00082A58D7F82A78091BA019091BB016196EF
:1025F0000FB6F894DEBF0FBECDBFDF91CF911F9114
:102600000F91FF90EF90DF90CF90BF90AF909F9091
:102610008F907F906F905F904F903F902F90089594
:102620008F929F92AF92BF92DF92EF92FF920F93A1
:102630001F93CF93DF93CDB7DEB72A970FB6F894E9
:10264000DEBF0FBECDBF8091C2019091C3010E9439
:102650004407D82E8091BA019091BB01843229E0C1
:10266000920709F4E2C033ECD31203C021E02093B7
:10267000C4012091BC012111D8C02D2D2D7F243CF7
:1026800009F0B0C0E091C201F091C3017F01A7E061
:10269000EA0EF11C27813085328721872785B4EC2B
:1026A000DB1228C04091BF018091BD019091BE0115
:1026B00030E0341789F05C010396BC016350710966
:1026C000DB015C91521306C0D50111968D919C914E
:1026D000129704C03F5FEDCF8FEF9FEF9A838983FE
:1026E00008E310E022E030E0AE014F5F5F4FB7013A
:1026F000CF0175C030E03A8729872115310509F4EB
:102700005EC0892BC1F45091BF018091BD019091B1
:10271000BE0140E0451709F44FC0FC010396DC01FF
:1027200012976D917C916217730719F4208130E044
:1027300048C04F5FEFCF1C821B8280910D019091AA
:102740000E019C012F5F3F4F30930E0120930D012E
:102750009E838D8386EC8F8308E310E022E030E0D7
:10276000AE01475F5F4FBE016F5F7F4FCF010E9499
:10277000080A882309F10E946F0C4B015C018091CB
:10278000C2019091C3010E944407863C71F00E94EF
:102790006F0CDC01CB0188199909AA09BB09853F97
:1027A0009140A105B10558F307C0E091C201F09135
:1027B000C3012785308905C02FEF3FEF02C020E01D
:1027C00030E03A83298308E310E022E030E0AE01F4
:1027D0004F5F5F4FB7018091C2019091C3010E948A
:1027E000080A23C035ECD31220C0A091C201B091D9
:1027F000C3012091BD013091BE0180E09091BF01E5
:10280000891798F4F90193E0899FE00DF11D1124D7
:102810006181728117964D915C91189764177507C5
:1028200011F4128211828F5FE9CF8D2D2A960FB697
:10283000F894DEBF0FBECDBFDF91CF911F910F91F6
:10284000FF90EF90DF90BF90AF909F908F90089592
:10285000CF93DF93CDB7DEB728970FB6F894DEBFDE
:102860000FBECDBF789484B5826084BD84B581608D
:1028700084BD85B5826085BD85B5816085BD80914B
:102880006E00816080936E001092810080918100C3
:1028900082608093810080918100816080938100BB
:1028A000809180008160809380008091B10084607D
:1028B0008093B1008091B00081608093B0008091DE
:1028C0007A00846080937A0080917A00826080939D
:1028D0007A0080917A008E7F80937A0080917A00CE
:1028E000806880937A001092C10010927A0060E0B4
:1028F00083E00E946D0B81E693E090930301809347
:10290000020180916900837F846080936900E99A65
:1029100084E493E00E941D0F66E084E493E00E944B
:102920008D0D887F482F456066E084E493E00E9427
:10293000320D60E070E084E493E00E94AD0D83E02E
:102940008093BC018091C0019091C1010E941D0F34
:1029500081E68093CD0141E665E08091C0019091D0
:10296000C1010E94320D60E070E08091C001909141
:10297000C1010E94AD0D0091C2011091C30181E01F
:10298000F80181A78091BC01882349F084E299E095
:102990009093BB018093BA010E94631113C086E03B
:1029A00090E00E9413169093BE018093BD01109297
:1029B000BF011092BB011092BA0160E070E0C80143
:1029C0000E94E60F83E00E94440B9093B001809335
:1029D000AF01019711F481E301C080E380930A0104
:1029E0000E94360E892B89F464EF71E080E090E05C
:1029F0000E94350C809104019091050101979093FC
:102A0000050180930401892B59F726EFE22EFF245C
:102A1000FA943AE9C32ED12C40E0A42E40E0B42E23
:102A20005CE3852E912C80E3582E91E3492E0E9481
:102A300010138091AB01882309F459C083E00E94F0
:102A4000440B9093B0018093AF012091AD01309180
:102A5000AE018217930719F41092AB0148C090930E
:102A6000AE018093AD01019719F440920A0102C0B2
:102A700050920A0190920501809204010E94360E44
:102A8000892B51F764EF71E080E090E00E94350CF3
:102A90008091040190910501019790930501809325
:102AA0000401892B59F7D8CF00910F021091100221
:102AB000A8010930110510F048E050E061E172E032
:102AC000CE0101960E944517C701801B910B680E2D
:102AD000791E7092A2026092A102A601401B510BC6
:102AE000B8016F5E7D4F87E092E00E944E176090C4
:102AF000A1027090A202F7E06F16F2E07F0609F0E3
:102B000098F6A114B10409F492CF0E9400008BCF73
:102B1000CF93DF93ECE5F3E01382128288EE93E02B
:102B2000A0E0B0E084839583A683B78380E291E040
:102B300091838083E8E6F3E01382128281E081874B
:102B40001486138682E391E091838083E4E4F3E0CA
:102B50008AE090E09183808385E090E09383828394
:102B6000168280E28783108685E0868785E090E084
:102B7000A0E0B0E0848B958BA68BB78B1186A2ED7D
:102B8000B1E0D096FC93EE939F9787E092E090930C
:102B9000A2028093A1028FEA92E09093AE0280930A
:102BA000AD0283EA92E098969C938E9397979B96BA
:102BB0001D921D921D921C929E979A961C929A9716
:102BC00099961C9299971C92CAEBD1E0FF83EE83F1
:102BD000B987A887DF91CF910895991B79E004C048
:102BE000991F961708F0961B881F7A95C9F780954C
:102BF0000895AA1BBB1B51E107C0AA1FBB1FA61744
:102C0000B70710F0A61BB70B881F991F5A95A9F795
:102C100080959095BC01CD010895EE0FFF1F0590A2
:102C2000F491E02D0994CF93DF938230910510F455
:102C300082E090E0E0917F03F091800320E030E0BB
:102C4000C0E0D0E0309711F1408151814817590719
:102C5000C0F04817590761F482819381209719F0D9
:102C60009B838A832BC09093800380937F0326C02D
:102C70002115310519F04217530718F49A01BE01C6
:102C8000DF01EF010280F381E02DDCCF211531055A
:102C900009F1281B390B2430310590F412968D91DF
:102CA0009C9113976115710521F0FB019383828339
:102CB00004C09093800380937F03FD01329644C04B
:102CC000FD01E20FF31F81939193225031092D935F
:102CD0003C933AC020917D0330917E03232B41F435
:102CE000209111013091120130937E0320937D03D6
:102CF00020910F01309110012115310541F42DB7BC
:102D00003EB74091130150911401241B350BE09103
:102D10007D03F0917E03E217F307A0F42E1B3F0B17
:102D20002817390778F0AC014E5F5F4F241735073D
:102D300048F04E0F5F1F50937E0340937D038193B5
:102D4000919302C0E0E0F0E0CF01DF91CF910895D0
:102D50000F931F93CF93DF93009709F48CC0FC016E
:102D600032971382128200917F0310918003011524
:102D7000110581F420813181820F931F20917D0301
:102D800030917E032817390779F5F0937E03E0939D
:102D90007D0371C0D80140E050E0AE17BF0750F48A
:102DA00012962D913C911397AD012115310509F132
:102DB000D901F3CF9D01DA013383228360817181D0
:102DC000860F971F8217930769F4EC0128813981D8
:102DD000260F371F2E5F3F4F318320838A819B81CF
:102DE00093838283452B29F4F0938003E0937F0340
:102DF00042C01396FC93EE931297ED0149915991BD
:102E00009E01240F351FE217F30771F48081918131
:102E1000840F951F029611969C938E9382819381C5
:102E200013969C938E931297E0E0F0E0D8011296EF
:102E30008D919C911397009719F0F8018C01F6CFB2
:102E40008D919C9198012E5F3F4F820F931F20918F
:102E50007D0330917E032817390769F4309729F4F0
:102E60001092800310927F0302C01382128210938B
:102E70007E0300937D03DF91CF911F910F91089501
:102E800081E090E0F8940C946017FB01DC0102C033
:102E900001900D9241505040D8F708956817790776
:102EA00068F4FB01DC01E40FF51FA40FB51F02C09D
:102EB00002900E9241505040D8F708950C94451757
:042EC000F894FFCFB4
:102EC400CE0BCE0B3C003030332D300A0001000015
:102ED4000081038000C33C33CE3EE3EC00000000DD
:102EE40050033C036603FC0203030003FD020000DD
:0C2EF40000003E01CF0B66036503F10AED
:00000001FF
