:100000000C9483010C9490150C9469150C94AB011D
:100010000C94AB010C94AB010C94AB010C94AB01B0
:100020000C94AB010C94AB010C94AB010C94AB01A0
:100030000C94AB010C94AB010C94AB010C94AB0190
:100040000C941F150C94AB010C94DA0E0C94B40EA6
:100050000C94AB010C94AB010C94AB010C94AB0170
:100060000C94CC050C94AB0100030C0F30333C3FD7
:10007000C0C3CCCFF0F3FCFF000000002500280037
:100080002B00040404040404040402020202020219
:10009000030303030303010204081020408001024C
:1000A00004081020010204081020000000080002CB
:1000B0000100000304070000000000000000000130
:1000C000020304051112131415160A0B0C0D0E0F62
:1000D000AED580A83FD300408D142002A1C8DA120B
:1000E000817FD9F1DB40A4A6AF57616974696E675F
:1000F0002E2E005374617274696E672E2E000000FC
:1001000005072061000000000000005F00000007FC
:10011000000700147F147F14242A7F2A1223130857
:10012000646236495522500005030000001C22413C
:10013000000041221C00082A1C2A0808083E080862
:100140000050300000080808080800606000002027
:10015000100804023E5149453E00427F4000426182
:100160005149462141454B311814127F102745450E
:1001700045393C4A49493001710905033649494925
:1001800036064949291E0036360000005636000062
:1001900000081422411414141414412214080002FB
:1001A00001510906324979413E7E1111117E7F4984
:1001B0004949363E414141227F4141221C7F494904
:1001C00049417F090901013E414151327F08080838
:1001D0007F00417F41002040413F017F08142241C0
:1001E0007F404040407F0204027F7F0408107F3E32
:1001F0004141413E7F090909063E4151215E7F0987
:10020000192946464949493101017F01013F4040D2
:10021000403F1F2040201F7F2018207F63140814B8
:10022000630304780403615149454300007F414161
:10023000020408102041417F000004020102044032
:1002400040404040000102040020545454787F484C
:100250004444383844444420384444487F38545453
:100260005418087E090102081454543C7F08040401
:100270007800447D40002040443D00007F10284429
:1002800000417F40007C041804787C08040478381E
:10029000444444387C14141408081414187C7C0852
:1002A0000404084854545420043F4440203C404037
:1002B000207C1C2040201C3C4030403C442810281E
:1002C000440C5050503C4464544C440008364100A7
:1002D00000007F0000004136080008082A1C0808BA
:1002E0001C2A08080006090906D0001980400000F1
:1002F0000000002300260029000000000024002741
:10030000002A0000291611241FBECFEFD8E0DEBF5F
:10031000CDBF24E0A0EDB1E001C01D92A23BB20729
:10032000E1F711E0A0E0B1E0E0EFF6E302C00590F4
:100330000D92A03DB107D9F711E0C3E8D1E004C0A8
:100340002197FE010E94231AC238D107C9F70E94E3
:10035000B6160C94761B0C940000CF93DF93EC013F
:100360009C818E81981758F4E881F9810084F18589
:10037000E02D42E0CE0109958C818F5F8C83DF9167
:10038000CF91089508958FEF9FEF08958FEF9FEF1E
:10039000089580913E0290E091958195910908958C
:1003A00085ED8093BC008091BC0084FDFCCF109251
:1003B000180208954091F201262F30E0240F311DDC
:1003C00021323105DCF4209118022430C9F4FC01FB
:1003D00080E090E0861758F43091F2012191DC0121
:1003E000A053BE4FA30FB11D2C930196F3CF809164
:1003F000F201680F6093F20180E0089581E00895B2
:1004000082E00895CF93DF9300D0CDB7DEB7CB0164
:10041000642F49835A830E94DA014981842F5A81CB
:10042000952F0F900F90DF91CF910895CF93DF9389
:100430001F92CDB7DEB7698361E0CE0101960E94BD
:10044000DA0181E090E00F90DF91CF91089581E093
:100450008093A0040895089580E090E008958F921D
:100460009F92AF92BF92CF92DF92EF92FF920F9343
:100470001F93CF93DF93EC017B01CCA8D12C860195
:1004800008501109DB0116969C918CE6890F833088
:1004900020F0983C09F0CFC003C0943909F4E4C0BF
:1004A0008BE6890F823018F0983C09F08EC06E01FF
:1004B00059EDC50ED11CD6012D913C91A801420FDA
:1004C000531F4139510520F0C852DF4F1882B1C087
:1004D0005E01B8EDAB0EB11CF5018081882309F4F3
:1004E00015C1963929F0D70117969C919813A1C090
:1004F000FE01EB52FF4F40815181F70184819581CC
:100500004817590709F095C04E01FBED8F0E911C5D
:10051000D4018D919C91A801BE01615F7F4F820F34
:10052000931F0E945B1BF60180819181080F191FA8
:1005300011830083D70116968C91863929F0F50135
:1005400080818150808373C0D5011C92F70187811F
:10055000FE01E952FF4F8083833809F483C07E0196
:10056000FFECEF0EF11CF701A081B181CE018A1BD7
:100570009B0B8B539F4F80179107F8F032968AE0C0
:1005800001900D928A95E1F7D7018D919C91F4012C
:1005900060817181D6014D915C910A960E945B1B2E
:1005A000F601808191810A96D7012D913C91119796
:1005B000820F931F8D939C933AC08FA598A90E9498
:1005C0000C108AA581608AA734C07E01BFECEB0EB7
:1005D000F11CF701A081B181CE01C5969D01281BB8
:1005E000390BC901800F911F8B39910510F5E85C1B
:1005F000F10988E001900D928A95E1F7D701ED911C
:10060000FC911197118700878D919C91BE01615FCC
:100610007F4FA8010A960E945B1BB2E0CB0ED11C53
:10062000F70180819181C80ED91ED182C08281E0FC
:100630006DC080E06BC0933841F6DE01AF52BF4F12
:10064000FE01379688E001900D928A95E1F7FE0150
:10065000E552FF4FCE010F9691838083C752DF4F43
:100660001983088382E052C0F7018781873008F040
:100670002BCFFE01EB52FF4F40815181D7011496E1
:100680002D913C91159734976F014217530739F418
:10069000408151812D913C914217530741F2F8E17D
:1006A0008F9FC0011124FE01E153FF4F2081318152
:1006B000AE01421B530B9A012B533F4F28173907AA
:1006C0003CF48AA581608AA78FA598A90E940C1086
:1006D000FE01379688E0D60101900D928A95E1F7E8
:1006E000FE01E552FF4FBE01615F7F4FA80180818F
:1006F00091810E945B1BFE01E752FF4F1183008333
:10070000C852DF4F88818150888391CFDF91CF918C
:100710001F910F91FF90EF90DF90CF90BF90AF901F
:100720009F908F900895DC01ED91FC910084F185FC
:10073000E02D40E009940F931F93CF938C01FC01AF
:1007400064839085C62FC90F6C2F6F70C8010E94FB
:1007500093036C2F62956F706061C801CF911F91F8
:100760000F910C9493030F931F93CF93DF931F92DA
:10077000CDB7DEB78C01FC018681681728F4C8016B
:1007800049830E949B034981F8018781869586955C
:100790008695481758F44583642F606BC8010F9005
:1007A000DF91CF911F910F910C9493030F90DF91E4
:1007B000CF911F910F910895CF92DF92EF92FF9208
:1007C0000F931F93CF93DF93EC01F62EC42ED22EFE
:1007D0008F81869586958695081710F00FEF080F84
:1007E0001D2D011780F0412F6F2DCE010E94B30304
:1007F000EF2CCE1430F060E0CE010E94AD01E39406
:10080000F8CF1F5FEECF4D2D6F2DCE01DF91CF9131
:100810001F910F91FF90EF90DF90CF900C94B30356
:100820002F923F924F925F926F927F928F929F9200
:10083000AF92BF92CF92DF92EF92FF920F931F93EE
:10084000CF93DF93CDB7DEB727970FB6F894DEBF0F
:100850000FBECDBFDC011B960D911C911C9701159D
:10086000110509F462C19F838E83F801B49131961A
:100870004491319654903196A491EA2EF12CF7E0F0
:10088000EF0EF11C23E0F594E7942A95E1F7EB8253
:10089000F801349674913196E491671758F0862FD9
:1008A00090E02E2F30E0F901E70FF11D8E179F0722
:1008B0000CF473C06D3069F4AE81BF8116968C91D3
:1008C000882309F467C060E08E819F810E949B03AA
:1008D00061C06A3009F029C1EE81FF81818565819F
:1008E000D62E8E9DD00C112487818695869586956F
:1008F000D81630F08285882319F082E08287D12CC7
:100900004D2D60E08E819F810E94B303AE81BF8137
:100910001A968C911A97823008F43CC015962C9147
:1009200015971B96ED91FC911C97309741F03396EB
:10093000E49119960C91E09FE02D112401C0E0E0B4
:100940008FEF820F0E2F10E0095F1F4F93E0159578
:1009500007959A95E1F7080FEE81FF814681415096
:100960006481CF010E94DC03AE81BF8119968C9116
:1009700019976D2D8E9D600D1124660F660F660F01
:1009800017968C91861708F460E060648E819F81D1
:100990000E94930381E090E0CAC050E05B2BC80145
:1009A0000696671BEE81FF81F185F9834230510580
:1009B00088F4452B09F019825E9C90015F9C300DF4
:1009C0001124629F8001639F100D1124080F191FCD
:1009D000412C24C0EA2FE77021F048E0442E4E1A43
:1009E00001C0412CA82FFC0140E050E07E2F7A1B73
:1009F000761728F47491470F511D3196F7CFFC01FB
:100A0000E60FF11D54904E9D80014F9D100D5E9D8F
:100A1000100D1124020F131F080F191FAE81BF8183
:100A20001496BC91BC83EE81FF813580652C712CBE
:100A3000CC24C394D12C812C912C7FEF7C0D7A8314
:100A40008B81781708F05FC0212CAE81BF81199689
:100A50008C91281608F051C07A81711102C02220B1
:100A600051F0AE81BF8115964C9115974F5F6C8107
:100A7000CD010E94B303A12CB12CA51488F5F5017A
:100A8000E80DF91DE00FF11F2491442061F0CE1410
:100A9000DF0449F4E22FF0E0042C02C0F595E7955D
:100AA0000A94E2F72E2FEE81FF818185823079F45E
:100AB000E22F2110E295EF70F0E0E859FF4F24910A
:100AC000622F8E819F812D830E94AD012D81622F27
:100AD0008E819F810E94AD01FFEFAF1ABF0ACDCF7B
:100AE000B12C7981B71639F060E08E819F810E9428
:100AF000AD01B394F6CF2394A8CF860C971CBFEF1B
:100B0000CB1ADB0A9ACFAE81BF8117968C911797CB
:100B1000869586958695381608F03CCF15963C92BA
:100B20001597632D606BCD0133CF80E090E0279661
:100B30000FB6F894DEBF0FBECDBFDF91CF911F91EE
:100B40000F91FF90EF90DF90CF90BF90AF909F906C
:100B50008F907F906F905F904F903F902F9008956F
:100B60000F93CF93DF93EC010F81069506950695C1
:100B700001504E81415020E060E00E94DC0381E0A2
:100B80009A85911101C080E08A8760E4CE01DF91EF
:100B9000CF910F910C9493031F920F920FB60F9267
:100BA00011242F933F934F935F936F937F938F9372
:100BB0009F93AF93BF93EF93FF938091B900887F8A
:100BC000803609F49CC068F5883209F45BC090F463
:100BD000803109F454C038F4882309F4F6C0883011
:100BE00009F44DC0F6C0883109F44CC0803209F4D4
:100BF0005DC0EFC0803409F468C048F4803309F464
:100C000055C0883309F0E5C080931702D8C08035FD
:100C100009F44FC0883509F45DC0883409F0D9C0A3
:100C2000D6C0883909F4C7C0A8F4883709F467C06A
:100C300038F4883609F463C0803709F460C0C9C04D
:100C4000883809F4B8C0803909F45FC0803809F0E9
:100C5000C0C05BC0803B09F486C038F4803A09F418
:100C600066C0883A09F47FC0B4C0803C09F4A7C0CC
:100C7000883C09F4A4C0883B09F48AC0AAC08091CA
:100C80003D0210C090913C0280913B02981770F594
:100C9000E0913C0281E08E0F80933C02F0E0E55E43
:100CA000FD4F80818093BB0085EC86C08093170246
:100CB0008EC0E0913C0281E08E0F80933C028091D7
:100CC000BB00F0E0E55EFD4F808390913C02809197
:100CD0003B026EC0E0913C0281E08E0F80933C02AB
:100CE0008091BB00F0E0E55EFD4F808380911A02A9
:100CF00081116DC081E08093190284EA61C083E0B4
:100D00008093180210921602CFCF80911602803283
:100D100008F051C0E091160281E08E0F8093160218
:100D20008091BB00F0E0EA50FE4F8083BDCF85ECA0
:100D30008093BC001092180280911602803230F429
:100D4000E0911602F0E0EA50FE4F10826091160228
:100D500070E0E091F401F091F50186EF91E00995E2
:100D60001092160236C084E0809318021092F301AC
:100D70001092F201E091F001F091F101099580915A
:100D8000F201811105C081E08093F2011092D0013F
:100D9000E091F30181E08E0F8093F301F0E0E053E6
:100DA000FE4F80818093BB009091F3018091F2010E
:100DB000981708F479CF85E88093BC000AC085ECC9
:100DC0008093BC001092180204C0109217020E9477
:100DD000D001FF91EF91BF91AF919F918F917F9142
:100DE0006F915F914F913F912F910F900FBE0F9098
:100DF0001F901895DC01862F262F30E0F901EE5761
:100E0000FF4FE491F0E0EE0FFF1FE858FF4F4591D0
:100E1000549113965C934E931297F901EA56FF4F43
:100E2000E491EC93E0951196EC9361E00C949414AA
:100E30008EBD00000DB407FEFDCF8EB508953F9224
:100E40004F925F926F927F928F929F92AF92BF92DA
:100E5000CF92DF92EF92FF920F931F93CF93DF9386
:100E6000EC019AA5892F827091FD17C0FE01E15314
:100E7000FF4FAE014B5C5F4F90FD07C02081318179
:100E8000241B350B2937310544F02081318142176D
:100E9000530708F429C19E7F9AA78E01095F1F4F4F
:100EA000502EEE24E394F12C6E0181E9C81A8EEFE6
:100EB000D80A74E2A72E79E0B72E8FA498A8F4017F
:100EC000808191818F3F910511F480E00DC1F40183
:100ED000828193818F3F9105C1F367E1C4010E9434
:100EE0008C0F982F9170792E80FDEFCF6FEFC4019A
:100EF0000E94120F8FA498A8C4010E940F0F80E6D1
:100F00000E9418078FEF0E941807682EC4010E94E4
:100F10000C0FF0E2F61508F056C062EEC4010E9414
:100F2000120F62E070E080E090E00E94D9147CAA89
:100F300097E0971538F06AE070E080E090E00E945A
:100F4000D914BBCF8FA498A8F4018781472C8715AB
:100F500008F4482EF4019085911103C0382E3418FE
:100F600001C0312CC4010E940F0F81E60E941807B6
:100F70003801450C461439F08FEF0E941807F30131
:100F800081933F01F7CF732C772029F08FEF0E94D8
:100F900018077A94F9CFC4010E940C0F40E767E06C
:100FA000C4010E94310F69857A85CB01009769F0F1
:100FB000282F2770263008F080CF53E0969587952C
:100FC0005A95E1F7F3CF762CB2CF8D852AA93BA9AC
:100FD00062177307E1F5823809F46FCF803881F426
:100FE00064327940D1F0BA86A98642E064E279E0C1
:100FF000CE010E9453126AE070E080E090E040C0B1
:10100000833C59F46115710541F078876F831A8626
:10101000198640E060E070E063C099A5992319F05B
:1010200087FF0CC002C0813C49F49CE6980F9330C6
:1010300028F0883C19F0833809F056C0B801CE0179
:101040000E942F02823009F038CF83E84DC060340F
:10105000710509F044C0823CC9F48AA583FD2DCFF7
:10106000243289E0380709F428CF8F8198859A8740
:10107000898738872F83F601608170E080E090E0F7
:101080000E94D91469857A8542E02AC0B801CE0150
:101090000E942F02982E88818823E9F029A9222313
:1010A00079F030E021503109C901880F991F280FCC
:1010B000391FB70102C0660F771F2A95E2F702C0F9
:1010C00060E070E083E0660F771F8A95E1F744E007
:1010D000CE010E945312F2E09F12EFCEB6CF41E054
:1010E000CE010E945312E9CEDF91CF911F910F9153
:1010F000FF90EF90DF90CF90BF90AF909F908F9038
:101100007F906F905F904F903F900895CF93DF93C3
:10111000EC01862FF894EB89FC892081442319F097
:101120009989922B02C09A8992239083789490E5B2
:101130009CBD91E09DBDF894EF85F88920819E8546
:101140009223908378940E941807F894EF85F88989
:1011500090818D85892B80837894DF91CF9108953C
:101160001F93CF93DF93EC01162F61E00E948C0F49
:10117000482F112311F0416001C04E7F61E0CE0184
:10118000DF91CF911F910C94310F7F928F929F929C
:10119000AF92BF92CF92DF92EF92FF920F931F9385
:1011A000CF93DF93CDB7DEB728970FB6F894DEBFA5
:1011B0000FBECDBFFC019B012115310559F0822FD7
:1011C0008770863008F0FAC0A3E036952795AA9577
:1011D000E1F7F2CF62AB73AB87A590A9DC012D914B
:1011E0003C912F3F310509F4E9C0DC0112962D91A5
:1011F0003C9113972F3F310509F4E0C0E72EF62EFE
:101200008F0160E00E94B008F801C7A4D0A86DE18A
:10121000C6010E948C0F482F44606DE1C6010E94F8
:10122000310F6CE1C6010E948C0F482F4F636CE1B7
:10123000C6010E94310F81E0D60118968C93F80107
:1012400082A993A966E070E00E94ED19482F440F2F
:101250004B5FF0E14F9FA0011124456064E0D8018D
:101260009F968D919C91D0970E94310F89E190E0DB
:10127000A0E0B0E0F80181839283A383B4838BE480
:1012800090E09683858382A993A940E02FEF3FEFFA
:10129000B90168237923672B39F073E0220F331FDC
:1012A0007A95E1F74F5FF4CFF80141AB2095309587
:1012B000E059FE4F3183208363E0369527956A9588
:1012C000E1F73397A901482359235183408321151E
:1012D000310559F043E0969587954A95E1F753E03B
:1012E000369527955A95E1F7F2CFF801E159FE4F6F
:1012F000808386E0782E88248394912C7A94FFEF63
:101300007F1609F454C0672D8F2D9E2D0E943B112E
:10131000D8019F96CD90DC90D09729833A834B8358
:101320005C836D837E838F839887A72CB12C71108B
:101330000BC0F601468550E0BE016F5F7F4FC601CE
:1013400009960E945B1B03C0F1E07F1208C0F50103
:10135000E653FF4F6491D6011E962C9105C0F5010E
:10136000E653FF4F649121E0AE014F5F5F4FC6012E
:101370000E94550FF501EC53FF4F6491F601478130
:10138000C6010E94310F62E0C6010E948C0FF50178
:10139000E254FF4FE491940101C0220FEA95EAF76D
:1013A000482F422B62E0C6010E94310FA7CFD8011F
:1013B0009F968D919C91D0970E94411028960FB6D0
:1013C000F894DEBF0FBECDBFDF91CF911F910F917B
:1013D000FF90EF90DF90CF90BF90AF909F908F9055
:1013E0007F9008958F929F92AF92BF92CF92DF929B
:1013F000EF92FF92CF93DF93EC014A015B010E94D1
:1014000013156B017C0167E1CE010E948C0F84FDF6
:1014100029C06FEFCE010E94120F84FFF4CF40E18C
:1014200067E0CE010E94310F60E0CE010E94001003
:1014300061E0CE010E9400100E941315DC01CB0177
:101440008C199D09AE09BF0988159905AA05BB0528
:10145000D0F260E0CE010E940010CE010E942E0F5B
:1014600080E005C060E0CE010E94001081E0DF91C5
:10147000CF91FF90EF90DF90CF90BF90AF909F9073
:101480008F9008952F923F924F925F926F927F922A
:101490008F929F92AF92BF92CF92DF92EF92FF9284
:1014A0000F931F93CF93DF93CDB7DEB761970FB63E
:1014B000F894DEBF0FBECDBF67E18091E20290914C
:1014C000E3020E948C0F80FD03C080E090E06EC1BB
:1014D0008091E2029091E3020E940C10E091E402FC
:1014E000F091E50282A5826082A76AE070E080E068
:1014F00090E00E94D91464E279E08091E402909136
:10150000E5020E94C50884E299E09093DD02809391
:10151000DC020E9413152B013C01C12CE12C90E44C
:10152000292E312C3C862B8680910001909101015F
:101530009C012F5F3F4F30930101209300019E8754
:101540008D8782EC8F878091E4029091E502FC0107
:1015500022A933A93A872987EE2089F02E2D30E081
:1015600021503109A901440F551F240F351F01E0F7
:1015700010E002C0000F111F2A95E2F702C000E040
:1015800010E020E030E040E050E0BE01675F7F4FB8
:101590000E944E130E9413154B015C01F12C8091A7
:1015A000E4029091E5020E941F07823C89F4FE014B
:1015B0003196EF0DF11DEF0DF11DA091E402B091F8
:1015C000E50217968D919C91189791838083F394EF
:1015D0000E941315DC01CB0188199909AA09BB09DE
:1015E000C897A105B10520F4F3E0FF15C0F633C09C
:1015F000F11031C00E941315DC01CB01841995094B
:10160000A609B70981369A4EA105B10508F05DCF4C
:101610002C2D30E02F5F3F4F8E2D90E00196289FBC
:10162000B001299F700D389F700D1124675E7F4FA8
:10163000660F771F072E000C880B990B0E94D91498
:1016400081E08E0D8370E82E81E08C0D6AE00E94AF
:10165000E119C92E67CFD12C198ADF1408F03FC0D9
:1016600023EC2F878091DE02888BFE013196ED0DF1
:10167000F11DED0DF11D008111811C870B8720E00C
:1016800030E040E050E0BE01675F7F4F8091E402B0
:101690009091E5020E944E130E9413154B015C01CC
:1016A0000E941315DC01CB0188199909AA09BB090D
:1016B000813E9105A105B10550F48091E40290911D
:1016C000E5020E941F07898B803851F7DF2C65E007
:1016D00070E080E090E00E94D914D394BECF898955
:1016E000803809F087CFE091E402F091E502878528
:1016F0009089009709F47ECF36852091DE0232135F
:1017000079CF9093DD028093DC028091E202909188
:10171000E3020E940C106AE070E080E090E00E941A
:10172000D9146091DC027091DD028091E402909105
:10173000E5020E94C5081C861B86E1E8EF8787E06A
:10174000F82E08E310E020E030E040E050E0BE0179
:10175000675F7F4F8091E4029091E5020E944E13F3
:10176000811119C0FA94F1100FC064E279E0809100
:10177000E4029091E5020E94C50884E299E090930A
:10178000DD028093DC0236CF63E070E080E090E021
:101790000E94D914D6CFE091E402F091E50282A52F
:1017A0008D7F82A78091DC029091DD0261960FB659
:1017B000F894DEBF0FBECDBFDF91CF911F910F9187
:1017C000FF90EF90DF90CF90BF90AF909F908F9061
:1017D0007F906F905F904F903F902F9008958F92E1
:1017E0009F92AF92BF92DF92EF92FF920F931F935F
:1017F000CF93DF93CDB7DEB72A970FB6F894DEBF4D
:101800000FBECDBF8091E4029091E5020E941F07B8
:10181000D82E8091DC029091DD02843229E092077B
:1018200009F4E2C033ECD31203C021E02093E602B6
:101830002091DE022111D8C02D2D2D7F243C09F0EE
:10184000B0C0E091E402F091E5027F01A7E0EA0E6A
:10185000F11C27813085328721872785B4ECDB1284
:1018600028C04091E1028091DF029091E00230E0D7
:10187000341789F05C010396BC0163507109DB01E8
:101880005C91521306C0D50111968D919C911297CF
:1018900004C03F5FEDCF8FEF9FEF9A83898308E30A
:1018A00010E022E030E0AE014F5F5F4FB701CF01A3
:1018B00075C030E03A8729872115310509F45EC0EB
:1018C000892BC1F45091E1028091DF029091E002F6
:1018D00040E0451709F44FC0FC010396DC01129764
:1018E0006D917C916217730719F4208130E048C034
:1018F0004F5FEFCF1C821B8280910001909101010C
:101900009C012F5F3F4F30930101209300019E8384
:101910008D8386EC8F8308E310E022E030E0AE0197
:10192000475F5F4FBE016F5F7F4FCF010E944E1335
:10193000882309F10E9413154B015C018091E40298
:101940009091E5020E941F07863C71F00E941315DA
:10195000DC01CB0188199909AA09BB09853F91408F
:10196000A105B10558F307C0E091E402F091E5024A
:101970002785308905C02FEF3FEF02C020E030E01F
:101980003A83298308E310E022E030E0AE014F5FA4
:101990005F4FB7018091E4029091E5020E944E13DF
:1019A00023C035ECD31220C0A091E402B091E5022F
:1019B0002091DF023091E00280E09091E1028917EE
:1019C00098F4F90193E0899FE00DF11D11246181E4
:1019D000728117964D915C9118976417750711F4F1
:1019E000128211828F5FE9CF8D2D2A960FB6F8945F
:1019F000DEBF0FBECDBFDF91CF911F910F91FF9042
:101A0000EF90DF90BF90AF909F908F9008950F93CD
:101A10001F93CF93DF938C01C0E0D0E0F801EC0F6F
:101A2000FD1F6491662371F0E0913F02F091400246
:101A30000190F081E02D8FE392E00995892B11F060
:101A40002196ECCF6EE471E08FE392E00E94B7152F
:101A50008C0F9D1FDF91CF911F910F9108958330BF
:101A600081F028F4813099F08230A1F00895873018
:101A7000A9F08830B9F08430D1F4809180008F7D56
:101A800003C0809180008F7780938000089584B593
:101A90008F7702C084B58F7D84BD08958091B0009A
:101AA0008F7703C08091B0008F7D8093B000089540
:101AB0001F93CF93DF93282F30E0F901E655FF4FB6
:101AC0008491F901EA56FF4FD491F901EE57FF4F87
:101AD000C491CC23C9F0162F81110E942F0DEC2F39
:101AE000F0E0EE0FFF1FE858FF4FA591B4918FB7BC
:101AF000F894111105C09C91ED2FE095E92302C0E7
:101B0000EC91ED2BEC938FBFDF91CF911F91089556
:101B1000FC01538D448D252F30E0842F90E0821BF3
:101B2000930B541710F0CF96089501970895FC0178
:101B3000918D828D981761F0828DDF01A80FB11D04
:101B40005D968C91928D9F5F9F73928F90E0089528
:101B50008FEF9FEF0895FC01918D828D981731F0E2
:101B6000828DE80FF11D858D90E008958FEF9FEF36
:101B70000895FC01918D228D892F90E0805C9F4F0C
:101B8000821B91098F7399270895FC01848DDF01D1
:101B9000A80FB11DA35ABF4F2C91848D90E00196E0
:101BA0008F739927848FA689B7892C93A089B189CF
:101BB0008C9180648C93938D848D981306C00288D9
:101BC000F389E02D80818F7D80830895EF92FF92CD
:101BD0000F931F93CF93DF93EC0181E0888F9B8D50
:101BE0008C8D981305C0E889F989808185FD24C012
:101BF000F62E0B8D10E00F5F1F4F0F731127E02E95
:101C00008C8DE8120CC00FB607FCFACFE889F98971
:101C1000808185FFF5CFCE010E94C50DF1CF8B8D60
:101C2000FE01E80FF11DE35AFF4FF0820B8FEA89A6
:101C3000FB898081806207C0EE89FF896083E88923
:101C4000F98980818064808381E090E0DF91CF9189
:101C50001F910F91FF90EF900895CF93DF93EC01C8
:101C6000888D8823C9F0EA89FB89808185FD05C0BC
:101C7000A889B9898C9186FD0FC00FB607FCF5CFF6
:101C8000808185FFF2CFA889B9898C9185FFEDCF3E
:101C9000CE010E94C50DE7CFDF91CF91089580E07E
:101CA00090E0892B29F00E948A1481110C94000085
:101CB0000895CF93DF93DC01FB01EC01C359DE4FA4
:101CC0006881798122969881828140815181823018
:101CD00028F0BA0181E0838390E027C0ED01C0596C
:101CE000DE4F28813981EA01C223D323D2960D9099
:101CF000BC91A02DCA17DB07C1F4C901809590954E
:101D000063E0880F991F6A95E1F784239523892B57
:101D100051F083E0220F331F8A95E1F72760BA0163
:101D20006223732301C0BA0195E0718360839283BB
:101D300081E0DF91CF910895CF93DF93EC019CB5C3
:101D40009F7D9CBD9CB5937F9CBD9CB59C7F9CBD9D
:101D50009DB591609DBD8A810E94580D8C899D8999
:101D6000DF91CF910C94D0141F920F920FB60F9267
:101D700011242F933F934F935F936F937F938F9390
:101D80009F93AF93BF93EF93FF938FE392E00E94F3
:101D9000C50DFF91EF91BF91AF919F918F917F9171
:101DA0006F915F914F913F912F910F900FBE0F90C8
:101DB0001F9018951F920F920FB60F9211242F9318
:101DC0008F939F93EF93FF93E0914F02F091500216
:101DD0008081E0915502F091560282FD12C09081FF
:101DE000809158028F5F8F7320915902821751F0B2
:101DF000E0915802F0E0E15CFD4F958F809358022E
:101E000001C08081FF91EF919F918F912F910F9051
:101E10000FBE0F901F90189561E00C949C0E60E02F
:101E20000C949C0EEF92FF921F93CF93DF931F921F
:101E3000CDB7DEB77C0169830E940F0F6981862FC1
:101E40000E941807182FC7010E940C0F812F0F90B6
:101E5000DF91CF911F91FF90EF90089561EE0C9468
:101E6000120FEF92FF921F93CF93DF9300D0CDB765
:101E7000DEB77C014A8369830E940F0F6981862F38
:101E80008F7180620E941807182F4A81842F0E9448
:101E90001807C7010E940C0F812F0F900F90DF9140
:101EA000CF911F91FF90EF900895CF92DF92EF9224
:101EB000FF920F931F93CF93DF9300D01F92CDB764
:101EC000DEB77C01142F2A835B8369830E940F0F86
:101ED0006981862F8F7180620E941807082FC12E9A
:101EE0005B81D52E2A81120F1C1531F0F6018191EC
:101EF0006F010E941807F8CFC7010E940C0F802FB6
:101F00000F900F900F90DF91CF911F910F91FF9045
:101F1000EF90DF90CF900895EF92FF921F93CF93B1
:101F2000DF931F92CDB7DEB77C0169830E940F0F4C
:101F30006981862F8F710E9418078FEF0E94180702
:101F4000182FC7010E940C0F812F0F90DF91CF91A6
:101F50001F91FF90EF900895EF92FF920F931F93C0
:101F6000CF938C017B0166E00E948C0FC82FC77D48
:101F700082E0E816F10431F4C0628BE990E0A0E061
:101F8000B0E00DC0EA94EF2829F085E590E0A0E0EC
:101F9000B0E005C0C86081E490E0A0E0B0E0F801E6
:101FA000808B918BA28BB38B4C2F66E0C8010E9473
:101FB000310F66E0C8010E948C0F91E08C1390E015
:101FC000892FCF911F910F91FF90EF900895CF939C
:101FD000DF93EC0160E00E948C0F81FD0EC0482F62
:101FE000426060E0CE010E94310F65E070E080E069
:101FF00090E0DF91CF910C94D914DF91CF910895A7
:10200000FC0120813181828193812817390719F0E1
:10201000822F0C94580D0895CF93DF93EC0160E06C
:102020000E940010888999890E94D0146DE1CE0128
:102030000E948C0F81FF07C0888999890E94D01463
:10204000CE010E942E0F60E0CE010E948C0F482F1F
:102050004E7F60E0CE010E94310F62E0CE010E940F
:102060008C0FEEEBF0E0E49141E050E001C0440F52
:10207000EA95EAF7482B62E0CE01DF91CF910C940C
:10208000310FCF93DF93EC010E94E70F60E0CE01A8
:102090000E948C0F482F416060E0CE010E94310FFA
:1020A00040E767E0CE010E94310F61E0CE010E945F
:1020B00000108985882349F02E85AE01475F5F4F68
:1020C0006AE0CE010E94550F14C062E0CE010E946A
:1020D0008C0FEEEBF0E0E49121E030E001C0220F44
:1020E000EA95EAF72095422F482362E0CE010E944C
:1020F000310F6DE1CE010E948C0F81FF05C0CE0132
:10210000DF91CF910C942E0FDF91CF9108951F9303
:10211000CF93DF93EC01888199812A813B818217DB
:10212000930719F061E00E9494148A819B812881B1
:1021300039812817390719F061E00E9494141FB7FC
:10214000F89480919F04811127C0ECE8F0E084911D
:10215000E0EAF0E09491E82FF0E0EE0FFF1FE75087
:10216000FD4FA591B491EC91E92321F461E08AE05F
:102170000E94580D61E08AE00E9494148CB5806141
:102180008CBD8CB580648CBD61E08DE00E949414A0
:1021900061E08BE00E94941480919F048F5F809394
:1021A0009F041FBF60E0CE010E94001061E0CE01DD
:1021B0000E949C0E65E070E080E090E00E94D914DF
:1021C0004CE060E0CE010E94310F4FE564E0CE01AB
:1021D0000E94310F62E070E0CE010E94AC0F8823B4
:1021E00011F081E08E8366E0CE010E948C0F182FE3
:1021F00060E070E0CE010E94AC0FCE010E940F0F94
:1022000080E50E94180783E70E941807CE010E940C
:102210000C0F40E06DE1CE010E94310F40E06CE117
:10222000CE010E94310F188640E767E0CE010E9480
:10223000310F4CE465E0CE010E94310F62EECE0119
:102240000E94120FCE010E942E0FCE010E94E70FB6
:1022500060E0CE010E948C0F482F4E7F60E0CE01DF
:102260000E94310F115081E01E3F08F080E0DF91A5
:10227000CF911F910895CF93DF93CDB7DEB7289705
:102280000FB6F894DEBF0FBECDBFAC019CEC9983B6
:102290009A839B839C839D831E821F8218869A014A
:1022A000E1E021153105C9F0611103C04115510567
:1022B00069F4D901A770BB27A95BBE4F8C91A1E03F
:1022C000B0E0AC0FBD1FAE0FB11D8C9383E036950F
:1022D00027958A95E1F7EF5FE4CF611102C0452BA6
:1022E00039F4E62FF0E0E95BFE4F8081898305C079
:1022F000F0E0EA5BFE4F80818A8329813A814B813D
:102300005C816D817E818F81988528960FB6F894C7
:10231000DEBF0FBECDBFDF91CF9108956F927F9248
:102320008F929F92AF92BF92CF92DF92EF92FF92E5
:102330000F931F93CF93DF93CDB7DEB728970FB6D8
:10234000F894DEBF0FBECDBF8C01CB01D22E642F1F
:102350000E943B1139014A015B017C01F80182A511
:1023600082FD04C087A590A90E940C10F80187A5E2
:1023700090A9DD2011F060E001C061E00E94B0088A
:10238000F801C7A4D0A869827A828B829C82AD8230
:10239000BE82EF82F886F6012685AE014F5F5F4F61
:1023A0006AE0C6010E94550FF6012685AE014F5F17
:1023B0005F4F60E1C6010E94550FF601478161E160
:1023C000C6010E94310FF801B4A8C7A4D0A86FEFCE
:1023D000C6010E94120F80FF0DC06FEFC6010E9460
:1023E000120F84FFF4CF40E167E0C6010E94310F75
:1023F000F12C30C0F601F780EF2CBF1408F4EB2C61
:10240000F6018085811102C0FE1801C0F12CC601C1
:102410000E940F0F80EA0E9418075801F7E0AF0EE4
:10242000B11CEA0CEA1431F0F50181915F010E94C0
:102430001807F8CFFF2029F080E00E941807FA94CF
:10244000F9CFC6010E940C0F61E0C6010E94001086
:10245000FF24F394F80182A582FD0FC041815281CF
:102460006381748187A590A90E94F209F82E60E02B
:10247000F80187A590A90E94B0088F2D28960FB665
:10248000F894DEBF0FBECDBFDF91CF911F910F91AA
:10249000FF90EF90DF90CF90BF90AF909F908F9084
:1024A0007F906F900895CF92DF92EF92FF920F93FB
:1024B0001F93CF93DF9300D000D0CDB7DEB7FC01E0
:1024C00095859B012115310561F0822F877086303B
:1024D00030F483E0369527958A95E1F7F3CF80E0D5
:1024E00097C09154EE24E3949F3708F0E12CF42E2A
:1024F0006B018F0119821A821B821C827A83698385
:102500004B83BE016F5F7F4FCF010E94590E6981DF
:102510007A812C814B81C8010E948E11F1E0FF125B
:1025200027C0811102C0F12C6AC089819A818C1563
:102530009D0501F5EE20F1F081ECF801858787819A
:102540009085928781879A838983FB821C82BE0152
:102550006F5F7F4FC8010E94590E88E0F80184AB7D
:1025600069817A812C814B81C8010E948E1102C041
:102570008823C9F289819A818C159D0519F4FF245D
:10258000F3943DC0FF2019F0F3E0FF12F8CFEE20E6
:10259000B1F3F80182A582FF11C0418152816381AC
:1025A000748187A590A90E94F209F80182A58B7F0A
:1025B00082A760E087A590A90E94B008F80187A5CE
:1025C00090A90E9441100E9413156B017C01C80163
:1025D0000E941F07813C99F20E941315AB01BC01B8
:1025E0004C195D096E097F09F80185819681A0E08B
:1025F000B0E084179507A607B70748F794CFF8010E
:1026000082A582FD04C087A590A90E9441108F2D4C
:102610000F900F900F900F90DF91CF911F910F911E
:10262000FF90EF90DF90CF900895EF92FF920F937D
:102630001F93CF93DF93EC017B01BA018AA99BA979
:10264000F70191838083DE01179688E001900D9257
:102650008A95E1F72115310529F0A901CE010F96E0
:102660000E945B1BF701628173810833110561F0E1
:102670006034710511F444E001C043E06017710754
:1026800009F442E0B80101C040E0CE01DF91CF91F2
:102690001F910F91FF90EF900C9453122F923F9245
:1026A0004F925F926F927F928F929F92AF92BF9262
:1026B000CF92DF92EF92FF920F931F93CF93DF930E
:1026C000EC017B015A01690148010E9413154BA4DA
:1026D0005CA46DA47EA4DC01CB0184199509A60934
:1026E000B7094997A105B10528F4CE010E941F073B
:1026F00087FFEBCF8CE891E00197F1F789E1C816ED
:10270000D104B0F488E08C0D8CAB84019601A50156
:10271000B701CE010E941513182F882311F011E084
:1027200092C00E9413156BA77CA78DA79EA78BC094
:10273000E1E9CE16D10408F085C0C60168E170E079
:102740000E94ED1921E0892B09F420E0C60168E11F
:1027500070E00E94ED19722E760EF701828193814E
:102760008034910539F08AA584608AA78FA598A93D
:102770000E940C10F7014680512C612C84E9282E10
:1027800096E9392EF7017782F1E07F1204C0F70154
:102790003682478208C0611003C0F701268203C059
:1027A00085E9F7018683E8E16E9EA0011124960178
:1027B000241B350B2931310510F028E130E088E089
:1027C000820F8CAB4A0D5B1D8401B701CE010E94C4
:1027D0001513182F81110BC062E070E080E090E0CB
:1027E0000E94D9145394F2E0F51560F606C07A946D
:1027F0006394772011F0512CC5CFF70146828AA54A
:1028000082FF12C049815A816B817C818FA598A972
:102810000E94F209182F8FA598A90E94411060E02C
:102820008FA598A90E94B0088AA58B7F8AA711233B
:1028300049F0772009F473CF0E9413156BA77CA78A
:102840008DA79EA710E0812FDF91CF911F910F914F
:10285000FF90EF90DF90CF90BF90AF909F908F90C0
:102860007F906F905F904F903F902F9008953FB76B
:10287000F8948091AA049091AB04A091AC04B0911B
:10288000AD0426B5A89B05C02F3F19F00196A11DE8
:10289000B11D3FBFBA2FA92F982F8827820F911DF6
:1028A000A11DB11DBC01CD0143E0660F771F881F3C
:1028B000991F4A95D1F708950895CF92DF92EF922C
:1028C000FF920F931F93CF93DF936C017A018B01DB
:1028D000C0E0D0E0CE15DF0589F0D8016D918D0103
:1028E000D601ED91FC910190F081E02DC601099592
:1028F000892B11F47E0102C02196ECCFC701DF9134
:10290000CF911F910F91FF90EF90DF90CF9008959E
:102910000E94561B8FE392E00E94B90D21E0892BA3
:1029200009F420E0822F0895CF93DF9390E0FC011B
:10293000EA56FF4F2491FC01EE57FF4F8491882304
:1029400061F190E0880F991FFC01E750FD4FC591A0
:10295000D491FC01E858FF4FA591B491611109C0D1
:102960009FB7F8948881209582238883EC912E2349
:102970000BC0623061F49FB7F8943881822F809544
:1029800083238883EC912E2B2C939FBF06C08FB797
:10299000F894E8812E2B28838FBFDF91CF91089583
:1029A0008330910528F0880F991F04970197F1F75C
:1029B00008958F929F92AF92BF92CF92DF92EF9243
:1029C000FF926B017C010E9437144B015C01C11422
:1029D000D104E104F104F1F00E943714DC01CB01D1
:1029E00088199909AA09BB09883E9340A105B10538
:1029F00070F321E0C21AD108E108F10888EE880ED0
:102A000083E0981EA11CB11CC114D104E104F1049F
:102A100019F7DDCFFF90EF90DF90CF90BF90AF9090
:102A20009F908F9008952FB7F8946091A6047091AD
:102A3000A7048091A8049091A9042FBF08951F9224
:102A40000F920FB60F9211242F933F938F939F9362
:102A5000AF93BF938091A6049091A704A091A8047E
:102A6000B091A9043091A50426E0230F2D3720F45E
:102A70000296A11DB11D05C029E8230F0396A11DD3
:102A8000B11D2093A5048093A6049093A704A0935E
:102A9000A804B093A9048091AA049091AB04A091DA
:102AA000AC04B091AD040196A11DB11D8093AA04A0
:102AB0009093AB04A093AC04B093AD04BF91AF91DD
:102AC0009F918F913F912F910F900FBE0F901F906C
:102AD00018951F920F920FB60F9211242F933F93C8
:102AE0004F935F936F937F938F939F93AF93BF9316
:102AF000EF93FF93E0910401F09105010995FF9197
:102B0000EF91BF91AF919F918F917F916F915F9165
:102B10004F913F912F910F900FBE0F901F901895DE
:102B20001F920F920FB60F9211242F933F934F9342
:102B30005F936F937F938F939F93AF93BF93EF9325
:102B4000FF93E0910201F09103010995FF91EF914C
:102B5000BF91AF919F918F917F916F915F914F91B5
:102B60003F912F910F900FBE0F901F9018956115F8
:102B7000710579F0FB0101900020E9F73197AF0171
:102B8000461B570BDC01ED91FC910280F381E02D97
:102B9000099480E090E008954F925F926F927F9247
:102BA000EF92FF920F931F93CF93DF93CDB7DEB7D2
:102BB000A1970FB6F894DEBF0FBECDBF7C01FA011E
:102BC000CB0119A2223008F42AE08E010F5D1F4FBD
:102BD000422E512C612C712CBF01A30192010E9445
:102BE000011AF901CA01015011096A3014F4605D3B
:102BF00001C0695CD8016C93232B242B252B61F732
:102C0000B801C7010E94B715A1960FB6F894DEBFB0
:102C10000FBECDBFDF91CF911F910F91FF90EF902D
:102C20007F906F905F904F9008950F931F93CF9375
:102C3000DF93EC010E94B7158C016EE471E0CE01C8
:102C40000E94B715800F911FDF91CF911F910F91B7
:102C50000895CF93DF93EFE3F2E01382128288EEC0
:102C600093E0A0E0B0E084839583A683B78329E155
:102C700031E03183208325EC30E03587248724EC54
:102C800030E03787268720EC30E0318B208B21EC39
:102C900030E0338B228B22EC30E0358B248B26EC1A
:102CA00030E0378B268B118E128E138E148EE3E953
:102CB000F4E01382128284839583A683B7838BE228
:102CC00091E091838083EEE7F4E01382128281E049
:102CD0008187148613868DE391E091838083E6E6F5
:102CE000F4E08AE090E09183808385E090E0938334
:102CF0008283168280E28783108685E0868785E05E
:102D000090E0A0E0B0E0848B958BA68BB78B11860A
:102D1000A4EFB2E0D096FC93EE939F9789E293E004
:102D20009093C4038093C30381ED93E09093D00309
:102D30008093CF0385EC93E098969C938E9397971E
:102D40009B961D921D921D921C929E979A961C9284
:102D50009A9799961C9299971C92CCEDD2E0FF839A
:102D6000EE83B987A887DF91CF910895CF93DF9342
:102D7000CDB7DEB728970FB6F894DEBF0FBECDBF34
:102D8000789484B5826084BD84B5816084BD85B546
:102D9000826085BD85B5816085BD80916E00816052
:102DA00080936E00109281008091810082608093F8
:102DB00081008091810081608093810080918000FA
:102DC0008160809380008091B10084608093B10025
:102DD0008091B00081608093B00080917A0084601F
:102DE00080937A0080917A00826080937A0080914B
:102DF0007A008E7F80937A0080917A008068809339
:102E00007A001092C10010927A0060E082E00E9485
:102E1000941487E292E090930301809302018091E1
:102E200069008C7F816080936900E89A86E694E06F
:102E30000E94871066E086E694E00E948C0F887FEF
:102E4000482F456066E086E694E00E94310F60E01E
:102E500070E086E694E00E94AC0F61E088E00E949A
:102E6000941460E088E00E94580D6AE070E080E011
:102E700090E00E94D91461E088E00E94580D6AE059
:102E800070E080E090E00E94D91467E08BE894E065
:102E90000E94FA0666E08FE894E00E94FA062A9AF9
:102EA000229A239A259A1092820410928304E9EEC2
:102EB000F2E085919491E82EEBEEF2E0F490ECEEE6
:102EC000F2E0E491E0938404EDEEF2E0E491E0932B
:102ED0008504EEEEF2E0E491E09386048C01802F0D
:102EE0008E198F1548F4F80164918EE794E00E94E2
:102EF00093030F5F1F4FF3CF109288048EE794E087
:102F00000E94B0058EEF90E090938A04809389042C
:102F10008EE794E00E94B00582E080938704E09100
:102F20004F02F09150028083E0914B02F0914C02ED
:102F30001082E0914D02F0914E0288E08083109261
:102F40005702E0915302F091540286E08083E091B1
:102F50005102F0915202808180618083E0915102A0
:102F6000F0915202808188608083E0915102F0915B
:102F70005202808180688083E0915102F091520278
:102F800080818F7D808381E08093DE0261E571E046
:102F90008EE794E00E94151683EF90E00E94070DE3
:102FA0008091E2029091E3020E9487108091DE02FC
:102FB000882339F084E299E09093DD028093DC026B
:102FC0000EC086E090E00E94291A9093E002809360
:102FD000DF021092E1021092DD021092DC0281E623
:102FE0008093EF0241E665E08091E2029091E30276
:102FF0000E94310F60E070E08091E2029091E30264
:103000000E94AC0F8091E4029091E50221E0FC0166
:1030100021A72091DE02222319F00E94420A06C055
:103020006091DC027091DD020E94C5086CE571E0E0
:103030008EE794E00E94151689EE90E00E94070D3D
:1030400032E8332E46EFA42EBB24BA945AE9852EDB
:10305000912C0E94EF0B8091A004882309F41EC1DB
:103060008EE794E00E94B00566E671E08EE794E09A
:103070000E941516ECEAF0E08491E8E9F0E0049192
:10308000E4E8F0E014911123A1F081110E942F0DCA
:10309000E12FF0E0EE0FFF1FE151FD4FA591B4913C
:1030A0008C91082331E020E009F430E0832F922F47
:1030B00002C080E090E09093A4048093A304209148
:1030C000A1043091A2048217930709F475C090936C
:1030D000A2048093A104019711F481E301C080E36D
:1030E00080930C018CE390E090930701809306019C
:1030F00068E071E08FE392E00E9415169DE4792E5E
:103100008091DC029091DD028432994051F10E945D
:1031100013158091DC029091DD028432994009F10F
:103120001C821B8280910001909101019C012F5F04
:103130003F4F30930101209300019E838D837F8256
:1031400008E310E027E030E048E051E0BE016F5FA7
:103150007F4F8091E4029091E5020E944E1381110D
:103160000FC084E0682E6A94662009F411C1809132
:10317000DC029091DD028432994009F09DC008C1C3
:103180008EE794E00E94B00563E971E08EE794E079
:103190000E94151668E071E08EE794E00E94151613
:1031A00063E971E08FE392E00E94B71568E071E097
:1031B0008FE392E00E9415161092A0046FC0009158
:1031C000310310913203A8010930110510F048E0D5
:1031D00050E063E373E0CE0101960E945B1BC501E2
:1031E000801B910B680E791E7092C4036092C3031A
:1031F000A401401B510BB8016D5C7C4F89E293E048
:103200000E94641B8EE794E00E94B0056DE971E0B6
:103210008EE794E00E94B715CD80DE80EF80F884C1
:103220002AE0B701A6018EE794E00E94CC156FEA70
:1032300071E08EE794E00E94B71549805A806B8058
:103240007C802AE0B301A2018EE794E00E94CC15B5
:103250006EE471E08EE794E00E94B7156DE971E0CD
:103260008FE392E00E94B7152AE0B701A6018FE331
:1032700092E00E94CC156FEA71E08FE392E00E9429
:10328000B7152AE0B301A2018FE392E00E94CC15AA
:103290006EE471E08FE392E00E94B7156090C30383
:1032A0007090C40329E2621623E0720611F008F060
:1032B00086CF0E944F0ECDCE0E94EF0B67E180912A
:1032C000E2029091E3020E948C0F81FD2CC080915C
:1032D000E4029091E502FC0122A520FD24C01C829D
:1032E0001B822091000130910101A9014F5F5F4FC6
:1032F00050930101409300013E832D833F8208E3F8
:1033000010E020E030E040E050E0BE016F5F7F4F12
:103310000E944E13811107C067E670E080E090E0E4
:103320000E94D91420CF8EE794E00E94B00564EB90
:1033300071E08EE794E00E94151664EB71E08FE374
:1033400092E00E94151664EF71E080E090E00E9428
:10335000D91480910601909107010197909307017C
:1033600080930601892B09F0CBCE8EE794E00E9472
:10337000B00561E771E08EE794E00E94151669E8F8
:1033800071E08EE794E00E9415166DE771E010CFB2
:103390008091E2029091E3020E940C108EE794E08B
:1033A0000E94B0056EEB71E08EE794E00E94151666
:1033B0006EEB71E08FE392E00E9415160E94420AC4
:1033C000C2CF991B79E004C0991F961708F0961B8D
:1033D000881F7A95C9F780950895AA1BBB1B51E1F8
:1033E00007C0AA1FBB1FA617B70710F0A61BB70B75
:1033F000881F991F5A95A9F780959095BC01CD011A
:103400000895A1E21A2EAA1BBB1BFD010DC0AA1F25
:10341000BB1FEE1FFF1FA217B307E407F50720F03D
:10342000A21BB30BE40BF50B661F771F881F991FB8
:103430001A9469F760957095809590959B01AC0101
:10344000BD01CF010895EE0FFF1F0590F491E02D0F
:103450000994CF93DF938230910510F482E090E0DD
:10346000E091B004F091B10420E030E0C0E0D0E0A1
:10347000309711F14081518148175907C0F0481722
:10348000590761F482819381209719F09B838A8385
:103490002BC09093B1048093B00426C02115310550
:1034A00019F04217530718F49A01BE01DF01EF012A
:1034B0000280F381E02DDCCF2115310509F1281BB5
:1034C000390B2430310590F412968D919C9113970D
:1034D0006115710521F0FB019383828304C09093F1
:1034E000B1048093B004FD01329644C0FD01E20FA7
:1034F000F31F81939193225031092D933C933AC04D
:103500002091AE043091AF04232B41F4209111019E
:10351000309112013093AF042093AE0420910F013B
:10352000309110012115310541F42DB73EB740917E
:10353000130150911401241B350BE091AE04F0915E
:10354000AF04E217F307A0F42E1B3F0B281739072F
:1035500078F0AC014E5F5F4F2417350748F04E0FEF
:103560005F1F5093AF044093AE048193919302C0C8
:10357000E0E0F0E0CF01DF91CF9108950F931F932A
:10358000CF93DF93009709F48CC0FC01329713822C
:1035900012820091B0041091B1040115110581F45B
:1035A00020813181820F931F2091AE043091AF04AE
:1035B0002817390779F5F093AF04E093AE0471C092
:1035C000D80140E050E0AE17BF0750F412962D919D
:1035D0003C911397AD012115310509F1D901F3CFC4
:1035E0009D01DA013383228360817181860F971FE9
:1035F0008217930769F4EC0128813981260F371F60
:103600002E5F3F4F318320838A819B819383828306
:10361000452B29F4F093B104E093B00442C0139613
:10362000FC93EE931297ED01499159919E01240F5D
:10363000351FE217F30771F480819181840F951F84
:10364000029611969C938E938281938113969C93FC
:103650008E931297E0E0F0E0D80112968D919C9144
:103660001397009719F0F8018C01F6CF8D919C917A
:1036700098012E5F3F4F820F931F2091AE0430912F
:10368000AF042817390769F4309729F41092B10470
:103690001092B00402C0138212821093AF04009300
:1036A000AE04DF91CF911F910F91089581E090E0DA
:1036B000F8940C94761BFB01DC0102C001900D9282
:1036C00041505040D8F708956817790768F4FB0116
:1036D000DC01E40FF51FA40FB51F02C002900E928B
:1036E00041505040D8F708950C945B1BF894FFCFDD
:1036F00001005C145C143C003030312D300A0000B5
:1037000000B204800000000000E60D5D14880D2D5D
:103710000EB90D970DAB0D00000000160202022C31
:1037200002C201C901C601C3010000000010045D0E
:10373000142C022B028608C33C33CE3EE3EC0D0A68
:10374000005374617274696E672E2E00576169743C
:10375000696E672E2E00496E7465727275707421E1
:10376000004D61782072657472696573004D6178EF
:103770002072657472696573206578636565646538
:1037800064210053656E64204F4B3A2000526563FC
:103790006569766564207061636B65742023002021
:1037A0006174200053656E64206661696C00526527
:1037B0006E6577696E67204164647265737300009B
:00000001FF
