:100000000C9496010C94BE010C94BE010C94BE019C
:100010000C94BE010C94BE010C94BE010C94BE0164
:100020000C94BE010C94BE010C94BE010C94BE0154
:100030000C94BE010C94BE010C94BE010C94BE0144
:100040000C9447130C94BE010C94BC0C0C94960CAD
:100050000C94BE010C94BE010C94BE010C94BE0124
:100060000C94DB050C94BE01AED580A83FD30040B4
:100070008D142002A1C8DA12817FD9F1DB40A4A639
:10008000AF000005072061000000000000005F00D5
:10009000000007000700147F147F14242A7F2A120F
:1000A00023130864623649552250000503000000FE
:1000B0001C2241000041221C00082A1C2A080808B2
:1000C0003E0808005030000008080808080060607A
:1000D000000020100804023E5149453E00427F4086
:1000E0000042615149462141454B311814127F109D
:1000F00027454545393C4A494930017109050336D0
:1001000049494936064949291E003636000000563D
:10011000360000000814224114141414144122144F
:1001200008000201510906324979413E7E11111140
:100130007E7F494949363E414141227F4141221C4F
:100140007F494949417F090901013E414151327FBF
:100150000808087F00417F41002040413F017F089F
:100160001422417F404040407F0204027F7F040808
:10017000107F3E4141413E7F090909063E41512120
:100180005E7F09192946464949493101017F01012C
:100190003F4040403F1F2040201F7F2018207F63AA
:1001A00014081463030478040361514945430000B3
:1001B0007F4141020408102041417F0000040201F8
:1001C00002044040404040000102040020545454C6
:1001D000787F484444383844444420384444487F75
:1001E0003854545418087E090102081454543C7FB2
:1001F0000804047800447D40002040443D00007F16
:1002000010284400417F40007C041804787C0804D6
:10021000047838444444387C14141408081414181E
:100220007C7C080404084854545420043F44402073
:100230003C4040207C1C2040201C3C4030403C4442
:10024000281028440C5050503C4464544C4400083E
:1002500036410000007F0000004136080008082AEF
:100260001C08081C2A0808000609090668001980ED
:1002700040002A2A2A2A2A2A2A2A2A2A2A2A2A2AF2
:100280002A2A2A2A2A2A2A2A2A2A2A2A2A2A2A2ACE
:100290002A2A2A2A002A2A2A2A2A2A2A2A4173733F
:1002A00069676E6564204164647265737365732A5F
:1002B0002A2A2A2A2A2A2A0000030C0F30333C3F1C
:1002C000C0C3CCCFF0F3FCFF000000080002010027
:1002D000000304070000000000000000000102030A
:1002E00004051112131415160A0B0C0D0E0F000045
:1002F0000000250028002B0000000000240027003B
:100300002A00040404040404040402020202020297
:1003100003030303030301020408102040800102C9
:10032000040810200102040810209D1911241FBE8A
:10033000CFEFD8E0DEBFCDBF24E0A0EBB1E001C03D
:100340001D92A539B207E1F711E0A0E0B1E0E6E9BE
:10035000F9E302C005900D92A03BB107D9F711E077
:10036000C6E9D1E004C02197FE010E94AC1AC5394C
:10037000D107C9F70E9491130C94C91C0C9400007A
:10038000CF93DF93EC019C818E81981758F4E8811C
:10039000F9810084F185E02D42E0CE0109958C8140
:1003A0008F5F8C83DF91CF91089508958FEF9FEF3A
:1003B00008958FEF9FEF08958091260290E0919528
:1003C00081959109089585ED8093BC008091BC00D2
:1003D00084FDFCCF1092000208954091DA01262F8F
:1003E00030E0240F311D21323105DCF42091000270
:1003F0002430C9F4FC0180E090E0861758F4309175
:10040000DA012191DC01A854BE4FA30FB11D2C933A
:100410000196F3CF8091DA01680F6093DA0180E0F2
:10042000089581E0089582E00895CF93DF9300D08E
:10043000CDB7DEB7CB01642F49835A830E94ED010B
:100440004981842F5A81952F0F900F90DF91CF9182
:100450000895CF93DF931F92CDB7DEB7698361E034
:10046000CE0101960E94ED0181E090E00F90DF91B6
:10047000CF910895089580E090E008958F929F9223
:10048000AF92BF92CF92DF92EF92FF920F931F93A2
:10049000CF93DF93EC017B01CCA8D12C86010850CF
:1004A0001109DB0116969C918CE6890F833020F0B0
:1004B000983C09F0CFC003C0943909F4E4C08BE63E
:1004C000890F823018F0983C09F08EC06E0159ED0A
:1004D000C50ED11CD6012D913C91A801420F531F8E
:1004E0004139510520F0C852DF4F1882B1C05E017A
:1004F000B8EDAB0EB11CF5018081882309F415C15C
:10050000963929F0D70117969C919813A1C0FE0146
:10051000EB52FF4F40815181F7018481958148174B
:10052000590709F095C04E01FBED8F0E911CD401C7
:100530008D919C91A801BE01615F7F4F820F931F37
:100540000E94AE1CF60180819181080F191F118352
:100550000083D70116968C91863929F0F5018081A8
:100560008150808373C0D5011C92F7018781FE0101
:10057000E952FF4F8083833809F483C07E01FFEC8A
:10058000EF0EF11CF701A081B181CE018A1B9B0BFC
:100590008B539F4F80179107F8F032968AE00190B5
:1005A0000D928A95E1F7D7018D919C91F4016081BC
:1005B0007181D6014D915C910A960E94AE1CF601A4
:1005C000808191810A96D7012D913C911197820FDC
:1005D000931F8D939C933AC08FA598A90E94EE0D0E
:1005E0008AA581608AA734C07E01BFECEB0EF11CA6
:1005F000F701A081B181CE01C5969D01281B390B61
:10060000C901800F911F8B39910510F5E85CF10944
:1006100088E001900D928A95E1F7D701ED91FC9168
:100620001197118700878D919C91BE01615F7F4F6B
:10063000A8010A960E94AE1CB2E0CB0ED11CF701B5
:1006400080819181C80ED91ED182C08281E06DC0A7
:1006500080E06BC0933841F6DE01AF52BF4FFE0120
:10066000379688E001900D928A95E1F7FE01E552F8
:10067000FF4FCE010F9691838083C752DF4F1983BE
:10068000088382E052C0F7018781873008F02BCFC2
:10069000FE01EB52FF4F40815181D70114962D91FD
:1006A0003C91159734976F014217530739F44081F5
:1006B00051812D913C914217530741F2F8E18F9FF0
:1006C000C0011124FE01E153FF4F20813181AE01B1
:1006D000421B530B9A012B533F4F281739073CF409
:1006E0008AA581608AA78FA598A90E94EE0DFE01B8
:1006F000379688E0D60101900D928A95E1F7FE01C8
:10070000E552FF4FBE01615F7F4FA801808191815B
:100710000E94AE1CFE01E752FF4F11830083C852B6
:10072000DF4F88818150888391CFDF91CF911F91D6
:100730000F91FF90EF90DF90CF90BF90AF909F9080
:100740008F900895DC01ED91FC910084F185E02DFE
:1007500040E009940F931F93CF938C01FC016483B5
:100760009085C62FC90F6C2F6F70C8010E94A2031D
:100770006C2F62956F706061C801CF911F910F91CE
:100780000C94A2030F931F93CF93DF931F92CDB7C7
:10079000DEB78C01FC018681681728F4C801498303
:1007A0000E94AA034981F8018781869586958695DE
:1007B000481758F44583642F606BC8010F90DF9190
:1007C000CF911F910F910C94A2030F90DF91CF91C5
:1007D0001F910F910895CF92DF92EF92FF920F93A6
:1007E0001F93CF93DF93EC01F62EC42ED22E8F8170
:1007F000869586958695081710F00FEF080F1D2D2A
:10080000011780F0412F6F2DCE010E94C203EF2C03
:10081000CE1430F060E0CE010E94C001E394F8CF26
:100820001F5FEECF4D2D6F2DCE01DF91CF911F9128
:100830000F91FF90EF90DF90CF900C94C2032F9216
:100840003F924F925F926F927F928F929F92AF9260
:10085000BF92CF92DF92EF92FF920F931F93CF93AD
:10086000DF93CDB7DEB727970FB6F894DEBF0FBE84
:10087000CDBFDC011B960D911C911C970115110534
:1008800009F462C19F838E83F801B491319644913B
:10089000319654903196A491EA2EF12CF7E0EF0EA8
:1008A000F11C23E0F594E7942A95E1F7EB82F80137
:1008B000349674913196E491671758F0862F90E042
:1008C0002E2F30E0F901E70FF11D8E179F070CF472
:1008D00073C06D3069F4AE81BF8116968C91882308
:1008E00009F467C060E08E819F810E94AA0361C005
:1008F0006A3009F029C1EE81FF8181856581D62E9C
:100900008E9DD00C11248781869586958695D81664
:1009100030F08285882319F082E08287D12C4D2D1A
:1009200060E08E819F810E94C203AE81BF811A96D2
:100930008C911A97823008F43CC015962C9115972B
:100940001B96ED91FC911C97309741F03396E49102
:1009500019960C91E09FE02D112401C0E0E08FEF8B
:10096000820F0E2F10E0095F1F4F93E0159507953A
:100970009A95E1F7080FEE81FF814681415064812D
:10098000CF010E94EB03AE81BF8119968C9119971C
:100990006D2D8E9D600D1124660F660F660F1796E4
:1009A0008C91861708F460E060648E819F810E94BC
:1009B000A20381E090E0CAC050E05B2BC80106961C
:1009C000671BEE81FF81F185F9834230510588F480
:1009D000452B09F019825E9C90015F9C300D11241B
:1009E000629F8001639F100D1124080F191F412C75
:1009F00024C0EA2FE77021F048E0442E4E1A01C0CF
:100A0000412CA82FFC0140E050E07E2F7A1B761786
:100A100028F47491470F511D3196F7CFFC01E60F72
:100A2000F11D54904E9D80014F9D100D5E9D100D47
:100A30001124020F131F080F191FAE81BF811496D6
:100A4000BC91BC83EE81FF813580652C712CCC2458
:100A5000C394D12C812C912C7FEF7C0D7A838B81D8
:100A6000781708F05FC0212CAE81BF8119968C9158
:100A7000281608F051C07A81711102C0222051F06D
:100A8000AE81BF8115964C9115974F5F6C81CD015A
:100A90000E94C203A12CB12CA51488F5F501E80D24
:100AA000F91DE00FF11F2491442061F0CE14DF0402
:100AB00049F4E22FF0E0042C02C0F595E7950A9482
:100AC000E2F72E2FEE81FF818185823079F4E22FCB
:100AD0002110E295EF70F0E0E854FD4F2491622F71
:100AE0008E819F812D830E94C0012D81622F8E8176
:100AF0009F810E94C001FFEFAF1ABF0ACDCFB12C7A
:100B00007981B71639F060E08E819F810E94C00123
:100B1000B394F6CF2394A8CF860C971CBFEFCB1AC3
:100B2000DB0A9ACFAE81BF8117968C911797869575
:100B300086958695381608F03CCF15963C92159709
:100B4000632D606BCD0133CF80E090E027960FB628
:100B5000F894DEBF0FBECDBFDF91CF911F910F91F3
:100B6000FF90EF90DF90CF90BF90AF909F908F90CD
:100B70007F906F905F904F903F902F9008950F93CC
:100B8000CF93DF93EC010F810695069506950150F2
:100B90004E81415020E060E00E94EB0381E09A85A5
:100BA000911101C080E08A8760E4CE01DF91CF918E
:100BB0000F910C94A2031F920F920FB60F92112463
:100BC0002F933F934F935F936F937F938F939F9355
:100BD000AF93BF93EF93FF938091B900887F8036E6
:100BE00009F49CC068F5883209F45BC090F4803148
:100BF00009F454C038F4882309F4F6C0883009F4A5
:100C00004DC0F6C0883109F44CC0803209F45DC093
:100C1000EFC0803409F468C048F4803309F455C04B
:100C2000883309F0E5C08093FF01D8C0803509F40E
:100C30004FC0883509F45DC0883409F0D9C0D6C0EA
:100C4000883909F4C7C0A8F4883709F467C038F4B4
:100C5000883609F463C0803709F460C0C9C0883899
:100C600009F4B8C0803909F45FC0803809F0C0C009
:100C70005BC0803B09F486C038F4803A09F466C052
:100C8000883A09F47FC0B4C0803C09F4A7C0883C0E
:100C900009F4A4C0883B09F48AC0AAC08091250247
:100CA00010C09091240280912302981770F5E09172
:100CB000240281E08E0F80932402F0E0ED5FFD4F6F
:100CC00080818093BB0085EC86C08093FF018EC03D
:100CD000E091240281E08E0F809324028091BB007A
:100CE000F0E0ED5FFD4F808390912402809123021C
:100CF0006EC0E091240281E08E0F809324028091E7
:100D0000BB00F0E0ED5FFD4F808380910202811116
:100D10006DC081E08093010284EA61C083E080932A
:100D200000021092FE01CFCF8091FE01803208F0C8
:100D300051C0E091FE0181E08E0F8093FE01809111
:100D4000BB00F0E0E252FE4F8083BDCF85EC809384
:100D5000BC00109200028091FE01803230F4E091DC
:100D6000FE01F0E0E252FE4F10826091FE0170E061
:100D7000E091DC01F091DD018EED91E0099510929A
:100D8000FE0136C084E0809300021092DB011092D5
:100D9000DA01E091D801F091D90109958091DA0149
:100DA000811105C081E08093DA011092B801E091D1
:100DB000DB0181E08E0F8093DB01F0E0E854FE4F11
:100DC00080818093BB009091DB018091DA019817BC
:100DD00008F479CF85E88093BC000AC085EC809345
:100DE000BC001092000204C01092FF010E94E301B7
:100DF000FF91EF91BF91AF919F918F917F916F91F3
:100E00005F914F913F912F910F900FBE0F901F90C8
:100E10001895DC01862F262F30E0F901EE5FFC4F9C
:100E2000E491F0E0EE0FFF1FE251FD4F4591549128
:100E300013965C934E931297F901EA5EFC4FE4918E
:100E4000EC93E0951196EC930C9498108EBD0000F5
:100E50000DB407FEFDCF8EB508952F923F924F92AD
:100E60005F926F927F928F929F92AF92BF92CF923A
:100E7000DF92EF92FF920F931F93CF93DF9300D0F7
:100E80001F92CDB7DEB7DC019A969C919A97892F75
:100E9000827091FD19C0FD01E153FF4FAD014B5C24
:100EA0005F4F90FD07C020813181241B350B29370E
:100EB000310554F0208131814217530708F480C175
:100EC0009E7F9A969C939A97BB83AA83512C7D010F
:100ED00027E0E20EF11C22242394312C1CEBC12EBE
:100EE00012E1D12E5D0131E9A31A3EEFB30A04E20B
:100EF000802E09E0902EEA81FB8107A510A9F80158
:100F0000808191818F3F910509F440C0F801828171
:100F100093818F3F9105E1F539C0C8010E94EE0C25
:100F200040E767E0C8010E94130DEA81FB816185FB
:100F30007285CB01009709F090C0EA81FB8155844E
:100F400082A993A96817790709F0C3C0F2E85F1670
:100F500091F220E8521609F48DC0F3EC5F1609F403
:100F60009CC0EA81FB8181A5882309F4A4C057FEB7
:100F7000A6C08CE6850D833008F4A1C028EC52167B
:100F800009F49DC033E8531609F499C0852D18C1A2
:100F900067E1C8010E946E0DF82FF1707F2E80FD71
:100FA000F5CF6FEFC8010E94F40CEA81FB8107A521
:100FB00010A9C8010E94F10C80E60E9426078FEF5D
:100FC0000E942607682EC8010E94EE0CF0E2F6157A
:100FD00008F04EC062EEC8010E94F40C62E070E0BE
:100FE00080E090E00E94B112EA81FB8174AAF7E0F0
:100FF000F71538F06AE070E080E090E00E94B112EE
:101000007ACFEA81FB8107A510A9F8014780272D37
:10101000471408F4242DF8018085811102C0421A7A
:1010200001C0412CC80129830E94F10C81E60E9475
:10103000260737012981215040F08FEF29830E9434
:101040002607F30181933F01F5CF442009F465CFD2
:101050008FEF0E9426074A94F8CF282F277026305A
:1010600008F049CFE3E096958795EA95E1F762CFDE
:10107000762CBACF6432794009F473CFEA81FB81D0
:101080009286818642E064E279E0CF010E94F60810
:101090006AE070E080E090E03AC06115710509F403
:1010A00060CFEA81FB81708767831286118640E0FA
:1010B00060E070E033C0F1EC5F1609F45ACFB7017D
:1010C0008A819B810E943E02823009F014CF83E81E
:1010D00077C06034710509F06DC042EC541220C035
:1010E000EA81FB8122A523FD06CF8432F9E09F0728
:1010F00009F401CFEA81FB8127813085328721877E
:1011000090878783F501608170E080E090E00E9425
:10111000B112EA81FB816185728542E0CF014DC049
:10112000B7018A819B810E943E02182FEA81FB81D0
:1011300080818823D9F182A993A99C0153E0369537
:1011400027955A95E1F7232B19F0F6013197F1F71E
:10115000837099279C0148E552E0249FC001259F98
:10116000900D349F900D11240E94A812EA81FB81FA
:1011700021A9222379F030E021503109C901880FDB
:10118000991F280F391FB10102C0660F771F2A95DA
:10119000E2F702C060E070E083E0660F771F8A9597
:1011A000E1F744E08A819B810E94F608123009F041
:1011B000A2CE8DCF41E08A819B810E94F6089BCE12
:1011C0000F900F900F90DF91CF911F910F91FF9093
:1011D000EF90DF90CF90BF90AF909F908F907F90D7
:1011E0006F905F904F903F902F900895CF92DF9235
:1011F000EF92FF920F931F93CF93DF9300D000D015
:10120000CDB7DEB7FC0195859B012115310561F055
:10121000822F8770863030F483E0369527958A9543
:10122000E1F7F3CF80E097C09154EE24E3949F3729
:1012300008F0E12CF42E6B018F0119821A821B82B7
:101240001C827A8369834B83BE016F5F7F4FCF011E
:101250000E94301069817A812C814B81C8010E94E3
:101260006B0FF1E0FF1227C0811102C0F12C6AC0A0
:1012700089819A818C159D0501F5EE20F1F081ECB4
:10128000F801858787819085928781879A838983F2
:10129000FB821C82BE016F5F7F4FC8010E9430102D
:1012A00088E0F80184AB69817A812C814B81C80187
:1012B0000E946B0F02C08823C9F289819A818C1524
:1012C0009D0519F4FF24F3943DC0FF2019F0F3E0CD
:1012D000FF12F8CFEE20B1F3F80182A582FF11C012
:1012E000418152816381748187A590A90E94F71280
:1012F000F80182A58B7F82A760E087A590A90E9454
:101300001A11F80187A590A90E94230E0E94EB12E2
:101310006B017C01C8010E942D07813C99F20E945B
:10132000EB12AB01BC014C195D096E097F09F80194
:1013300085819681A0E0B0E084179507A607B707DE
:1013400048F794CFF80182A582FD04C087A590A933
:101350000E94230E8F2D0F900F900F900F90DF9112
:10136000CF911F910F91FF90EF90DF90CF90089554
:10137000EF92FF920F931F93CF93DF93EC017B01CA
:10138000BA018AA99BA9F70191838083DE01179690
:1013900088E001900D928A95E1F72115310529F039
:1013A000A901CE010F960E94AE1CF70162817381E4
:1013B0000833110561F06034710511F444E001C097
:1013C00043E06017710709F442E0B80101C040E052
:1013D000CE01DF91CF911F910F91FF90EF900C9470
:1013E000F6082F923F924F925F926F927F928F9268
:1013F0009F92AF92BF92CF92DF92EF92FF920F93A4
:101400001F93CF93DF93EC017B015A0169014801DF
:101410000E94EB124BA45CA46DA47EA4DC01CB0162
:1014200084199509A609B7094997A105B10528F4BA
:10143000CE010E942D0787FFEBCF8CE891E001974A
:10144000F1F789E1C816D104B0F488E08C0D8CABBB
:1014500084019601A501B701CE010E94B809182F99
:10146000882311F011E092C00E94EB126BA77CA7B9
:101470008DA79EA78BC0E1E9CE16D10408F085C0E8
:10148000C60168E170E00E946D1A21E0892B09F421
:1014900020E0C60168E170E00E946D1A722E760E9F
:1014A000F701828193818034910539F08AA58460A7
:1014B0008AA78FA598A90E94EE0DF7014680512CAE
:1014C000612C84E9282E96E9392EF7017782F1E024
:1014D0007F1204C0F7013682478208C0611003C042
:1014E000F701268203C085E9F7018683E8E16E9E55
:1014F000A00111249601241B350B2931310510F070
:1015000028E130E088E0820F8CAB4A0D5B1D84013E
:10151000B701CE010E94B809182F81110BC062E0FB
:1015200070E080E090E00E94B1125394F2E0F51573
:1015300060F606C07A946394772011F0512CC5CFE1
:10154000F70146828AA582FF12C049815A816B81C8
:101550007C818FA598A90E94F712182F8FA598A9B2
:101560000E94230E60E08FA598A90E941A118AA5F7
:101570008B7F8AA7112349F0772009F473CF0E944B
:10158000EB126BA77CA78DA79EA710E0812FDF91A0
:10159000CF911F910F91FF90EF90DF90CF90BF9070
:1015A000AF909F908F907F906F905F904F903F9003
:1015B0002F900895CF93DF93EC01862FF894EB8959
:1015C000FC892081442319F09989922B02C09A89C1
:1015D00092239083789490E59CBD91E09DBDF89412
:1015E000EF85F88920819E859223908378940E94CC
:1015F0002607F894EF85F88990818D85892B808363
:101600007894DF91CF910895CF92DF92EF92FF927D
:101610000F931F93CF93DF936C017A018B01C0E08E
:10162000D0E0CE15DF0589F0D8016D918D01D6018E
:10163000ED91FC910190F081E02DC6010995892B77
:1016400011F47E0102C02196ECCFC701DF91CF914A
:101650001F910F91FF90EF90DF90CF900895FC01C4
:10166000538D448D252F30E0842F90E0821B930B07
:10167000541710F0CF96089501970895FC01918DAD
:10168000828D981761F0828DDF01A80FB11D5D96E4
:101690008C91928D9F5F9F73928F90E008958FEF52
:1016A0009FEF0895FC01918D828D981731F0828D06
:1016B000E80FF11D858D90E008958FEF9FEF08955D
:1016C000FC01918D228D892F90E0805C9F4F821BC1
:1016D00091098F739927089588E292E00E94600B28
:1016E00021E0892B09F420E0822F0895FC01848DEC
:1016F000DF01A80FB11DA35ABF4F2C91848D90E03C
:1017000001968F739927848FA689B7892C93A08916
:10171000B1898C9180648C93938D848D981306C0CD
:101720000288F389E02D80818F7D80830895EF9278
:10173000FF920F931F93CF93DF93EC0181E0888F8B
:101740009B8D8C8D981305C0E889F989808185FD72
:1017500024C0F62E0B8D10E00F5F1F4F0F73112763
:10176000E02E8C8DE8120CC00FB607FCFACFE8898A
:10177000F989808185FFF5CFCE010E94760BF1CFEC
:101780008B8DFE01E80FF11DE35AFF4FF0820B8FA6
:10179000EA89FB898081806207C0EE89FF896083C6
:1017A000E889F98980818064808381E090E0DF911D
:1017B000CF911F910F91FF90EF900895CF93DF93FA
:1017C000EC01888D8823C9F0EA89FB89808185FD39
:1017D00005C0A889B9898C9186FD0FC00FB607FC9A
:1017E000F5CF808185FFF2CFA889B9898C9185FFDB
:1017F000EDCFCE010E94760BE7CFDF91CF91089518
:1018000080E090E0892B29F00E946C0B81110C94F0
:10181000000008950E94A91CCF93DF93EC019CB5B2
:101820009F7D9CBD9CB5937F9CBD9CB59C7F9CBDC2
:101830009DB591609DBD8A810E945C128C899D89B5
:10184000DF91CF910C94A8126115710579F0FB011D
:1018500001900020E9F73197AF01461B570BDC01DF
:10186000ED91FC910280F381E02D099480E090E0FD
:1018700008954F925F926F927F92EF92FF920F9333
:101880001F93CF93DF93CDB7DEB7A1970FB6F89430
:10189000DEBF0FBECDBF7C01FA01CB0119A2223001
:1018A00008F42AE08E010F5D1F4F422E512C612C4F
:1018B000712CBF01A30192010E94811AF901CA0192
:1018C000015011096A3014F4605D01C0695CD801EF
:1018D0006C93232B242B252B61F7B801C7010E94A1
:1018E000240CA1960FB6F894DEBF0FBECDBFDF91DA
:1018F000CF911F910F91FF90EF907F906F905F902D
:101900004F9008950F931F93CF93DF93EC010E94A4
:10191000240C8C0164E871E0CE010E94240C800F3D
:10192000911FDF91CF911F910F9108951F920F92F8
:101930000FB60F9211242F933F934F935F936F93A2
:101940007F938F939F93AF93BF93EF93FF9388E21F
:1019500092E00E94760BFF91EF91BF91AF919F9122
:101960008F917F916F915F914F913F912F910F9048
:101970000FBE0F901F9018951F920F920FB60F92E7
:1019800011242F938F939F93EF93FF93E09138024D
:10199000F09139028081E0913E02F0913F0282FD98
:1019A00012C09081809141028F5F8F73209142021B
:1019B000821751F0E0914102F0E0E85DFD4F958F14
:1019C0008093410201C08081FF91EF919F918F919F
:1019D0002F910F900FBE0F901F90189561E00C94FF
:1019E0000C0C60E00C940C0CEF92FF921F93CF93C1
:1019F000DF931F92CDB7DEB77C0169830E94F10CA3
:101A00006981862F0E942607182FC7010E94EE0CBD
:101A1000812F0F90DF91CF911F91FF90EF9008954C
:101A200061EE0C94F40CEF92FF921F93CF93DF932F
:101A300000D0CDB7DEB77C014A8369830E94F10CE8
:101A40006981862F8F7180620E942607182F4A8134
:101A5000842F0E942607C7010E94EE0C812F0F9051
:101A60000F90DF91CF911F91FF90EF900895CF924B
:101A7000DF92EF92FF920F931F93CF93DF9300D0EB
:101A80001F92CDB7DEB77C01142F2A835B83698355
:101A90000E94F10C6981862F8F7180620E94260757
:101AA000082FC12E5B81D52E2A81120F1C1531F013
:101AB000F60181916F010E942607F8CFC7010E94AD
:101AC000EE0C802F0F900F900F90DF91CF911F9110
:101AD0000F91FF90EF90DF90CF900895EF92FF92DB
:101AE0001F93CF93DF931F92CDB7DEB77C0169833D
:101AF0000E94F10C6981862F8F710E9426078FEF5B
:101B00000E942607182FC7010E94EE0C812F0F900C
:101B1000DF91CF911F91FF90EF900895EF92FF9288
:101B20000F931F93CF938C017B0166E00E946E0D93
:101B3000C82FC77D82E0E816F10431F4C0628BE95A
:101B400090E0A0E0B0E00DC0EA94EF2829F085E530
:101B500090E0A0E0B0E005C0C86081E490E0A0E0C3
:101B6000B0E0F801808B918BA28BB38B4C2F66E099
:101B7000C8010E94130D66E0C8010E946E0D91E03D
:101B80008C1390E0892FCF911F910F91FF90EF90D0
:101B90000895CF93DF93EC0160E00E946E0D81FD0C
:101BA0000EC0482F426060E0CE010E94130D65E038
:101BB00070E080E090E0DF91CF910C94B112DF9162
:101BC000CF910895FC012081318182819381281772
:101BD000390719F0822F0C945C120895CF93DF938C
:101BE000EC0160E00E94E20D888999890E94A812A8
:101BF0006DE1CE010E946E0D81FF07C08889998931
:101C00000E94A812CE010E94100D60E0CE010E9439
:101C10006E0D482F4E7F60E0CE010E94130D62E0F2
:101C2000CE010E946E0DECEDF2E0E49141E050E057
:101C300001C0440FEA95EAF7482B62E0CE01DF913C
:101C4000CF910C94130DCF93DF93EC010E94C90D3B
:101C500060E0CE010E946E0D482F416060E0CE0131
:101C60000E94130D40E767E0CE010E94130D61E072
:101C7000CE010E94E20D8985882349F02E85AE01B0
:101C8000475F5F4F6AE0CE010E94370D14C062E0EB
:101C9000CE010E946E0DECEDF2E0E49121E030E027
:101CA00001C0220FEA95EAF72095422F482362E00F
:101CB000CE010E94130D6DE1CE010E946E0D81FFD9
:101CC00005C0CE01DF91CF910C94100DDF91CF9123
:101CD00008951F93CF93DF93EC01888199812A8126
:101CE0003B818217930711F00E9498108A819B8193
:101CF000288139812817390711F00E9498101FB7E1
:101D0000F89480912702811124C0ECE0F3E08491E3
:101D1000E0E2F3E09491E82FF0E0EE0FFF1FE850CF
:101D2000FD4FA591B491EC91E92321F461E08AE0A3
:101D30000E945C128AE00E9498108CB580618CBD74
:101D40008CB580648CBD8DE00E9498108BE00E9461
:101D50009810809127028F5F809327021FBF60E059
:101D6000CE010E94E20D61E0CE010E940C0C65E004
:101D700070E080E090E00E94B1124CE060E0CE01A3
:101D80000E94130D4FE564E0CE010E94130D62E046
:101D900070E0CE010E948E0D882311F081E08E83C9
:101DA00066E0CE010E946E0D182F60E070E0CE015B
:101DB0000E948E0DCE010E94F10C80E50E94260744
:101DC00083E70E942607CE010E94EE0C40E06DE101
:101DD000CE010E94130D40E06CE1CE010E94130D74
:101DE000188640E767E0CE010E94130D4CE465E0E1
:101DF000CE010E94130D62EECE010E94F40CCE01C2
:101E00000E94100DCE010E94C90D60E0CE010E941B
:101E10006E0D482F4E7F60E0CE010E94130D1150D1
:101E200081E01E3F08F080E0DF91CF911F9108957F
:101E3000CF93DF93CDB7DEB728970FB6F894DEBF08
:101E40000FBECDBFAC019CEC99839A839B839C838E
:101E50009D831E821F8218869A01E1E021153105BB
:101E6000C9F0611103C04115510569F4D901A7708A
:101E7000BB27A15FBE4F8C91A1E0B0E0AC0FBD1FAE
:101E8000AE0FB11D8C9383E0369527958A95E1F7C7
:101E9000EF5FE4CF611102C0452B39F4E62FF0E08B
:101EA000E15FFE4F8081898305C0F0E0E25FFE4F75
:101EB00080818A8329813A814B815C816D817E8119
:101EC0008F81988528960FB6F894DEBF0FBECDBFE0
:101ED000DF91CF9108956F927F928F929F92AF92F0
:101EE000BF92CF92DF92EF92FF920F931F93CF9307
:101EF000DF93CDB7DEB728970FB6F894DEBF0FBEDD
:101F0000CDBF8C01CB01D22E642F0E94180F390156
:101F10004A015B017C01F80182A582FD04C087A50E
:101F200090A90E94EE0DF80187A590A9DD2011F07F
:101F300060E001C061E00E941A11F801C7A4D0A8B6
:101F400069827A828B829C82AD82BE82EF82F88621
:101F5000F6012685AE014F5F5F4F6AE0C6010E9421
:101F6000370DF6012685AE014F5F5F4F60E1C60178
:101F70000E94370DF601478161E1C6010E94130DF1
:101F8000F801B4A8C7A4D0A86FEFC6010E94F40C52
:101F900080FF0DC06FEFC6010E94F40C84FFF4CFE8
:101FA00040E167E0C6010E94130DF12C30C0F6013C
:101FB000F780EF2CBF1408F4EB2CF601808581111B
:101FC00002C0FE1801C0F12CC6010E94F10C80EA8B
:101FD0000E9426075801F7E0AF0EB11CEA0CEA1484
:101FE00031F0F50181915F010E942607F8CFFF20B3
:101FF00029F080E00E942607FA94F9CFC6010E94DA
:10200000EE0C61E0C6010E94E20DFF24F394F8019A
:1020100082A582FD0FC0418152816381748187A5B1
:1020200090A90E94F712F82E60E0F80187A590A908
:102030000E941A118F2D28960FB6F894DEBF0FBE9E
:10204000CDBFDF91CF911F910F91FF90EF90DF9067
:10205000CF90BF90AF909F908F907F906F9008959A
:10206000CF93DF93DC01FB01EC01C359DE4F6881A4
:10207000798122969881828140815181823028F035
:10208000BA0181E0838390E027C0ED01C059DE4FA3
:1020900028813981EA01C223D323D2960D90BC91C5
:1020A000A02DCA17DB07C1F4C9018095909563E0A4
:1020B000880F991F6A95E1F784239523892B51F0A6
:1020C00083E0220F331F8A95E1F72760BA0162236C
:1020D000732301C0BA0195E071836083928381E02C
:1020E000DF91CF9108953FB7F8948091810490914A
:1020F0008204A0918304B091840426B5A89B05C0F6
:102100002F3F19F00196A11DB11D3FBFBA2FA92F76
:10211000982F8827820F911DA11DB11DBC01CD01F3
:1021200043E0660F771F881F991F4A95D1F70895DE
:1021300090E0FC01EA5EFC4F2491FC01EE5FFC4F55
:102140008491882399F090E0880F991FFC01E85052
:10215000FD4FA591B491FC01E251FD4F8591949101
:102160008FB7F894EC91E22BEC938FBF08950F9307
:102170001F93CF93DF938C01C0E0D0E0F801EC0F08
:10218000FD1F6491662371F0E0912802F09129020D
:102190000190F081E02D88E292E00995892B11F001
:1021A0002196ECCF64E871E088E292E00E94240C72
:1021B0008C0F9D1FDF91CF911F910F910895CF92AA
:1021C000DF92EF92FF920F931F93CF93DF93EC0177
:1021D0006B01770FEE08FF08F7FE16C0E881F98162
:1021E0000190F081E02D6DE209958C01442755277F
:1021F000BA014C195D096E097F092AE0CE010E94DF
:10220000390C080F191F06C02AE0B701A6010E9469
:10221000390C8C0164E871E0CE010E94240C800F1F
:10222000911FDF91CF911F910F91FF90EF90DF9061
:10223000CF9008951F93CF93DF93EC01162F61E0A9
:102240000E946E0D482F112311F0416001C04E7F96
:1022500061E0CE01DF91CF911F910C94130D7F921D
:102260008F929F92AF92BF92CF92DF92EF92FF92A6
:102270000F931F93CF93DF93CDB7DEB728970FB699
:10228000F894DEBF0FBECDBFFC019B0121153105C7
:1022900059F0822F8770863008F0FAC0A3E0369597
:1022A0002795AA95E1F7F2CF62AB73AB87A590A90A
:1022B000DC012D913C912F3F310509F4E9C0DC018F
:1022C00012962D913C9113972F3F310509F4E0C0F0
:1022D000E72EF62E8F0160E00E941A11F801C7A4C4
:1022E000D0A86DE1C6010E946E0D482F44606DE1DB
:1022F000C6010E94130D6CE1C6010E946E0D482FAD
:102300004F636CE1C6010E94130D81E0D60118965F
:102310008C93F80182A993A966E070E00E946D1A7F
:10232000482F440F4B5FF0E14F9FA00111244560FF
:1023300064E0D8019F968D919C91D0970E94130DD7
:1023400089E190E0A0E0B0E0F80181839283A3836B
:10235000B4838BE490E09683858382A993A940E0BF
:102360002FEF3FEFB90168237923672B39F073E032
:10237000220F331F7A95E1F74F5FF4CFF80141AB9D
:1023800020953095E059FE4F3183208363E03695E8
:1023900027956A95E1F73397A9014823592351837B
:1023A00040832115310559F043E0969587954A956C
:1023B000E1F753E0369527955A95E1F7F2CFF8010A
:1023C000E159FE4F808386E0782E88248394912CF7
:1023D0007A94FFEF7F1609F454C0672D8F2D9E2D40
:1023E0000E94180FD8019F96CD90DC90D09729833A
:1023F0003A834B835C836D837E838F839887A72C7E
:10240000B12C71100BC0F601468550E0BE016F5F24
:102410007F4FC60109960E94AE1C03C0F1E07F12F7
:1024200008C0F501E851FD4F6491D6011E962C912C
:1024300005C0F501E851FD4F649121E0AE014F5F09
:102440005F4FC6010E94370DF501EE51FD4F6491BB
:10245000F6014781C6010E94130D62E0C6010E9489
:102460006E0DF501E452FD4FE491940101C0220F7D
:10247000EA95EAF7482F422B62E0C6010E94130D4D
:10248000A7CFD8019F968D919C91D0970E94230E43
:1024900028960FB6F894DEBF0FBECDBFDF91CF9167
:1024A0001F910F91FF90EF90DF90CF90BF90AF9072
:1024B0009F908F907F90089590E0FC01E853FD4F2E
:1024C0003491FC01EA5EFC4F2491FC01EE5FFC4F6D
:1024D000E491EE2309F43BC0332339F1333091F01A
:1024E00038F43130A9F0323001F584B58F7D12C057
:1024F000373091F03830A1F03430B9F48091800059
:102500008F7D03C0809180008F77809380000DC005
:1025100084B58F7784BD09C08091B0008F7703C0E8
:102520008091B0008F7D8093B000F0E0EE0FFF1F30
:10253000E251FD4FA591B4918FB7F894EC916111E0
:1025400003C020952E2301C02E2B2C938FBF0895FE
:102550008330910528F0880F991F04970197F1F7B0
:1025600008958F929F92AF92BF92CF92DF92EF9297
:10257000FF926B017C010E9473104B015C01C1143E
:10258000D104E104F104F1F00E947310DC01CB01ED
:1025900088199909AA09BB09883E9340A105B1058C
:1025A00070F321E0C21AD108E108F10888EE880E24
:1025B00083E0981EA11CB11CC114D104E104F104F4
:1025C00019F7DDCFFF90EF90DF90CF90BF90AF90E5
:1025D0009F908F9008952FB7F89460917D0470912B
:1025E0007E0480917F04909180042FBF08958F9284
:1025F0009F92AF92BF92CF92DF92EF92FF92CF93D2
:10260000DF93EC014A015B010E94EB126B017C013C
:1026100067E1CE010E946E0D84FD29C06FEFCE01EF
:102620000E94F40C84FFF4CF40E167E0CE010E94E9
:10263000130D60E0CE010E94E20D61E0CE010E9428
:10264000E20D0E94EB12DC01CB018C199D09AE0951
:10265000BF0988159905AA05BB05D0F260E0CE0137
:102660000E94E20DCE010E94100D80E005C060E0E6
:10267000CE010E94E20D81E0DF91CF91FF90EF90BB
:10268000DF90CF90BF90AF909F908F9008951F9252
:102690000F920FB60F9211242F933F938F939F9316
:1026A000AF93BF9380917D0490917E04A0917F04AD
:1026B000B091800430917C0426E0230F2D3720F464
:1026C0000296A11DB11D05C029E8230F0396A11D87
:1026D000B11D20937C0480937D0490937E04A0938D
:1026E0007F04B09380048091810490918204A09132
:1026F0008304B09184040196A11DB11D80938104CF
:1027000090938204A0938304B0938404BF91AF910B
:102710009F918F913F912F910F900FBE0F901F901F
:102720001895CF93DF93CDB7DEB763970FB6F894C4
:10273000DEBF0FBECDBF789484B5826084BD84B502
:10274000816084BD85B5826085BD85B5816085BDAC
:1027500080916E00816080936E0010928100809164
:1027600081008260809381008091810081608093EC
:102770008100809180008160809380008091B10011
:1027800084608093B1008091B00081608093B0003C
:1027900080917A00846080937A0080917A008260D0
:1027A00080937A0080917A008E7F80937A00809166
:1027B0007A00806880937A001092C1008FE494E0E0
:1027C0000E94690E66E08FE494E00E946E0D887F9F
:1027D000482F456066E08FE494E00E94130D60E0AE
:1027E00070E08FE494E00E948E0D88E00E949810C3
:1027F00060E088E00E945C126AE070E080E090E0B7
:102800000E94B11261E088E00E945C126AE070E010
:1028100080E090E00E94B11267E084E794E00E94BB
:10282000090766E088E794E00E9409072A9A229A3D
:10283000239A259A10926B0410926C04ECE6F2E055
:1028400085919491E82EEEE6F2E0F490EFE6F2E066
:10285000E491E0936D04E0E7F2E0E491E0936E042C
:10286000E1E7F2E0E491E0936F048C01802F8E1990
:102870008F1548F4F801649187E694E00E94A20362
:102880000F5F1F4FF3CF1092710487E694E00E9410
:10289000BF0581E890E0909373048093720487E60B
:1028A00094E00E94BF0512E01093700468E471E0A8
:1028B00087E694E00E94820C60E571E087E694E090
:1028C0000E94820CE0913802F09139021083E0916D
:1028D0003402F09135021082E0913602F091370215
:1028E00088E0808310924002E0913C02F0913D022A
:1028F00086E08083E0913A02F0913B028081806122
:102900008083E0913A02F0913B028081886080836D
:10291000E0913A02F0913B02808180688083E091EF
:102920003A02F0913B0280818F7D80831092C70232
:1029300060E070E088E292E00E94DF108091CB02BC
:102940009091CC020E94690E81E68093D80241E604
:1029500065E08091CB029091CC020E94130D60E063
:1029600070E08091CB029091CC020E948E0D00917C
:10297000CD021091CE0281E0D80199968C9380917E
:10298000C702882381F004E219E01093C602009385
:10299000C50267E18091CB029091CC020E946E0D3E
:1029A00080FF14C0BCC286E090E00E94B21A9093EF
:1029B000C9028093C8021092CA021092C6021092F5
:1029C000C50260E070E0C8010E942F1168E571E067
:1029D00088E292E00E94240C64E670E080E090E0DF
:1029E0000E94B11288E292E00E94600B892B71F381
:1029F00088E292E00E943E0B813441F787E694E042
:102A00000E94BF056EE571E087E694E00E94820CAB
:102A100065E671E087E694E00E94820C64EF71E065
:102A200080E090E00E94B11287E694E00E94BF052A
:102A30006EE671E087E694E00E94820C76EC572EF9
:102A400044244394E8E03E2EF6EF8F2E99249A9486
:102A5000AAE96A2E712C8091CD029091CE020E943B
:102A60002D074091C5025091C602443229E0520719
:102A700009F4DDC0833C11F44092CF029091C7026B
:102A80009111D5C0982F9D7F943C09F0AEC0E09184
:102A9000CD02F091CE027F0197E0E90EF11C278173
:102AA0003085328721872785843C41F54091CA02D1
:102AB0008091C8029091C90230E0341789F08C01EE
:102AC0000396BC0163507109DB015C91521306C08F
:102AD000D80111968D919C91129704C03F5FEDCF64
:102AE0008FEF9FEF9A83898308E310E022E030E0C4
:102AF000AE014F5F5F4FB701CF0174C030E03A8B3A
:102B0000298B2115310509F45DC0452BC1F4509185
:102B1000CA028091C8029091C90240E0451709F4A9
:102B20004EC0FC010396DC0112976D917C916217F7
:102B3000730719F4808190E047C04F5FEFCF1C828C
:102B40001B8280910001909101019C012F5F3F4FFA
:102B500030930101209300019E838D835F8208E3FF
:102B600010E022E030E0AE014F5E5F4FBE016F5FCC
:102B70007F4FCF010E94F109882309F10E94EB12D7
:102B80005B016C018091CD029091CE020E942D07D5
:102B9000863C71F00E94EB12DC01CB018A199B0983
:102BA000AC09BD09853F9140A105B10558F307C0A7
:102BB000E091CD02F091CE028785908905C08FEF1C
:102BC0009FEF02C080E090E09A83898308E310E0E1
:102BD00022E030E0AE014F5F5F4FB7018091CD0240
:102BE0009091CE020E94F10922C0853C01F5A0918E
:102BF000CD02B091CE022091C8023091C90280E08E
:102C00009091CA02891798F4F90193E0899FE00D29
:102C1000F11D11246181728117964D915C91189775
:102C20006417750711F4128211828F5FE9CF8091CA
:102C3000CF02882309F459C01092CF02E091CD024F
:102C4000F091CE023796DE011196832D01900D9200
:102C50008A95E1F7F884FF2009F447C049815A8139
:102C60004432A9E05A0791F09A0180E0211531051C
:102C700039F063E0369527956A95E1F78F5FF6CFD7
:102C8000182F110F180FBA0180E004C081E010E086
:102C900060E070E090E00496E090CA02D090C80234
:102CA000C090C9029C01012E02C0220F331F0A945A
:102CB000E2F7262B372B21153105A9F0ED2DFC2D40
:102CC00000E00E1509F496C2A181B281A217B307E4
:102CD00019F4A081AF1107C033962432B9E03B0745
:102CE00011F00F5FEECF0197E9F6E090AC03F090A2
:102CF000AD0382E1E81683E0F80609F008F46EC03F
:102D0000D090180300911A0310911B039DE4D9126F
:102D100042C0A8010830110510F047E050E06CE116
:102D200073E082E091E00E94AE1CC401801B910B15
:102D30008E0D9F1D9093AD038093AC03A301401BA8
:102D4000510BB801645E7C4F82E193E00E94B71C96
:102D500069E771E088E292E00E94240C62E071E091
:102D600088E292E00E94240C62E071E088E292E046
:102D70000E94240C87E694E00E94BF0569E771E099
:102D800087E694E00E94820C62E071E087E694E0BE
:102D90000E94820C23C09401201B310BC701820FBB
:102DA000931F9093AD038093AC03A301401B510B81
:102DB000B801645E7C4F82E193E00E94B71C4D2D08
:102DC00050E060E070E02AE088E292E00E94390C76
:102DD00064E871E088E292E00E94240C0E94EB1209
:102DE0005B016C019B01A60160E070E080E090E077
:102DF000A090B001B090B101C090B201D090B301E9
:102E0000E090B401F090B5010091B6011091B701C6
:102E10000E94A31A28383341410551056105710507
:102E20008105910509F00CF477C00E94EB128B012B
:102E30009C016093B0011093B1012093B2013093D3
:102E4000B3011092B4011092B5011092B601109224
:102E5000B7016EE871E088E292E00E94820C85E999
:102E600092E00E94B710E12CF12C00E010E080917C
:102E7000CA0290E008171907B4F567E871E088E224
:102E800092E00E94240CE091C802F091C902EE0D7C
:102E9000FF1D408150E060E070E02AE088E292E0AF
:102EA0000E94390C60E971E088E292E00E94240CF3
:102EB000E091C802F091C902EE0DFF1D41815281DF
:102EC00060E070E028E088E292E00E94390C64E85B
:102ED00071E088E292E00E94240C0F5F1F4FB3E084
:102EE000EB0EF11CC4CF87E694E00E94BF056EE6AE
:102EF00071E087E694E00E94820C68EA71E087E660
:102F000094E00E94240CB80187E694E00E94DF1050
:102F100082E792E00E94B7100E94000C9CCD809145
:102F2000CB029091CC020E94EE0DE091CD02F09187
:102F3000CE0282A5826082A76AE070E080E090E025
:102F40000E94B11264E279E08091CD029091CE02AC
:102F50000E942F111093C6020093C5020E94EB122B
:102F60002B013C01C12CE12C90E4292E312C3C8614
:102F70002B8680910001909101019C012F5F3F4FB2
:102F800030930101209300019E878D87F2ECFF872B
:102F90008091CD029091CE02DC01D2962D913C9190
:102FA000D3973A872987EE2089F02E2D30E02150E3
:102FB0003109A901440F551F240F351F01E010E00E
:102FC00002C0000F111F2A95E2F702C000E010E0D6
:102FD00020E030E040E050E0BE01675F7F4F0E949C
:102FE000F1090E94EB124B015C01F12C8091CD02A2
:102FF0009091CE020E942D07823C89F4FE01319609
:10300000EF0DF11DEF0DF11DA091CD02B091CE029B
:1030100017968D919C91189791838083F3940E94C9
:10302000EB12DC01CB0188199909AA09BB09C897E1
:10303000A105B10520F4B3E0BF15C0F633C0F1100F
:1030400031C00E94EB12DC01CB0184199509A6095D
:10305000B70981369A4EA105B10508F0B7CC2C2DE1
:1030600030E02F5F3F4F8E2D90E00196289FB001FA
:10307000299F700D389F700D1124675E7F4F660F7A
:10308000771F072E000C880B990B0E94B11281E06C
:103090008E0D8370E82E81E08C0D6AE00E94611A2B
:1030A000C92E65CFD12C1B8ADF1408F03FC0E3EC9A
:1030B000EF878091C702888BFE013196ED0DF11DDF
:1030C000ED0DF11D008111811C870B8720E030E0A0
:1030D00040E050E0BE01675F7F4F8091CD0290914C
:1030E000CE020E94F1090E94EB124B015C010E948A
:1030F000EB12DC01CB0188199909AA09BB09813EB1
:103100009105A105B10550F48091CD029091CE02B8
:103110000E942D078B8B803851F7DF2C65E070E023
:1031200080E090E00E94B112D394BECFFB89F038CA
:1031300009F087CFE091CD02F091CE02878590898A
:10314000009709F47ECF36852091C702321379CFDC
:103150009093C6028093C5028091CB029091CC02DD
:103160000E94EE0D6AE070E080E090E00E94B112F3
:103170006091C5027091C6028091CD029091CE02FD
:103180000E942F111C861B86E1E8EF8787E0F82E4E
:1031900008E310E020E030E040E050E0BE01675F6F
:1031A0007F4F8091CD029091CE020E94F109811152
:1031B00019C0FA94F1100FC064E279E08091CD0259
:1031C0009091CE020E942F1184E299E09093C60262
:1031D0008093C50236CF63E070E080E090E00E940B
:1031E000B112D6CFE091CD02F091CE0282A58D7FB3
:1031F00082A7ECCB3A87298780E88F835C834B8357
:103200006AE070E080E090E00E94B11289819A81CA
:1032100084329940C9F062E070E080E090E00E9462
:10322000B11208E310E022E030E0AE01475F5F4FEB
:10323000BE016F5F7F4F8091CD029091CE020E94C0
:10324000F109811117C008C062E070E080E090E0F1
:103250000E94B1120B811C8122E030E0AE01475F79
:103260005F4FBE016F5F7F4F8091CD029091CE0284
:103270000E94F1090E94EB125B016C0189859A851D
:103280009093DC028093DB028F2D90E09093DA0222
:103290008093D9028091CD029091CE020E942D0799
:1032A0008138B1F00E94EB12AB01BC014A195B09F5
:1032B0006C097D09E091CD02F091CE028581968165
:1032C000A0E0B0E084179507A607B70718F70DCD63
:1032D000A985BA856091CA028091C8029091C902FD
:1032E000AC0120E0261751F04D5F5F4FFA01339794
:1032F00030813F1511F02F5FF5CF622FFC0123E0E5
:10330000629FE00DF11D1124F082B283A183209110
:10331000CA026213EACC6F5F6093CA0270E06F5F0B
:103320007F4F9B01220F331F620F731F0E94DF1B11
:103330009093C9028093C802D8CCCF93DF93E8E280
:10334000F2E01382128288EE93E0A0E0B0E0848382
:103350009583A683B7832AE131E03183208325EC6E
:1033600030E03587248724EC30E03787268720EC4F
:1033700030E0318B208B21EC30E0338B228B22EC40
:1033800030E0358B248B26EC30E0378B268B118E8A
:10339000128E138E148EE5E8F4E013821282848379
:1033A0009583A683B7838CE291E091838083E7E6DF
:1033B000F4E01382128281E08187148613868EE303
:1033C00091E091838083EFE4F4E08AE090E09183E0
:1033D000808385E090E093838283168280E28783F6
:1033E000108685E0868785E090E0A0E0B0E0848BE1
:1033F000958BA68BB78B1186ADEDB2E0D096FC9382
:10340000EE939F9782E193E09093AD038093AC039A
:103410008AEB93E09093B9038093B8038EEA93E02C
:1034200098969C938E9397979B961D921D921D92B2
:103430001C929E979A961C929A9799961C9299978D
:103440001C92C5ECD2E0FF83EE83B987A887DF9199
:10345000CF9108952F923F924F925F926F927F92F9
:103460008F929F92AF92BF92CF92DF92EF92FF9294
:103470000F931F93CF93DF93CDB7DEB7CA1BDB0B40
:103480000FB6F894DEBF0FBECDBF09942A883988E5
:1034900048885F846E847D848C849B84AA84B984EC
:1034A000C884DF80EE80FD800C811B81AA81B981F8
:1034B000CE0FD11D0FB6F894DEBF0FBECDBFED010C
:1034C0000895991B79E004C0991F961708F0961B80
:1034D000881F7A95C9F780950895AA1BBB1B51E1F7
:1034E00007C0AA1FBB1FA617B70710F0A61BB70B74
:1034F000881F991F5A95A9F780959095BC01CD0119
:103500000895A1E21A2EAA1BBB1BFD010DC0AA1F24
:10351000BB1FEE1FFF1FA217B307E407F50720F03C
:10352000A21BB30BE40BF50B661F771F881F991FB7
:103530001A9469F760957095809590959B01AC0100
:10354000BD01CF0108952A193B094C095D096E0997
:103550007F09800B910B0895EE0FFF1F0590F491EA
:10356000E02D0994CF93DF938230910510F482E02F
:1035700090E0E0919304F091940420E030E0C0E00A
:10358000D0E0309711F14081518148175907C0F0C0
:103590004817590761F482819381209719F09B8322
:1035A0008A832BC0909394048093930426C02115A2
:1035B000310519F04217530718F49A01BE01DF01D3
:1035C000EF010280F381E02DDCCF2115310509F1F7
:1035D000281B390B2430310590F412968D919C9163
:1035E00013976115710521F0FB019383828304C059
:1035F0009093940480939304FD01329644C0FD019E
:10360000E20FF31F81939193225031092D933C9344
:103610003AC02091910430919204232B41F42091DF
:103620000B0130910C01309392042093910420916E
:10363000090130910A012115310541F42DB73EB73A
:1036400040910D0150910E01241B350BE091910426
:10365000F0919204E217F307A0F42E1B3F0B2817FA
:10366000390778F0AC014E5F5F4F2417350748F0FB
:103670004E0F5F1F50939204409391048193919356
:1036800002C0E0E0F0E0CF01DF91CF9108950F9309
:103690001F93CF93DF93009709F48CC0FC013297FE
:1036A0001382128200919304109194040115110564
:1036B00081F420813181820F931F209191043091F8
:1036C00092042817390779F5F0939204E093910456
:1036D00071C0D80140E050E0AE17BF0750F4129619
:1036E0002D913C911397AD012115310509F1D901B7
:1036F000F3CF9D01DA013383228360817181860FCC
:10370000971F8217930769F4EC0128813981260FEE
:10371000371F2E5F3F4F318320838A819B819383A4
:103720008283452B29F4F0939404E093930442C0E0
:103730001396FC93EE931297ED01499159919E01D6
:10374000240F351FE217F30771F480819181840FF4
:10375000951F029611969C938E9382819381139666
:103760009C938E931297E0E0F0E0D80112968D9131
:103770009C911397009719F0F8018C01F6CF8D9169
:103780009C9198012E5F3F4F820F931F20919104CF
:10379000309192042817390769F4309729F4109270
:1037A00094041092930402C0138212821093920424
:1037B00000939104DF91CF911F910F910895A0E0A4
:1037C000B0E0E5EEFBE10C942E1AEC01009721F439
:1037D000CB010E94B21AB8C0FC01E60FF71F9C0192
:1037E00022503109E217F30708F4ACC0D9010D915A
:1037F0001C91119706171707B0F00530110508F452
:103800009FC0C80104978617970708F499C0025013
:103810001109061B170B019311936D937C93CF0134
:103820000E94471B8DC05B01A01AB10A4C01800E9B
:10383000911EA0919304B091940440E050E0E12CDB
:10384000F12C109709F44AC0A815B905D1F56D906F
:103850007C901197630182E0C80ED11CCA14DB046E
:1038600080F1A3014A195B096A0182E0C80ED11CEC
:103870001296BC9012971396AC91B5E0CB16D1047A
:1038800040F0B282A38351834083D9016D937C932E
:103890000AC00E5F1F4FC301800F911FF901918372
:1038A0008083EB2DFA2FE114F10431F0D701139648
:1038B000FC93EE93129744C0F0939404E093930426
:1038C0003FC08D919C9111974817590708F4AC019E
:1038D0007D0112960D90BC91A02DB3CF80919104E3
:1038E0009091920488159905E1F446175707C8F49A
:1038F0008091090190910A01009741F48DB79EB71C
:1039000040910D0150910E01841B950BE817F907AA
:10391000C8F4F0939204E0939104F90171836083F9
:103920000FC0CB010E94B21A7C01009759F0A80188
:10393000BE010E94AE1CCE010E94471BC70104C0FD
:10394000CE0102C080E090E0CDB7DEB7EEE00C948F
:103950004A1A81E090E0F8940C94C91CFB01DC0148
:1039600002C001900D9241505040D8F70895681759
:10397000790768F4FB01DC01E40FF51FA40FB51F04
:1039800002C002900E9241505040D8F708950C9416
:06399000AE1CF894FFCF0D
:1039960001003030302D300A00000095048000C34D
:1039A6003C33CE3EE3EC00000000970B040B2F0BDC
:1039B600DE0B600B3E0B520B0000000029021502C5
:1039C6003B02D501DC01D901D601000000001F042D
:1039D600040B3B023A02DA0A53796E63696E67009A
:1039E600776974682050430053796E630A005379EF
:1039F6006E636564007769746820504321002A2A43
:103A06004D61737465722A2A00526563656976652D
:103A1600643A20000D0A004E6F646549443A20005E
:103A260020524632344E6574776F726B204164645F
:103A3600726573733A2030004E6F6465733A2000E6
:00000001FF
