:100000000C9496010C94BE010C94BE010C94BE019C
:100010000C94BE010C94BE010C94BE010C94BE0164
:100020000C94BE010C94BE010C94BE010C94BE0154
:100030000C94BE010C94BE010C94BE010C94BE0144
:100040000C94E5120C94BE010C94A20B0C947C0B46
:100050000C94BE010C94BE010C94BE010C94BE0124
:100060000C94DB050C94BE01AED580A83FD30040B4
:100070008D142002A1C8DA12817FD9F1DB40A4A639
:10008000AF000005072061000000000000005F00D5
:10009000000007000700147F147F14242A7F2A120F
:1000A00023130864623649552250000503000000FE
:1000B0001C2241000041221C00082A1C2A080808B2
:1000C0003E0808005030000008080808080060607A
:1000D000000020100804023E5149453E00427F4086
:1000E0000042615149462141454B311814127F109D
:1000F00027454545393C4A494930017109050336D0
:1001000049494936064949291E003636000000563D
:10011000360000000814224114141414144122144F
:1001200008000201510906324979413E7E11111140
:100130007E7F494949363E414141227F4141221C4F
:100140007F494949417F090901013E414151327FBF
:100150000808087F00417F41002040413F017F089F
:100160001422417F404040407F0204027F7F040808
:10017000107F3E4141413E7F090909063E41512120
:100180005E7F09192946464949493101017F01012C
:100190003F4040403F1F2040201F7F2018207F63AA
:1001A00014081463030478040361514945430000B3
:1001B0007F4141020408102041417F0000040201F8
:1001C00002044040404040000102040020545454C6
:1001D000787F484444383844444420384444487F75
:1001E0003854545418087E090102081454543C7FB2
:1001F0000804047800447D40002040443D00007F16
:1002000010284400417F40007C041804787C0804D6
:10021000047838444444387C14141408081414181E
:100220007C7C080404084854545420043F44402073
:100230003C4040207C1C2040201C3C4030403C4442
:10024000281028440C5050503C4464544C4400083E
:1002500036410000007F0000004136080008082AEF
:100260001C08081C2A0808000609090668001980ED
:1002700040002A2A2A2A2A2A2A2A2A2A2A2A2A2AF2
:100280002A2A2A2A2A2A2A2A2A2A2A2A2A2A2A2ACE
:100290002A2A2A2A002A2A2A2A2A2A2A2A4173733F
:1002A00069676E6564204164647265737365732A5F
:1002B0002A2A2A2A2A2A2A0000030C0F30333C3F1C
:1002C000C0C3CCCFF0F3FCFF000000080002010027
:1002D000000304070000000000000000000102030A
:1002E00004051112131415160A0B0C0D0E0F000045
:1002F0000000250028002B0000000000240027003B
:100300002A00040404040404040402020202020297
:1003100003030303030301020408102040800102C9
:1003200004081020010204081020F11811241FBE37
:10033000CFEFD8E0DEBFCDBF24E0AAE8B1E001C036
:100340001D92AF36B207E1F711E0A0E0B1E0EEE3B5
:10035000F8E302C005900D92AA38B107D9F711E071
:10036000C6E9D1E004C02197FE010E94001AC539F8
:10037000D107C9F70E942F130C941D1C0C94000088
:10038000CF93DF93EC019C818E81981758F4E8811C
:10039000F9810084F185E02D42E0CE0109958C8140
:1003A0008F5F8C83DF91CF91089508958FEF9FEF3A
:1003B00008958FEF9FEF08958091000290E091954E
:1003C00081959109089585ED8093BC008091BC00D2
:1003D00084FDFCCF1092DA0108954091B401262FDC
:1003E00030E0240F311D21323105DCF42091DA0197
:1003F0002430C9F4FC0180E090E0861758F4309175
:10040000B4012191DC01AE56BE4FA30FB11D2C9358
:100410000196F3CF8091B401680F6093B40180E03E
:10042000089581E0089582E00895CF93DF9300D08E
:10043000CDB7DEB7CB01642F49835A830E94ED010B
:100440004981842F5A81952F0F900F90DF91CF9182
:100450000895CF93DF931F92CDB7DEB7698361E034
:10046000CE0101960E94ED0181E090E00F90DF91B6
:10047000CF910895089580E090E008958F929F9223
:10048000AF92BF92CF92DF92EF92FF920F931F93A2
:10049000CF93DF93EC017B01CCA8D12C86010850CF
:1004A0001109DB0116969C918CE6890F833020F0B0
:1004B000983C09F0CFC003C0943909F4E4C08BE63E
:1004C000890F823018F0983C09F08EC06E0159ED0A
:1004D000C50ED11CD6012D913C91A801420F531F8E
:1004E0004139510520F0C852DF4F1882B1C05E017A
:1004F000B8EDAB0EB11CF5018081882309F415C15C
:10050000963929F0D70117969C919813A1C0FE0146
:10051000EB52FF4F40815181F7018481958148174B
:10052000590709F095C04E01FBED8F0E911CD401C7
:100530008D919C91A801BE01615F7F4F820F931F37
:100540000E94021CF60180819181080F191F1183FE
:100550000083D70116968C91863929F0F5018081A8
:100560008150808373C0D5011C92F7018781FE0101
:10057000E952FF4F8083833809F483C07E01FFEC8A
:10058000EF0EF11CF701A081B181CE018A1B9B0BFC
:100590008B539F4F80179107F8F032968AE00190B5
:1005A0000D928A95E1F7D7018D919C91F4016081BC
:1005B0007181D6014D915C910A960E94021CF60150
:1005C000808191810A96D7012D913C911197820FDC
:1005D000931F8D939C933AC08FA598A90E94D40C29
:1005E0008AA581608AA734C07E01BFECEB0EF11CA6
:1005F000F701A081B181CE01C5969D01281B390B61
:10060000C901800F911F8B39910510F5E85CF10944
:1006100088E001900D928A95E1F7D701ED91FC9168
:100620001197118700878D919C91BE01615F7F4F6B
:10063000A8010A960E94021CB2E0CB0ED11CF70161
:1006400080819181C80ED91ED182C08281E06DC0A7
:1006500080E06BC0933841F6DE01AF52BF4FFE0120
:10066000379688E001900D928A95E1F7FE01E552F8
:10067000FF4FCE010F9691838083C752DF4F1983BE
:10068000088382E052C0F7018781873008F02BCFC2
:10069000FE01EB52FF4F40815181D70114962D91FD
:1006A0003C91159734976F014217530739F44081F5
:1006B00051812D913C914217530741F2F8E18F9FF0
:1006C000C0011124FE01E153FF4F20813181AE01B1
:1006D000421B530B9A012B533F4F281739073CF409
:1006E0008AA581608AA78FA598A90E94D40CFE01D3
:1006F000379688E0D60101900D928A95E1F7FE01C8
:10070000E552FF4FBE01615F7F4FA801808191815B
:100710000E94021CFE01E752FF4F11830083C85262
:10072000DF4F88818150888391CFDF91CF911F91D6
:100730000F91FF90EF90DF90CF90BF90AF909F9080
:100740008F900895DC01ED91FC910084F185E02DFE
:1007500040E009940F931F93CF938C01FC016483B5
:100760009085C62FC90F6C2F6F70C8010E94A2031D
:100770006C2F62956F706061C801CF911F910F91CE
:100780000C94A2030F931F93CF93DF931F92CDB7C7
:10079000DEB78C01FC018681681728F4C801498303
:1007A0000E94AA034981F8018781869586958695DE
:1007B000481758F44583642F606BC8010F90DF9190
:1007C000CF911F910F910C94A2030F90DF91CF91C5
:1007D0001F910F910895CF92DF92EF92FF920F93A6
:1007E0001F93CF93DF93EC01F62EC42ED22E8F8170
:1007F000869586958695081710F00FEF080F1D2D2A
:10080000011780F0412F6F2DCE010E94C203EF2C03
:10081000CE1430F060E0CE010E94C001E394F8CF26
:100820001F5FEECF4D2D6F2DCE01DF91CF911F9128
:100830000F91FF90EF90DF90CF900C94C2032F9216
:100840003F924F925F926F927F928F929F92AF9260
:10085000BF92CF92DF92EF92FF920F931F93CF93AD
:10086000DF93CDB7DEB727970FB6F894DEBF0FBE84
:10087000CDBFDC011B960D911C911C970115110534
:1008800009F462C19F838E83F801B491319644913B
:10089000319654903196A491EA2EF12CF7E0EF0EA8
:1008A000F11C23E0F594E7942A95E1F7EB82F80137
:1008B000349674913196E491671758F0862F90E042
:1008C0002E2F30E0F901E70FF11D8E179F070CF472
:1008D00073C06D3069F4AE81BF8116968C91882308
:1008E00009F467C060E08E819F810E94AA0361C005
:1008F0006A3009F029C1EE81FF8181856581D62E9C
:100900008E9DD00C11248781869586958695D81664
:1009100030F08285882319F082E08287D12C4D2D1A
:1009200060E08E819F810E94C203AE81BF811A96D2
:100930008C911A97823008F43CC015962C9115972B
:100940001B96ED91FC911C97309741F03396E49102
:1009500019960C91E09FE02D112401C0E0E08FEF8B
:10096000820F0E2F10E0095F1F4F93E0159507953A
:100970009A95E1F7080FEE81FF814681415064812D
:10098000CF010E94EB03AE81BF8119968C9119971C
:100990006D2D8E9D600D1124660F660F660F1796E4
:1009A0008C91861708F460E060648E819F810E94BC
:1009B000A20381E090E0CAC050E05B2BC80106961C
:1009C000671BEE81FF81F185F9834230510588F480
:1009D000452B09F019825E9C90015F9C300D11241B
:1009E000629F8001639F100D1124080F191F412C75
:1009F00024C0EA2FE77021F048E0442E4E1A01C0CF
:100A0000412CA82FFC0140E050E07E2F7A1B761786
:100A100028F47491470F511D3196F7CFFC01E60F72
:100A2000F11D54904E9D80014F9D100D5E9D100D47
:100A30001124020F131F080F191FAE81BF811496D6
:100A4000BC91BC83EE81FF813580652C712CCC2458
:100A5000C394D12C812C912C7FEF7C0D7A838B81D8
:100A6000781708F05FC0212CAE81BF8119968C9158
:100A7000281608F051C07A81711102C0222051F06D
:100A8000AE81BF8115964C9115974F5F6C81CD015A
:100A90000E94C203A12CB12CA51488F5F501E80D24
:100AA000F91DE00FF11F2491442061F0CE14DF0402
:100AB00049F4E22FF0E0042C02C0F595E7950A9482
:100AC000E2F72E2FEE81FF818185823079F4E22FCB
:100AD0002110E295EF70F0E0E854FD4F2491622F71
:100AE0008E819F812D830E94C0012D81622F8E8176
:100AF0009F810E94C001FFEFAF1ABF0ACDCFB12C7A
:100B00007981B71639F060E08E819F810E94C00123
:100B1000B394F6CF2394A8CF860C971CBFEFCB1AC3
:100B2000DB0A9ACFAE81BF8117968C911797869575
:100B300086958695381608F03CCF15963C92159709
:100B4000632D606BCD0133CF80E090E027960FB628
:100B5000F894DEBF0FBECDBFDF91CF911F910F91F3
:100B6000FF90EF90DF90CF90BF90AF909F908F90CD
:100B70007F906F905F904F903F902F9008950F93CC
:100B8000CF93DF93EC010F810695069506950150F2
:100B90004E81415020E060E00E94EB0381E09A85A5
:100BA000911101C080E08A8760E4CE01DF91CF918E
:100BB0000F910C94A2031F920F920FB60F92112463
:100BC0002F933F934F935F936F937F938F939F9355
:100BD000AF93BF93EF93FF938091B900887F8036E6
:100BE00009F49CC068F5883209F45BC090F4803148
:100BF00009F454C038F4882309F4F6C0883009F4A5
:100C00004DC0F6C0883109F44CC0803209F45DC093
:100C1000EFC0803409F468C048F4803309F455C04B
:100C2000883309F0E5C08093D901D8C0803509F434
:100C30004FC0883509F45DC0883409F0D9C0D6C0EA
:100C4000883909F4C7C0A8F4883709F467C038F4B4
:100C5000883609F463C0803709F460C0C9C0883899
:100C600009F4B8C0803909F45FC0803809F0C0C009
:100C70005BC0803B09F486C038F4803A09F466C052
:100C8000883A09F47FC0B4C0803C09F4A7C0883C0E
:100C900009F4A4C0883B09F48AC0AAC08091FF016E
:100CA00010C09091FE018091FD01981770F5E091C0
:100CB000FE0181E08E0F8093FE01F0E0E352FE4FD3
:100CC00080818093BB0085EC86C08093D9018EC063
:100CD000E091FE0181E08E0F8093FE018091BB00C8
:100CE000F0E0E352FE4F80839091FE018091FD0180
:100CF0006EC0E091FE0181E08E0F8093FE01809135
:100D0000BB00F0E0E352FE4F80838091DC01811153
:100D10006DC081E08093DB0184EA61C083E0809351
:100D2000DA011092D801CFCF8091D801803208F03B
:100D300051C0E091D80181E08E0F8093D80180915D
:100D4000BB00F0E0E854FE4F8083BDCF85EC80937C
:100D5000BC001092DA018091D801803230F4E09129
:100D6000D801F0E0E854FE4F10826091D80170E0A5
:100D7000E091B601F091B70188EB91E009951092EE
:100D8000D80136C084E08093DA011092B501109248
:100D9000B401E091B201F091B30109958091B401E1
:100DA000811105C081E08093B40110929201E0911D
:100DB000B50181E08E0F8093B501F0E0EE56FE4F55
:100DC00080818093BB009091B5018091B401981708
:100DD00008F479CF85E88093BC000AC085EC809345
:100DE000BC001092DA0104C01092D9010E94E30104
:100DF000FF91EF91BF91AF919F918F917F916F91F3
:100E00005F914F913F912F910F900FBE0F901F90C8
:100E10001895DC01862F262F30E0F901EE5FFC4F9C
:100E2000E491F0E0EE0FFF1FE251FD4F4591549128
:100E300013965C934E931297F901EA5EFC4FE4918E
:100E4000EC93E0951196EC930C9436108EBD000057
:100E50000DB407FEFDCF8EB508953F924F925F927D
:100E60006F927F928F929F92AF92BF92CF92DF92BA
:100E7000EF92FF920F931F93CF93DF93EC019AA50C
:100E8000892F827091FD17C0FE01E153FF4FAE0123
:100E90004B5C5F4F90FD07C020813181241B350BD7
:100EA0002937310544F0208131814217530708F476
:100EB00029C19E7F9AA78E01095F1F4F502EEE24F5
:100EC000E394F12C6E0181E9C81A8EEFD80A74E21E
:100ED000A72E79E0B72E8FA498A8F4018081918184
:100EE0008F3F910511F480E00DC1F401828193815F
:100EF0008F3F9105C1F367E1C4010E94540C982F04
:100F00009170792E80FDEFCF6FEFC4010E94DA0B54
:100F10008FA498A8C4010E94D70B80E60E942607E0
:100F20008FEF0E942607682EC4010E94D40BF0E2C6
:100F3000F61508F056C062EEC4010E94DA0B62E0BA
:100F400070E080E090E00E944F127CAA97E0971535
:100F500038F06AE070E080E090E00E944F12BBCF72
:100F60008FA498A8F4018781472C871508F4482E90
:100F7000F4019085911103C0382E341801C0312C32
:100F8000C4010E94D70B81E60E9426073801450C58
:100F9000461439F08FEF0E942607F30181933F0139
:100FA000F7CF732C772029F08FEF0E9426077A94D1
:100FB000F9CFC4010E94D40B40E767E0C4010E944E
:100FC000F90B69857A85CB01009769F0282F277086
:100FD000263008F080CF53E0969587955A95E1F733
:100FE000F3CF762CB2CF8D852AA93BA96217730760
:100FF000E1F5823809F46FCF803881F464327940AA
:10100000D1F0BA86A98642E064E279E0CE010E947E
:10101000160F6AE070E080E090E040C0833C59F435
:101020006115710541F078876F831A86198640E053
:1010300060E070E063C099A5992319F087FF0CC0A8
:1010400002C0813C49F49CE6980F933028F0883C1C
:1010500019F0833809F056C0B801CE010E943E0253
:10106000823009F038CF83E84DC06034710509F053
:1010700044C0823CC9F48AA583FD2DCF243289E087
:10108000380709F428CF8F8198859A878987388710
:101090002F83F601608170E080E090E00E944F12A3
:1010A00069857A8542E02AC0B801CE010E943E02DD
:1010B000982E88818823E9F029A9222379F030E04D
:1010C00021503109C901880F991F280F391FB70115
:1010D00002C0660F771F2A95E2F702C060E070E059
:1010E00083E0660F771F8A95E1F744E0CE010E9406
:1010F000160FF2E09F12EFCEB6CF41E0CE010E9474
:10110000160FE9CEDF91CF911F910F91FF90EF90D5
:10111000DF90CF90BF90AF909F908F907F906F9017
:101120005F904F903F9008952F923F924F925F9221
:101130006F927F928F929F92AF92BF92CF92DF92E7
:10114000EF92FF920F931F93CF93DF93EC017B01FC
:101150005A01690148010E9489124BA45CA46DA444
:101160007EA4DC01CB0184199509A609B70949972A
:10117000A105B10528F4CE010E942D0787FFEBCF12
:101180008CE891E00197F1F789E1C816D104B0F439
:1011900088E08C0D8CAB84019601A501B701CE01CE
:1011A0000E94D80F182F882311F011E092C00E94DE
:1011B00089126BA77CA78DA79EA78BC0E1E9CE16ED
:1011C000D10408F085C0C60168E170E00E94C11931
:1011D00021E0892B09F420E0C60168E170E00E945B
:1011E000C119722E760EF7018281938180349105A8
:1011F00039F08AA584608AA78FA598A90E94D40C8B
:10120000F7014680512C612C84E9282E96E9392E6D
:10121000F7017782F1E07F1204C0F701368247823E
:1012200008C0611003C0F701268203C085E9F701F9
:101230008683E8E16E9EA00111249601241B350BE4
:101240002931310510F028E130E088E0820F8CABC5
:101250004A0D5B1D8401B701CE010E94D80F182FE3
:1012600081110BC062E070E080E090E00E944F12BC
:101270005394F2E0F51560F606C07A9463947720F3
:1012800011F0512CC5CFF70146828AA582FF12C00A
:1012900049815A816B817C818FA598A90E94951202
:1012A000182F8FA598A90E94090D60E08FA598A915
:1012B0000E9455108AA58B7F8AA7112349F07720B9
:1012C00009F473CF0E9489126BA77CA78DA79EA7F4
:1012D00010E0812FDF91CF911F910F91FF90EF9040
:1012E000DF90CF90BF90AF909F908F907F906F9046
:1012F0005F904F903F902F900895CF93DF93EC0134
:10130000862FF894EB89FC892081442319F0998970
:10131000922B02C09A8992239083789490E59CBD89
:1013200091E09DBDF894EF85F88920819E859223F8
:10133000908378940E942607F894EF85F88990812D
:101340008D85892B80837894DF91CF910895CF92FA
:10135000DF92EF92FF920F931F93CF93DF936C0175
:101360007A018B01C0E0D0E0CE15DF0589F0D8010D
:101370006D918D01D601ED91FC910190F081E02DF0
:10138000C6010995892B11F47E0102C02196ECCF8C
:10139000C701DF91CF911F910F91FF90EF90DF90E8
:1013A000CF900895FC01538D448D252F30E0842F7C
:1013B00090E0821B930B541710F0CF96089501977D
:1013C0000895FC01918D828D981761F0828DDF0167
:1013D000A80FB11D5D968C91928D9F5F9F73928F28
:1013E00090E008958FEF9FEF0895FC01918D828D1D
:1013F000981731F0828DE80FF11D858D90E00895EA
:101400008FEF9FEF0895FC01918D228D892F90E041
:10141000805C9F4F821B91098F739927089582E00A
:1014200092E00E94030A21E0892B09F420E0822F38
:101430000895FC01848DDF01A80FB11DA35ABF4F91
:101440002C91848D90E001968F739927848FA689C3
:10145000B7892C93A089B1898C9180648C93938DEA
:10146000848D981306C00288F389E02D80818F7DDA
:1014700080830895EF92FF920F931F93CF93DF9392
:10148000EC0181E0888F9B8D8C8D981305C0E889D5
:10149000F989808185FD24C0F62E0B8D10E00F5F49
:1014A0001F4F0F731127E02E8C8DE8120CC00FB662
:1014B00007FCFACFE889F989808185FFF5CFCE0155
:1014C0000E94190AF1CF8B8DFE01E80FF11DE35A3E
:1014D000FF4FF0820B8FEA89FB898081806207C011
:1014E000EE89FF896083E889F9898081806480833F
:1014F00081E090E0DF91CF911F910F91FF90EF90ED
:101500000895CF93DF93EC01888D8823C9F0EA8991
:10151000FB89808185FD05C0A889B9898C9186FDEC
:101520000FC00FB607FCF5CF808185FFF2CFA889E9
:10153000B9898C9185FFEDCFCE010E94190AE7CFC2
:10154000DF91CF91089580E090E0892B29F00E94EF
:101550000F0A81110C9400000895CF93DF93DC01F2
:10156000FB01EC01C359DE4F688179812296988195
:10157000828140815181823028F0BA0181E08383E9
:1015800090E027C0ED01C059DE4F28813981EA0182
:10159000C223D323D2960D90BC91A02DCA17DB078E
:1015A000C1F4C9018095909563E0880F991F6A95F1
:1015B000E1F784239523892B51F083E0220F331F19
:1015C0008A95E1F72760BA016223732301C0BA014B
:1015D00095E071836083928381E0DF91CF910895DC
:1015E0000E94FD1BCF93DF93EC019CB59F7D9CBDBA
:1015F0009CB5937F9CBD9CB59C7F9CBD9DB5916027
:101600009DBD8A810E94FA118C899D89DF91CF91BD
:101610000C9446126115710579F0FB0101900020D0
:10162000E9F73197AF01461B570BDC01ED91FC91B7
:101630000280F381E02D099480E090E008954F92BC
:101640005F926F927F92EF92FF920F931F93CF93CF
:10165000DF93CDB7DEB7A1970FB6F894DEBF0FBE0C
:10166000CDBF7C01FA01CB0119A2223008F42AE097
:101670008E010F5D1F4F422E512C612C712CBF012A
:10168000A30192010E94D519F901CA010150110963
:101690006A3014F4605D01C0695CD8016C93232B3F
:1016A000242B252B61F7B801C7010E940A0BA196D4
:1016B0000FB6F894DEBF0FBECDBFDF91CF911F9163
:1016C0000F91FF90EF907F906F905F904F900895F3
:1016D0000F931F93CF93DF93EC010E940A0B8C01B1
:1016E0006DE571E0CE010E940A0B800F911FDF9122
:1016F000CF911F910F9108951F920F920FB60F92E5
:1017000011242F933F934F935F936F937F938F9306
:101710009F93AF93BF93EF93FF9382E092E00E9479
:10172000190AFF91EF91BF91AF919F918F917F9196
:101730006F915F914F913F912F910F900FBE0F903E
:101740001F9018951F920F920FB60F9211242F938E
:101750008F939F93EF93FF93E0911202F091130206
:101760008081E0911802F091190282FD12C09081EF
:1017700080911B028F5F8F7320911C02821751F0A2
:10178000E0911B02F0E0EE5FFD4F958F80931B020E
:1017900001C08081FF91EF919F918F912F910F90C8
:1017A0000FBE0F901F90189561E00C94F20A60E054
:1017B0000C94F20AEF92FF921F93CF93DF931F9244
:1017C000CDB7DEB77C0169830E94D70B6981862F74
:1017D0000E942607182FC7010E94D40B812F0F905B
:1017E000DF91CF911F91FF90EF90089561EE0C94DF
:1017F000DA0BEF92FF921F93CF93DF9300D0CDB718
:10180000DEB77C014A8369830E94D70B6981862FEA
:101810008F7180620E942607182F4A81842F0E94B0
:101820002607C7010E94D40B812F0F900F90DF91E4
:10183000CF911F91FF90EF900895CF92DF92EF929A
:10184000FF920F931F93CF93DF9300D01F92CDB7DA
:10185000DEB77C01142F2A835B8369830E94D70B38
:101860006981862F8F7180620E942607082FC12E02
:101870005B81D52E2A81120F1C1531F0F601819162
:101880006F010E942607F8CFC7010E94D40B802F5A
:101890000F900F900F90DF91CF911F910F91FF90BC
:1018A000EF90DF90CF900895EF92FF921F93CF9328
:1018B000DF931F92CDB7DEB77C0169830E94D70BFF
:1018C0006981862F8F710E9426078FEF0E9426075D
:1018D000182FC7010E94D40B812F0F90DF91CF9159
:1018E0001F91FF90EF900895EF92FF920F931F9337
:1018F000CF938C017B0166E00E94540CC82FC77DFA
:1019000082E0E816F10431F4C0628BE990E0A0E0D7
:10191000B0E00DC0EA94EF2829F085E590E0A0E062
:10192000B0E005C0C86081E490E0A0E0B0E0F8015C
:10193000808B918BA28BB38B4C2F66E0C8010E94E9
:10194000F90B66E0C8010E94540C91E08C1390E002
:10195000892FCF911F910F91FF90EF900895CF9312
:10196000DF93EC0160E00E94540C81FD0EC0482F13
:10197000426060E0CE010E94F90B65E070E080E01B
:1019800090E0DF91CF910C944F12DF91CF910895A9
:10199000FC0120813181828193812817390719F058
:1019A000822F0C94FA110895CF93DF93EC0160E03D
:1019B0000E94C80C888999890E9446126DE1CE0167
:1019C0000E94540C81FF07C0888999890E944612A1
:1019D000CE010E94F60B60E0CE010E94540C482F0D
:1019E0004E7F60E0CE010E94F90B62E0CE010E94C2
:1019F000540CECEDF2E0E49141E050E001C0440F02
:101A0000EA95EAF7482B62E0CE01DF91CF910C9482
:101A1000F90BCF93DF93EC010E94AF0C60E0CE0195
:101A20000E94540C482F416060E0CE010E94F90BE7
:101A300040E767E0CE010E94F90B61E0CE010E9411
:101A4000C80C8985882349F02E85AE01475F5F4F1A
:101A50006AE0CE010E941D0C14C062E0CE010E941B
:101A6000540CECEDF2E0E49121E030E001C0220FF3
:101A7000EA95EAF72095422F482362E0CE010E94C2
:101A8000F90B6DE1CE010E94540C81FF05C0CE011F
:101A9000DF91CF910C94F60BDF91CF9108951F93B6
:101AA000CF93DF93EC01888199812A813B81821752
:101AB000930711F00E9436108A819B812881398119
:101AC0002817390711F00E9436101FB7F89480913B
:101AD0000102811124C0ECE0F3E08491E0E2F3E044
:101AE0009491E82FF0E0EE0FFF1FE850FD4FA59115
:101AF000B491EC91E92321F461E08AE00E94FA11AB
:101B00008AE00E9436108CB580618CBD8CB58064F3
:101B10008CBD8DE00E9436108BE00E9436108091C3
:101B200001028F5F809301021FBF60E0CE010E941F
:101B3000C80C61E0CE010E94F20A65E070E080E02E
:101B400090E00E944F124CE060E0CE010E94F90B41
:101B50004FE564E0CE010E94F90B62E070E0CE0137
:101B60000E94740C882311F081E08E8366E0CE0120
:101B70000E94540C182F60E070E0CE010E94740C9B
:101B8000CE010E94D70B80E50E94260783E70E94C2
:101B90002607CE010E94D40B40E06DE1CE010E94E9
:101BA000F90B40E06CE1CE010E94F90B188640E78A
:101BB00067E0CE010E94F90B4CE465E0CE010E9483
:101BC000F90B62EECE010E94DA0BCE010E94F60BF9
:101BD000CE010E94AF0C60E0CE010E94540C482F51
:101BE0004E7F60E0CE010E94F90B115081E01E3F54
:101BF00008F080E0DF91CF911F910895CF93DF939C
:101C0000CDB7DEB728970FB6F894DEBF0FBECDBFB5
:101C1000AC019CEC99839A839B839C839D831E8259
:101C20001F8218869A01E1E021153105C9F0611182
:101C300003C04115510569F4D901A770BB27A25F04
:101C4000BE4F8C91A1E0B0E0AC0FBD1FAE0FB11D37
:101C50008C9383E0369527958A95E1F7EF5FE4CF83
:101C6000611102C0452B39F4E62FF0E0E25FFE4F30
:101C70008081898305C0F0E0E35FFE4F80818A8325
:101C800029813A814B815C816D817E818F8198852C
:101C900028960FB6F894DEBF0FBECDBFDF91CF916F
:101CA00008956F927F928F929F92AF92BF92CF9240
:101CB000DF92EF92FF920F931F93CF93DF93CDB7F5
:101CC000DEB728970FB6F894DEBF0FBECDBF8C01EC
:101CD000CB01D22E642F0E94FE0D39014A015B0117
:101CE0007C01F80182A582FD04C087A590A90E940D
:101CF000D40CF80187A590A9DD2011F060E001C0A7
:101D000061E00E945510F801C7A4D0A869827A82C8
:101D10008B829C82AD82BE82EF82F886F601268598
:101D2000AE014F5F5F4F6AE0C6010E941D0CF601D5
:101D30002685AE014F5F5F4F60E1C6010E941D0C1A
:101D4000F601478161E1C6010E94F90BF801B4A8D0
:101D5000C7A4D0A86FEFC6010E94DA0B80FF0DC0A8
:101D60006FEFC6010E94DA0B84FFF4CF40E167E019
:101D7000C6010E94F90BF12C30C0F601F780EF2C60
:101D8000BF1408F4EB2CF6018085811102C0FE1807
:101D900001C0F12CC6010E94D70B80EA0E942607E1
:101DA0005801F7E0AF0EB11CEA0CEA1431F0F5016E
:101DB00081915F010E942607F8CFFF2029F080E083
:101DC0000E942607FA94F9CFC6010E94D40B61E065
:101DD000C6010E94C80CFF24F394F80182A582FD7D
:101DE0000FC0418152816381748187A590A90E94AF
:101DF0009512F82E60E0F80187A590A90E94551071
:101E00008F2D28960FB6F894DEBF0FBECDBFDF91A1
:101E1000CF911F910F91FF90EF90DF90CF90BF90E7
:101E2000AF909F908F907F906F900895CF92DF92A8
:101E3000EF92FF920F931F93CF93DF9300D000D0C8
:101E4000CDB7DEB7FC0195859B012115310561F009
:101E5000822F8770863030F483E0369527958A95F7
:101E6000E1F7F3CF80E097C09154EE24E3949F37DD
:101E700008F0E12CF42E6B018F0119821A821B826B
:101E80001C827A8369834B83BE016F5F7F4FCF01D2
:101E90000E94AD0A69817A812C814B81C8010E9420
:101EA000510EF1E0FF1227C0811102C0F12C6AC06F
:101EB00089819A818C159D0501F5EE20F1F081EC68
:101EC000F801858787819085928781879A838983A6
:101ED000FB821C82BE016F5F7F4FC8010E94AD0A6A
:101EE00088E0F80184AB69817A812C814B81C8013B
:101EF0000E94510E02C08823C9F289819A818C15F3
:101F00009D0519F4FF24F3943DC0FF2019F0F3E080
:101F1000FF12F8CFEE20B1F3F80182A582FF11C0C5
:101F2000418152816381748187A590A90E94951295
:101F3000F80182A58B7F82A760E087A590A90E9407
:101F40005510F80187A590A90E94090D0E948912D9
:101F50006B017C01C8010E942D07813C99F20E940F
:101F60008912AB01BC014C195D096E097F09F801AA
:101F700085819681A0E0B0E084179507A607B70792
:101F800048F794CFF80182A582FD04C087A590A9E7
:101F90000E94090D8F2D0F900F900F900F90DF91E1
:101FA000CF911F910F91FF90EF90DF90CF90089508
:101FB000EF92FF920F931F93CF93DF93EC017B017E
:101FC000BA018AA99BA9F70191838083DE01179644
:101FD00088E001900D928A95E1F72115310529F0ED
:101FE000A901CE010F960E94021CF7016281738144
:101FF0000833110561F06034710511F444E001C04B
:1020000043E06017710709F442E0B80101C040E005
:10201000CE01DF91CF911F910F91FF90EF900C9423
:10202000160F3FB7F89480915B0490915C04A091E7
:102030005D04B0915E0426B5A89B05C02F3F19F042
:102040000196A11DB11D3FBFBA2FA92F982F882738
:10205000820F911DA11DB11DBC01CD0143E0660F92
:10206000771F881F991F4A95D1F7089590E0FC01CA
:10207000EA5EFC4F2491FC01EE5FFC4F84918823C3
:1020800099F090E0880F991FFC01E850FD4FA59151
:10209000B491FC01E251FD4F859194918FB7F89472
:1020A000EC91E22BEC938FBF08951F93CF93DF93B6
:1020B000EC01162F61E00E94540C482F112311F0FF
:1020C000416001C04E7F61E0CE01DF91CF911F9151
:1020D0000C94F90B7F928F929F92AF92BF92CF9206
:1020E000DF92EF92FF920F931F93CF93DF93CDB7C1
:1020F000DEB728970FB6F894DEBF0FBECDBFFC0148
:102100009B012115310559F0822F8770863008F028
:10211000FAC0A3E036952795AA95E1F7F2CF62AB16
:1021200073AB87A590A9DC012D913C912F3F310520
:1021300009F4E9C0DC0112962D913C9113972F3FD1
:10214000310509F4E0C0E72EF62E8F0160E00E9411
:102150005510F801C7A4D0A86DE1C6010E94540C27
:10216000482F44606DE1C6010E94F90B6CE1C60185
:102170000E94540C482F4F636CE1C6010E94F90B7A
:1021800081E0D60118968C93F80182A993A966E0A4
:1021900070E00E94C119482F440F4B5FF0E14F9F40
:1021A000A0011124456064E0D8019F968D919C9117
:1021B000D0970E94F90B89E190E0A0E0B0E0F8012F
:1021C00081839283A383B4838BE490E09683858399
:1021D00082A993A940E02FEF3FEFB901682379234B
:1021E000672B39F073E0220F331F7A95E1F74F5FC9
:1021F000F4CFF80141AB20953095E059FE4F318383
:10220000208363E0369527956A95E1F73397A90116
:1022100048235923518340832115310559F043E068
:10222000969587954A95E1F753E0369527955A9507
:10223000E1F7F2CFF801E159FE4F808386E0782E76
:1022400088248394912C7A94FFEF7F1609F454C06C
:10225000672D8F2D9E2D0E94FE0DD8019F96CD904B
:10226000DC90D09729833A834B835C836D837E8394
:102270008F839887A72CB12C71100BC0F60146856F
:1022800050E0BE016F5F7F4FC60109960E94021C9D
:1022900003C0F1E07F1208C0F501E851FD4F6491E1
:1022A000D6011E962C9105C0F501E851FD4F6491B1
:1022B00021E0AE014F5F5F4FC6010E941D0CF5018A
:1022C000EE51FD4F6491F6014781C6010E94F90B62
:1022D00062E0C6010E94540CF501E452FD4FE49106
:1022E000940101C0220FEA95EAF7482F422B62E0E1
:1022F000C6010E94F90BA7CFD8019F968D919C91A2
:10230000D0970E94090D28960FB6F894DEBF0FBE35
:10231000CDBFDF91CF911F910F91FF90EF90DF9094
:10232000CF90BF90AF909F908F907F900895CF9265
:10233000DF92EF92FF920F931F93CF93DF93EC0105
:102340006B01770FEE08FF08F7FE16C0E881F981F0
:102350000190F081E02D6DE209958C01442755270D
:10236000BA014C195D096E097F092AE0CE010E946D
:102370001F0B080F191F06C02AE0B701A6010E9413
:102380001F0B8C016DE571E0CE010E940A0B800FDE
:10239000911FDF91CF911F910F91FF90EF90DF90F0
:1023A000CF9008950F931F93CF93DF938C01C0E0DC
:1023B000D0E0F801EC0FFD1F6491662371F0E0910D
:1023C0000202F09103020190F081E02D82E092E0A0
:1023D0000995892B11F02196ECCF6DE571E082E033
:1023E00092E00E940A0B8C0F9D1FDF91CF911F91ED
:1023F0000F91089590E0FC01E853FD4F3491FC01EA
:10240000EA5EFC4F2491FC01EE5FFC4FE491EE2369
:1024100009F43BC0332339F1333091F038F43130D3
:10242000A9F0323001F584B58F7D12C0373091F0BC
:102430003830A1F03430B9F4809180008F7D03C032
:10244000809180008F77809380000DC084B58F7756
:1024500084BD09C08091B0008F7703C08091B00027
:102460008F7D8093B000F0E0EE0FFF1FE251FD4F33
:10247000A591B4918FB7F894EC91611103C02095A8
:102480002E2301C02E2B2C938FBF089583309105EE
:1024900028F0880F991F04970197F1F708958F92FC
:1024A0009F92AF92BF92CF92DF92EF92FF926B0119
:1024B0007C010E9411104B015C01C114D104E104A4
:1024C000F104F1F00E941110DC01CB018819990987
:1024D000AA09BB09883E9340A105B10570F321E02C
:1024E000C21AD108E108F10888EE880E83E0981E30
:1024F000A11CB11CC114D104E104F10419F7DDCF12
:10250000FF90EF90DF90CF90BF90AF909F908F9013
:1025100008952FB7F89460915704709158048091F2
:10252000590490915A042FBF08958F929F92AF92B1
:10253000BF92CF92DF92EF92FF92CF93DF93EC01A5
:102540004A015B010E9489126B017C0167E1CE01A7
:102550000E94540C84FD29C06FEFCE010E94DA0B5B
:1025600084FFF4CF40E167E0CE010E94F90B60E008
:10257000CE010E94C80C61E0CE010E94C80C0E94EE
:102580008912DC01CB018C199D09AE09BF098815A0
:102590009905AA05BB05D0F260E0CE010E94C80CE7
:1025A000CE010E94F60B80E005C060E0CE010E94E3
:1025B000C80C81E0DF91CF91FF90EF90DF90CF903A
:1025C000BF90AF909F908F9008951F920F920FB67B
:1025D0000F9211242F933F938F939F93AF93BF93A9
:1025E0008091570490915804A0915904B0915A04D5
:1025F0003091560426E0230F2D3720F40296A11DBA
:10260000B11D05C029E8230F0396A11DB11D20931C
:1026100056048093570490935804A0935904B093A0
:102620005A0480915B0490915C04A0915D04B09188
:102630005E040196A11DB11D80935B0490935C0420
:10264000A0935D04B0935E04BF91AF919F918F9171
:102650003F912F910F900FBE0F901F901895CF9321
:10266000DF93CDB7DEB763970FB6F894DEBF0FBE2A
:10267000CDBF789484B5826084BD84B5816084BD0B
:1026800085B5826085BD85B5816085BD80916E0010
:10269000816080936E001092810080918100826041
:1026A000809381008091810081608093810080917E
:1026B00080008160809380008091B100846080936D
:1026C000B1008091B00081608093B00080917A0069
:1026D000846080937A0080917A00826080937A008F
:1026E00080917A008E7F80937A0080917A00806852
:1026F00080937A001092C10089E294E00E944F0D0D
:1027000066E089E294E00E94540C887F482F45607F
:1027100066E089E294E00E94F90B60E070E089E2F3
:1027200094E00E94740C88E00E94361060E088E01B
:102730000E94FA116AE070E080E090E00E944F127F
:1027400061E088E00E94FA116AE070E080E090E0C9
:102750000E944F1267E08EE494E00E94090766E051
:1027600082E594E00E9409072A9A229A239A259AE0
:102770001092450410924604ECE6F2E085919491A3
:10278000E82EEEE6F2E0F490EFE6F2E0E491E0937A
:102790004704E0E7F2E0E491E0934804E1E7F2E087
:1027A000E491E09349048C01802F8E198F1548F431
:1027B000F801649181E494E00E94A2030F5F1F4F2F
:1027C000F3CF10924B0481E494E00E94BF0581E8AE
:1027D00090E090934D0480934C0481E494E00E9437
:1027E000BF0512E010934A0467E471E081E494E0CD
:1027F0000E94680BE0911202F09113021083E091A5
:102800000E02F0910F021082E0911002F09111027D
:1028100088E0808310921A02E0911602F09117026C
:1028200086E08083E0911402F0911502808180613E
:102830008083E0911402F09115028081886080838A
:10284000E0911402F0911502808180688083E0910C
:102850001402F091150280818F7D80831092A10275
:1028600060E070E082E092E00E9497118091A50202
:102870009091A6020E944F0D8091A102882339F009
:1028800084E299E09093A00280939F020EC086E0BC
:1028900090E00E94061A9093A3028093A2021092E5
:1028A000A4021092A00210929F0281E68093B202CD
:1028B00041E665E08091A5029091A6020E94F90B85
:1028C00060E070E08091A5029091A6020E94740CD5
:1028D0008091A7029091A80221E0DC0199962C93A7
:1028E0002091A102222351F067E18091A5029091ED
:1028F000A6020E94540C80FF07C06BC260919F0229
:102900007091A0020E946A1076EC572E44244394E2
:10291000E8E03E2EF6EF8F2E99249A94AAE96A2ECB
:10292000712C8091A7029091A8020E942D074091DE
:102930009F025091A002443229E0520709F4DDC001
:10294000833C11F44092A9029091A1029111D5C04B
:10295000982F9D7F943C09F0AEC0E091A702F091C2
:10296000A8027F0197E0E90EF11C278130853287AC
:1029700021872785843C41F54091A4028091A202E1
:102980009091A30230E0341789F08C010396BC01CA
:1029900063507109DB015C91521306C0D801119696
:1029A0008D919C91129704C03F5FEDCF8FEF9FEF09
:1029B0009A83898308E310E022E030E0AE014F5FA4
:1029C0005F4FB701CF0174C030E03A8B298B2115DE
:1029D000310509F45DC0452BC1F45091A4028091EA
:1029E000A2029091A30240E0451709F44EC0FC01F9
:1029F0000396DC0112976D917C916217730719F4AD
:102A0000808190E047C04F5FEFCF1C821B82809196
:102A10000001909101019C012F5F3F4F3093010114
:102A2000209300019E838D835F8208E310E022E003
:102A300030E0AE014F5E5F4FBE016F5F7F4FCF0151
:102A40000E949408882309F10E9489125B016C019D
:102A50008091A7029091A8020E942D07863C71F0F8
:102A60000E948912DC01CB018A199B09AC09BD09BE
:102A7000853F9140A105B10558F307C0E091A70239
:102A8000F091A8028785908905C08FEF9FEF02C063
:102A900080E090E09A83898308E310E022E030E050
:102AA000AE014F5F5F4FB7018091A7029091A802DE
:102AB0000E94940822C0853C01F5A091A702B09124
:102AC000A8022091A2023091A30280E09091A4027A
:102AD000891798F4F90193E0899FE00DF11D112405
:102AE0006181728117964D915C91189764177507F3
:102AF00011F4128211828F5FE9CF8091A90288239D
:102B000009F459C01092A902E091A702F091A8021D
:102B10003796DE011196832D01900D928A95E1F78B
:102B2000F884FF2009F447C049815A814432A9E062
:102B30005A0791F09A0180E02115310539F063E0E0
:102B4000369527956A95E1F78F5FF6CF182F110F0D
:102B5000180FBA0180E004C081E010E060E070E08E
:102B600090E00496E090A402D090A202C090A3024C
:102B70009C01012E02C0220F331F0A94E2F7262B7C
:102B8000372B21153105A9F0ED2DFC2D00E00E1598
:102B900009F48CC2A181B281A217B30719F4A081F4
:102BA000AF1107C033962432B9E03B0711F00F5F35
:102BB000EECF0197E9F6E0908603F09087038CEE64
:102BC000E81682E0F80609F008F462C0D090F2023C
:102BD0000091F4021091F5029DE4D91236C0A801CB
:102BE0000830110510F047E050E066EF72E082E037
:102BF00091E00E94021CC401801B910B8E0D9F1D51
:102C00009093870380938603A301401B510BB80167
:102C10006A507D4F8CEE92E00E940B1C62E071E0E6
:102C200082E092E00E94680B81E494E00E94BF057C
:102C300062E571E081E494E00E94680B62E071E07B
:102C400081E494E00E94680B23C09401201B310BA7
:102C5000C701820F931F9093870380938603A3017C
:102C6000401B510BB8016A507D4F8CEE92E00E94E0
:102C70000B1C4D2D50E060E070E02AE082E092E015
:102C80000E941F0B6DE571E082E092E00E940A0B4A
:102C90000E9489125B016C019B01A60160E070E05B
:102CA00080E090E0A0908A01B0908B01C0908C01F0
:102CB000D0908D01E0908E01F0908F0100919001F5
:102CC000109191010E94F7192838334141055105AF
:102CD000610571058105910509F00CF477C00E942A
:102CE00089128B019C0160938A0110938B012093C0
:102CF0008C0130938D0110928E0110928F011092F1
:102D000090011092910167E671E082E092E00E94EA
:102D1000680B85E992E00E94D211E12CF12C00E0D1
:102D200010E08091A40290E008171907B4F560E65E
:102D300071E082E092E00E940A0BE091A202F09121
:102D4000A302EE0DFF1D408150E060E070E02AE03C
:102D500082E092E00E941F0B69E671E082E092E05F
:102D60000E940A0BE091A202F091A302EE0DFF1D5A
:102D70004181528160E070E028E082E092E00E94B0
:102D80001F0B6DE571E082E092E00E940A0B0F5F7D
:102D90001F4FB3E0EB0EF11CC4CF81E494E00E941E
:102DA000BF0567E471E081E494E00E94680B61E88C
:102DB00071E081E494E00E940A0BB80181E494E0A0
:102DC0000E94971182E792E00E94D2110E94A30A0A
:102DD000A8CD8091A5029091A6020E94D40CE0910A
:102DE000A702F091A80282A5826082A76AE070E043
:102DF00080E090E00E944F1264E279E08091A702A7
:102E00009091A8020E946A1084E299E09093A00237
:102E100080939F020E9489122B013C01C12CE12C5E
:102E200090E4292E312C3C862B86809100019091D4
:102E300001019C012F5F3F4F30930101209300015E
:102E40009E878D87F2ECFF878091A7029091A80260
:102E5000DC01D2962D913C91D3973A872987EE20B9
:102E600089F02E2D30E021503109A901440F551F62
:102E7000240F351F01E010E002C0000F111F2A953A
:102E8000E2F702C000E010E020E030E040E050E077
:102E9000BE01675F7F4F0E9494080E9489124B0118
:102EA0005C01F12C8091A7029091A8020E942D074D
:102EB000823C89F4FE013196EF0DF11DEF0DF11DFD
:102EC000A091A702B091A80217968D919C91189796
:102ED00091838083F3940E948912DC01CB018819CD
:102EE0009909AA09BB09C897A105B10520F4B3E067
:102EF000BF15C0F633C0F11031C00E948912DC0149
:102F0000CB0184199509A609B70981369A4EA10506
:102F1000B10508F0F9CC2C2D30E02F5F3F4F8E2DFE
:102F200090E00196289FB001299F700D389F700D89
:102F30001124675E7F4F660F771F072E000C880BEA
:102F4000990B0E944F1281E08E0D8370E82E81E074
:102F50008C0D6AE00E94B519C92E65CFD12C1B8A51
:102F6000DF1408F03FC0E3ECEF878091A102888B6B
:102F7000FE013196ED0DF11DED0DF11D0081118168
:102F80001C870B8720E030E040E050E0BE01675F27
:102F90007F4F8091A7029091A8020E9494080E94FE
:102FA00089124B015C010E948912DC01CB01881956
:102FB0009909AA09BB09813E9105A105B10550F403
:102FC0008091A7029091A8020E942D078B8B8038D8
:102FD00051F7DF2C65E070E080E090E00E944F1236
:102FE000D394BECFFB89F03809F087CFE091A702D8
:102FF000F091A80287859089009709F47ECF3685E5
:103000002091A102321379CF9093A00280939F0266
:103010008091A5029091A6020E94D40C6AE070E013
:1030200080E090E00E944F1260919F027091A00298
:103030008091A7029091A8020E946A101C861B86AC
:10304000E1E8EF8787E0F82E08E310E020E030E0C9
:1030500040E050E0BE01675F7F4F8091A7029091F2
:10306000A8020E949408811119C0FA94F1100FC0AF
:1030700064E279E08091A7029091A8020E946A1010
:1030800084E299E09093A00280939F0236CF63E0A0
:1030900070E080E090E00E944F12D6CFE091A7024E
:1030A000F091A80282A58D7F82A72ECC3A8729872E
:1030B00080E88F835C834B8344325940C9F062E0DF
:1030C00070E080E090E00E944F1208E310E022E000
:1030D00030E0AE01475F5F4FBE016F5F7F4F809171
:1030E000A7029091A8020E949408811117C008C0FD
:1030F00062E070E080E090E00E944F120B811C8142
:1031000022E030E0AE01475F5F4FBE016F5F7F4F4F
:103110008091A7029091A8020E9494080E948912AF
:103120005B016C0189859A859093B6028093B50204
:103130008F2D90E09093B4028093B3028091A70208
:103140009091A8020E942D078138B1F00E94891247
:10315000AB01BC014A195B096C097D09E091A7022A
:10316000F091A80285819681A0E0B0E084179507D0
:10317000A607B70718F71FCDA985BA856091A402E5
:103180008091A2029091A302AC0120E0261751F099
:103190004D5F5F4FFA01339730813F1511F02F5F7C
:1031A000F5CF622FFC0123E0629FE00DF11D112499
:1031B000F082B283A1832091A4026213FCCC6F5FE2
:1031C0006093A40270E06F5F7F4F9B01220F331F5B
:1031D000620F731F0E94331B9093A3028093A2027D
:1031E000EACCCF93DF93E2E0F2E01382128288EE22
:1031F00093E0A0E0B0E084839583A683B78329E1C0
:1032000031E03183208325EC30E03587248724ECBE
:1032100030E03787268720EC30E0318B208B21ECA3
:1032200030E0338B228B22EC30E0358B248B26EC84
:1032300030E0378B268B118E128E138E148EEFE5B5
:10324000F4E01382128284839583A683B7838BE292
:1032500091E091838083E1E4F4E01382128281E0C3
:103260008187148613868DE391E091838083E9E260
:10327000F4E08AE090E09183808385E090E093839E
:103280008283168280E28783108685E0868785E0C8
:1032900090E0A0E0B0E0848B958BA68BB78B118675
:1032A000A7EBB2E0D096FC93EE939F978CEE92E062
:1032B000909387038093860384E993E0909393032C
:1032C0008093920388E893E098969C938E939797C7
:1032D0009B961D921D921D921C929E979A961C92EF
:1032E0009A9799961C9299971C92CFE9D2E0FF8306
:1032F000EE83B987A887DF91CF9108952F923F92EF
:103300004F925F926F927F928F929F92AF92BF92F5
:10331000CF92DF92EF92FF920F931F93CF93DF93A1
:10332000CDB7DEB7CA1BDB0B0FB6F894DEBF0FBEFE
:10333000CDBF09942A88398848885F846E847D844B
:103340008C849B84AA84B984C884DF80EE80FD804D
:103350000C811B81AA81B981CE0FD11D0FB6F894C3
:10336000DEBF0FBECDBFED010895991B79E004C00B
:10337000991F961708F0961B881F7A95C9F78095B4
:103380000895AA1BBB1B51E107C0AA1FBB1FA617AC
:10339000B70710F0A61BB70B881F991F5A95A9F7FE
:1033A00080959095BC01CD010895A1E21A2EAA1B2B
:1033B000BB1BFD010DC0AA1FBB1FEE1FFF1FA217E5
:1033C000B307E407F50720F0A21BB30BE40BF50BE2
:1033D000661F771F881F991F1A9469F7609570956B
:1033E000809590959B01AC01BD01CF0108952A19EC
:1033F0003B094C095D096E097F09800B910B08950B
:10340000EE0FFF1F0590F491E02D0994CF93DF9309
:103410008230910510F482E090E0E0916D04F0912B
:103420006E0420E030E0C0E0D0E0309711F1408140
:10343000518148175907C0F04817590761F4828134
:103440009381209719F09B838A832BC090936E04FD
:1034500080936D0426C02115310519F042175307DA
:1034600018F49A01BE01DF01EF010280F381E02D23
:10347000DCCF2115310509F1281B390B243031052A
:1034800090F412968D919C9113976115710521F01E
:10349000FB019383828304C090936E0480936D0438
:1034A000FD01329644C0FD01E20FF31F8193919319
:1034B000225031092D933C933AC020916B043091F6
:1034C0006C04232B41F420910A0130910B013093BD
:1034D0006C0420936B04209108013091090121159F
:1034E000310541F42DB73EB740910C0150910D01CB
:1034F000241B350BE0916B04F0916C04E217F30789
:10350000A0F42E1B3F0B2817390778F0AC014E5F53
:103510005F4F2417350748F04E0F5F1F50936C0420
:1035200040936B048193919302C0E0E0F0E0CF01FF
:10353000DF91CF9108950F931F93CF93DF9300975F
:1035400009F48CC0FC0132971382128200916D0441
:1035500010916E040115110581F420813181820FD3
:10356000931F20916B0430916C042817390779F56B
:10357000F0936C04E0936B0471C0D80140E050E01C
:10358000AE17BF0750F412962D913C911397AD01E1
:103590002115310509F1D901F3CF9D01DA013383FA
:1035A000228360817181860F971F8217930769F4C8
:1035B000EC0128813981260F371F2E5F3F4F318361
:1035C00020838A819B8193838283452B29F4F09306
:1035D0006E04E0936D0442C01396FC93EE93129731
:1035E000ED01499159919E01240F351FE217F30710
:1035F00071F480819181840F951F029611969C939E
:103600008E938281938113969C938E931297E0E020
:10361000F0E0D80112968D919C911397009719F0C4
:10362000F8018C01F6CF8D919C9198012E5F3F4F50
:10363000820F931F20916B0430916C042817390777
:1036400069F4309729F410926E0410926D0402C050
:103650001382128210936C0400936B04DF91CF915C
:103660001F910F910895A0E0B0E0E9E3FBE10C9415
:103670008219EC01009721F4CB010E94061AB8C010
:10368000FC01E60FF71F9C0122503109E217F307F6
:1036900008F4ACC0D9010D911C91119706171707BA
:1036A000B0F00530110508F49FC0C80104978617D3
:1036B000970708F499C002501109061B170B0193D4
:1036C00011936D937C93CF010E949B1A8DC05B0177
:1036D000A01AB10A4C01800E911EA0916D04B09108
:1036E0006E0440E050E0E12CF12C109709F44AC040
:1036F000A815B905D1F56D907C901197630182E012
:10370000C80ED11CCA14DB0480F1A3014A195B095D
:103710006A0182E0C80ED11C1296BC9012971396D3
:10372000AC91B5E0CB16D10440F0B282A3835183B3
:103730004083D9016D937C930AC00E5F1F4FC30174
:10374000800F911FF90191838083EB2DFA2FE114F3
:10375000F10431F0D7011396FC93EE93129744C015
:10376000F0936E04E0936D043FC08D919C9111978E
:103770004817590708F4AC017D0112960D90BC91D1
:10378000A02DB3CF80916B0490916C04881599059E
:10379000E1F446175707C8F4809108019091090198
:1037A000009741F48DB79EB740910C0150910D01E7
:1037B000841B950BE817F907C8F4F0936C04E093A9
:1037C0006B04F901718360830FC0CB010E94061A5C
:1037D0007C01009759F0A801BE010E94021CCE0195
:1037E0000E949B1AC70104C0CE0102C080E090E095
:1037F000CDB7DEB7EEE00C949E1981E090E0F8942E
:103800000C941D1CFB01DC0102C001900D92415083
:103810005040D8F708956817790768F4FB01DC0178
:10382000E40FF51FA40FB51F02C002900E92415085
:0E3830005040D8F708950C94021CF894FFCF76
:10383E0001003030302D300000006F048000C33C9A
:10384E0033CE3EE3EC000000003A0AA709D209810C
:10385E000A030AE109F50900000000290215023BDE
:10386E0002D501DC01D901D601000000001F04A71A
:10387E00093B023A027D092A2A4D61737465722A48
:10388E002A0052656365697665643A20000D0A0068
:10389E004E6F646549443A200020524632344E65DC
:1038AE0074776F726B20416464726573733A203063
:0A38BE00004E6F6465733A200000AD
:00000001FF
